:020000041000EA
:10000000B0621710010200101F020010450300101B
:100010002102001023020010250200100000000041
:100020000000000000000000000000002702001097
:1000300029020010000000002B0200102D02001009
:100040002F0200102F0200102F0200102F020010AC
:100050002F0200102F0200102F0200102F0200109C
:100060002F0200102F0200102F0200102F0200108C
:100070002F0200102F0200102F0200102F0200107C
:100080002F0200102F0200102F0200102F0200106C
:100090004D5400102F0200102F0200102F020010EC
:1000A0002F0200102F0200102F0200102F0200104C
:1000B0002F0200102F0200102F0200102F0200103C
:1000C0002F0200102F0200102F0200102F0200102C
:1000D0002F0200102F0200102F0200102F0200101C
:1000E0002F0200102F0200102F0200102F0200100C
:1000F0002F0200102F0200102F0200102F020010FC
:100100002F0200102F0200102F0200102F020010EB
:100110002F0200102F0200102F0200102F020010DB
:100120002F0200102F0200102F0200102F020010CB
:100130002F0200102F0200102F0200102F020010BB
:100140002F0200102F0200102F0200102F020010AB
:100150002F0200102F0200102F0200102F0200109B
:100160002F0200102F0200102F0200102F0200108B
:100170002F0200102F0200102F0200102F0200107B
:100180002F0200102F0200102F0200102F0200106B
:10019000000000000000000000000000000000005F
:1001A000000000000000000000000000000000004F
:1001B000000000000000000000000000000000003F
:1001C000000000000000000000000000000000002F
:1001D000000000000000000000000000000000001F
:1001E000000000000000000000000000000000000F
:1001F00000000000000000000000000000000000FF
:100200004EF68850CEF20000016841F470010160A2
:10021000BFF34F8FBFF36F8F05480047FEE7FEE740
:10022000FEE7FEE7FEE7FEE7FEE7FEE7FEE7FEE7A6
:100230003502001000F002F800F075F80AA090E80E
:10024000000C82448344AAF10107DA4501D100F091
:100250006AF8AFF2090EBAE80F0013F0010F18BFE9
:10026000FB1A43F001031847849D0000A49D000081
:100270000A444FF0000C10F8013B13F0070408BFCC
:1002800010F8014B1D1108BF10F8015B641E05D06A
:1002900010F8016B641E01F8016BF9D113F0080F1F
:1002A0001EBF10F8014BAD1C0C1B09D16D1E58BFB1
:1002B00001F801CBFAD505E014F8016B01F8016BE8
:1002C0006D1EF9D59142D6D370470000103A24BF75
:1002D00078C878C1FAD8520724BF30C830C144BFAB
:1002E00004680C60704700000023002400250026ED
:1002F000103A28BF78C1FBD8520728BF30C148BF89
:100300000B6070471FB509F060F900F0BAF800F013
:10031000D3FA04000020002109F0C2F8401C6060FC
:100320001FBD10B510BD00F0D9FA1146FFF7EAFF66
:1003300006F008F900F0F7FA03B4FFF7F2FF03BC88
:1003400000F0FCFA01B51EF0040F0ABFEFF30880BD
:10035000EFF3098010F1080005F09CF801BD800062
:100360004018006870470000EFF3108062B67047D5
:10037000EFF3108072B6704780F31088704700006A
:100380000B49D1F800C04A685CF8043B1068184477
:1003900042F8040B8C4528BFA1F1DC0C8A4228BF2F
:1003A000A1F1DC02C1F800C04A6020F000407047B3
:1003B0004852171002480349014A034B7047000096
:1003C000B0521710B0621710B052171070B5064631
:1003D00000F0E2F90468054630460A22002100F0E8
:1003E0002EFA2C6070BD2DE9F05F93460F468046D3
:1003F0000446002600F0D0F9D0F80090824614F8A8
:10040000015B2DB100F0C0F90068405DC007F6D176
:100410002B2D02D02D2D1AD0641E0021CAF80010F9
:100420005A463946204600F0BBF9014627B13868E4
:10043000A04201D1C7F80080DAF80000022809D0F4
:10044000CAF80090700505D54842BDE8F09F46F413
:100450008066E2E70846F8E70B4910B5A1F17C0297
:100460000A4CC2E93712372106E000EB104342F88C
:100470002130074B00FB03400B1EA1F10101F4DC0E
:1004800010BD0120E8E70000E8511710E119D66619
:10049000CD0D010040EA010310B59B070FD1042ADE
:1004A0000DD310C808C9121F9C42F8D020BA19BA3F
:1004B000884201D9012010BD4FF0FF3010BD1AB1A4
:1004C000D30703D0521C07E0002010BD10F8013BF9
:1004D00011F8014B1B1B07D110F8013B11F8014B20
:1004E0001B1B01D1921EF1D1184610BD10B5431C43
:1004F00002E010F8011B71B18107FAD14FF001320F
:1005000002C88C1A8C4314EAC211F9D0C01A0A0628
:1005100003D0C01E10BDC01A10BD0A0401D0801E39
:1005200010BD0902FCD0401E10BD032A40F23080ED
:1005300010F0030C00F0158011F8013BBCF1020F24
:10054000624498BF11F801CB00F8013B38BF11F8A5
:10055000013BA2F1040298BF00F801CB38BF00F8BC
:10056000013B11F0030300F02580083AC0F0088039
:1005700051F8043B083A51F804CBA0E80810F5E71D
:10058000121D5CBF51F8043B40F8043BAFF3008000
:10059000D20724BF11F8013B11F801CB48BF11F875
:1005A000012B24BF00F8013B00F801CB48BF00F845
:1005B000012B704710B5203AC0F00B80B1E81850FD
:1005C000203AA0E81850B1E81850A0E81850BFF43D
:1005D000F5AF5FEA027C24BFB1E81850A0E81850DC
:1005E00044BF18C918C0BDE810405FEA827C24BF30
:1005F00051F8043B40F8043B08BF7047D20728BFBE
:1006000031F8023B48BF11F8012B28BF20F8023B0C
:1006100048BF00F8012B70474FF000020429C0F0DA
:10062000128010F0030C00F01B80CCF1040CBCF124
:10063000020F18BF00F8012BA8BF20F8022BA1EB76
:100640000C0100F00DB85FEAC17C24BF00F8012B5B
:1006500000F8012B48BF00F8012B70474FF0000253
:1006600000B5134694469646203922BFA0E80C50A8
:10067000A0E80C50B1F12001BFF4F7AF090728BF83
:10068000A0E80C5048BF0CC05DF804EB890028BFFF
:1006900040F8042B08BF704748BF20F8022B11F028
:1006A000804F18BF00F8012B704710B5044610F0BA
:1006B000030F08BF11F0030F40F015804FF0013E0B
:1006C000121FC0F20E8051F8043BA3EB0E0C2CEA73
:1006D000030C1CEACE1C08BF40F8043BF0D0A1F18B
:1006E000040102F10402521E08DB11F8013B002B49
:1006F00000F8013BF7D11146FFF78EFF204610BDF1
:100700004FF0013C50F8042B51F8043B9A4221D1A0
:10071000A2EB0C03934313EACC1317D150F8042B2C
:1007200051F8043B9A4215D1A2EB0C03934313EA10
:10073000CC130BD150F8042B51F8043B9A4209D149
:10074000A2EB0C03934313EACC13DBD04FF0000071
:10075000704700BFD01A01BAB1FA81F101F0180157
:1007600022FA01F0CB40C1F12001DBB2C0B2C01AC5
:100770002CFA01F3D11A914311EAC311E6D1704763
:10078000704770477047000010B500F095F8001DE5
:1007900010BD00BF0D8D000000487047505217106B
:1007A0002DE9F05F824615468B4600270AF10104C9
:1007B000B9460078302801D09DB113E014F8010B40
:1007C0000127782803D0582801D045B10AE00DB19F
:1007D000102D07D1002714F8010B102502E0082581
:1007E00000E00A250026B0460EE005FB080005FBE8
:1007F00006F101271FFA80F801EB1046B6F5803F9D
:1008000000D3B94614F8010B294600F059F8002826
:10081000EBDABBF1000F05D00FB1641E00E05446C7
:10082000CBF80040B9F1000F06D0FFF7B5FF022169
:100830000160C81EBDE8F09F48EA0640FAE72DE9CE
:10084000F04791460F4680460446002614F8015BA7
:100850002DB1FFF799FF0068405DC007F6D12B2D41
:1008600002D02D2D18D0641E4A4639462046FFF787
:1008700097FF27B13968A14201D1C7F800804FF036
:10088000020471050BD54042002803DDFFF784FF09
:100890000460A007BDE8F08746F48066E4E700281E
:1008A000F8DAFFF779FF04606FF00040F2E700002C
:1008B0000048704750521710004870477052171088
:1008C0003A2800D2303820F02002412A01D3A2F188
:1008D0003700884201D34FF0FF3070477546FFF76D
:1008E000E7FFAE4605006946534620F007008546FF
:1008F00018B020B5FFF75EFDBDE820404FF00006C0
:100900004FF000074FF000084FF0000B21F00701F7
:10091000AC46ACE8C009ACE8C009ACE8C009ACE83A
:10092000C0098D46704710B50446AFF300802046DD
:10093000BDE81040FFF700BD7047000001491820D6
:10094000ABBEFEE72600020030B5002215E015061A
:10095000002300240BE085EA030000F0004018B1FA
:10096000084880EA430300E05B006D00641C082C2B
:10097000F1D3054840F82230521CFF2AE7D900F095
:10098000B5F930BDB71DC1042C2517102DE9F04174
:1009900005460C46164616B9A847BDE8F081012E5B
:1009A00002D12068A847F8E7022E03D1D4E900015C
:1009B000A847F2E7032E03D194E80700A847ECE725
:1009C000042E03D194E80F00A847E6E70020E4E7EF
:1009D0002DE9F05F80460F461546B8F1000F02D1B1
:1009E000002012490860AE0805F00309BA46DFF896
:1009F00040B0002404E05AF824004BF82400641CA2
:100A0000B442F8D3042202FB0671094A042303FB13
:100A100006204A46FFF789FD044800682844034938
:100A2000086008460068BDE8F09F0000D836161040
:100A3000602016102DE9F04104460D461646012BA4
:100A400001D100F053F9002210E0501914F8008091
:100A50000A48006888EA1060094951F820000749EF
:100A6000096880EA012005490860521CB242ECD3B3
:100A7000024807683846BDE8F0810000D0361610FD
:100A80002C25171010B5FFF75FFF002423E045F277
:100A9000AA5004EBC411114A02EB41110880002056
:100AA00004EBC41102EB4111887604EBC41102EB94
:100AB0004111C87604EBC41102EB4111087604EB36
:100AC000C41102EB41118876FF2004EBC41102EB44
:100AD0004111C876641C032CD9DB10BD0000161030
:100AE00070B50E48C07860B90C484468026900F1DE
:100AF00020012046FFF719FD0021084600F0FEF80E
:100B00000AE00648C078012806D104484468856890
:100B10002946204600F0F2F870BD000020101610A3
:100B20002DE9F04F91B04C48C07838B94A48456833
:100B300086680021084600F0E1F889E04648C07860
:100B400001280ED1444845688668B3082A4600F15A
:100B50002001424802F04CF80021084600F0CEF88F
:100B600076E03D48C078022830D13B484568866829
:100B70004FEA1638C6F30B07002417E005EB0431E3
:100B80004FF480523648FFF7D0FCA8F10100A04294
:100B900003D117B94FF0010B01E04FF0000B0BF040
:100BA000FF020121080300F0E3F8641C4445E5DB83
:100BB000002F4DDD05EB04313A462948FFF7B5FC1F
:100BC00001221146384600F0D3F841E02248C078AF
:100BD00003283BD1204845688668D0F80CA04FEA2E
:100BE0001638C6F30B0700F081F800240FE005EB80
:100BF00004314FF480521A48FFF797FC00234FF45A
:100C0000805219461648FFF715FF8146641C44457B
:100C1000EDDB002F0CDD05EB04313A461048FFF701
:100C200084FC00233A4619460D48FFF703FF81462E
:100C3000D14501D1012000E000208DF80400CDF85D
:100C40000590052101A800F059F801E00248C0789C
:100C500011B0BDE8F08F00002010161021433412AF
:100C6000602016102DE9F0431E48C07EC04300F0FE
:100C7000FF091C48807E012832D11A48807E4845F1
:100C80002ED11948807E58BB01231C220021154813
:100C9000FFF7D0FE05461348C069A84220D111488D
:100CA0000269012300212030FFF7C4FE06460D48EB
:100CB0004169B14214D10746DFF82C80002404E0DA
:100CC00057F8240048F82400641CB4F5816FF7D36A
:100CD000002004498876FF20C8760120BDE8F08313
:100CE0000020FBE700001610201016104FF0FF3018
:100CF0000149086070470000D03616102DE9F04712
:100D000006460D464FEA1539C5F30B07002417E0D8
:100D100006EB04314FF480520020FFF759FE804665
:100D2000A9F10100A04203D117B94FF0010A01E077
:100D30004FF0000A52460121404600F019F8641CA9
:100D40004C45E5DB002F0BDD06EB04313A46002075
:100D5000FFF73EFE804601221146404600F008F8AB
:100D600025B901221146002000F002F8BDE8F08705
:100D70002DE9FE4F05460F4690460020009040F6B4
:100D8000B83B28480190A0F581500290002406E06D
:100D9000029850F82410019840F82410641C072C85
:100DA000F6DB02211F488176FD21C17601232A4608
:100DB00000212030FFF73EFE81461A48C0F814900B
:100DC000056180F8198001231C220021FFF732FE03
:100DD00006461449CE61002113488176FF21C17671
:100DE000012F1DD118E00F48C07EC04300F0FF0A5C
:100DF0000C48807E28B90B48807E504501D10120E7
:100E000000E000200090ABF1010BBBF1000F00D11E
:100E100005E0012004F02EFB00980028E3D000BF7D
:100E2000BDE8FE8F402016102010161008B50B48A4
:100E3000006800902220009901F046FE08480068F2
:100E400000902320009901F03FFE0021222001F0B4
:100E500065FE0021232001F061FE08BDF03416106C
:100E6000F434161008B50B48006800902220009951
:100E700001F02AFE0848006800902320009901F044
:100E800023FE0121222001F049FE0021232001F050
:100E900045FE08BDF0341610F434161003B581B0C9
:100EA000019820B101287DD002287CD1BFE20298B0
:100EB000142879D2DFE800F00A277878285558A35B
:100EC000A4F5F6F27878787829562A57FE48006813
:100ED00000903920009901F0F7FDFC48006800906F
:100EE0004020009901F0F0FDF94800680090412091
:100EF000009901F0E9FDF74800680090482000994A
:100F000001F0E2FD5FE15EE100BF00BFEE48006876
:100F100000903920009901F0D7FDEC48006800905E
:100F20004020009901F0D0FDE94800680090412080
:100F3000009901F0C9FDE84800680090422000993E
:100F400001F0C2FDE548006800904320009901F0DF
:100F5000BBFDE048006800904820009901F0B4FD16
:100F600031E100BF00BF2EE1D74800680090392072
:100F7000009901F0A9FDD548006800904020009933
:100F800001F0A2FDD248006800904120009901F0D4
:100F90009BFDD148006800904220009901F094FD2B
:100FA000CE4802E011E1F3E30CE100680090432039
:100FB000009901F089FDCA4800680090442000991A
:100FC00001F082FDC748006800904520009901F0BB
:100FD0007BFDC548006800904620009901F074FD33
:100FE000C248006800904720009901F06DFDB948A3
:100FF000006800904820009901F066FDE3E0E2E01F
:10100000B148006800903920009901F05DFDAF48BB
:10101000006800904020009901F056FDAC4800683F
:1010200000904120009901F04FFDAB48006800900E
:101030004220009901F048FDA84800680090432034
:10104000009901F041FDA6480068009044200099F5
:1010500001F03AFDA348006800904520009901F096
:1010600033FDA148006800904620009901F02CFD56
:101070009E48006800904720009901F025FD9548A2
:10108000006800904820009901F01EFD9848006813
:1010900000904920009901F017FD94E091E001E0F3
:1010A000FFE790E0FFF7DEFE8748006800903920F8
:1010B000009901F009FD85480068009040200099E2
:1010C00001F002FD8248006800904120009901F083
:1010D000FBFC8148006800904220009901F0F4FC7C
:1010E0007E48006800904320009901F0EDFC7C48A8
:1010F000006800904420009901F0E6FC79480068FF
:1011000000904520009901F0DFFC774800680090CE
:101110004620009901F0D8FC7448006800904720F0
:10112000009901F0D1FC73480068009025200099D7
:1011300001F0CAFC7048006800902620009901F078
:10114000C3FC6E48006800902720009901F0BCFCA9
:101150006B48006800902820009901F0B5FC6948B0
:10116000006800902920009901F0AEFC66480068F4
:1011700000902A20009901F0A7FC644800680090C4
:101180002B20009901F0A0FC6148006800902C2001
:10119000009901F099FC4F480068009048200099A0
:1011A00001F092FC5248006800904920009901F03B
:1011B0008BFC5848006800902D20009901F084FCB9
:1011C00001E000E000BF00BF35E3FFF72FFE02980B
:1011D000142877D2DFE800F00A547676275558D6DF
:1011E000D7FE767676767676285629574A4800686E
:1011F00000903820009901F067FC48480068009092
:101200002520009901F060FC4548006800902620E8
:10121000009901F059FC4348006800902D20009986
:1012200001F052FC01E100BF00BF3B4800680090A4
:101230003820009901F048FC3848006800902520CB
:10124000009901F041FC3648006800902620009982
:1012500001F03AFC3448006800902720009901F022
:1012600033FC3248006800902820009901F02CFCE3
:101270002C48006800902D20009901F025FCD4E056
:10128000D3E000BF00BFD0E02348006800903820C2
:10129000009901F019FC2148006800902520009970
:1012A00001F012FC1E48006800902620009901F011
:1012B0000BFC1D48006800902720009901F004FCF9
:1012C0001A4835E0B0E00000AC331610B033161009
:1012D000B4331610F0331610B8331610BC33161092
:1012E000C0331610C4331610C8331610CC33161082
:1012F000F4331610D0331610D4331610D83316101A
:10130000DC331610E0331610E4331610E8331610F1
:10131000EC331610F8331610FC3316100034161088
:101320000434161020341610083416100C3416101D
:10133000006800902820009901F0C6FBFD48006875
:1013400000902920009901F0BFFBFB480068009045
:101350002A20009901F0B8FBF848006800902B2083
:10136000009901F0B1FBF648006800902C2000992C
:1013700001F0AAFBF348006800902D20009901F0CD
:10138000A3FB52E051E0F04800680090382000993B
:1013900001F09AFBED48006800902520009901F0CB
:1013A00093FBEB48006800902620009901F08CFB2D
:1013B000E848006800902720009901F085FBE64886
:1013C000006800902820009901F07EFBD948006851
:1013D000009000E027E02920009901F075FBD64835
:1013E000006800902A20009901F06EFBD348006845
:1013F00000902B20009901F067FBD1480068009015
:101400002C20009901F060FBCE48006800902D2050
:10141000009901F059FBD148006800902E200099F6
:1014200001F052FB01E000E000BF00BF03E20298C0
:10143000142872D2DFE800F00A27717144729FE627
:10144000FDFC71717171717145734674C448006817
:1014500000900020009901F037FBC248006800901E
:101460004A20009901F030FBBF48006800904B20F3
:10147000009901F029FBBD480068009052200099B6
:1014800001F022FBD4E1BA48006800905620009990
:1014900001F01AFBB348006800904A20009901F05F
:1014A00013FBB148006800904B20009901F00CFB41
:1014B000AE48006800905220009901F005FBB7E1AA
:1014C00000BF00BFA648006800900020009901F00E
:1014D000FBFAA448006800904A20009901F0F4FA51
:1014E000A148006800904B20009901F0EDFAA14856
:1014F000006800904C20009901F0E6FA9E480068D0
:1015000000904D20009901F0DFFA984800680090A3
:101510005220009901F0D8FA8AE188E100BF00BFAB
:101520009348006800905620009901F0CDFA8D484C
:10153000006800904A20009901F0C6FA8A480068C5
:1015400000904B20009901F0BFFA8A480068009093
:101550004C20009901F0B8FA8748006800904D20AF
:10156000009901F0B1FA814800680090522000997A
:1015700001F0AAFA5CE17A48006800900020009926
:1015800001F0A2FA7748006800904A20009901F023
:101590009BFA7548006800904B20009901F094FA7E
:1015A0007448006800904C20009901F08DFA724850
:1015B000006800904D20009901F086FA6F4800689D
:1015C00000904E20009901F07FFA6D48006800906D
:1015D0004F20009901F078FA6A4800680090502086
:1015E000009901F071FA6848006800905120009954
:1015F00001F06AFA5D48006800905220009901F0FD
:1016000063FA15E15A48006800905620009901F0ED
:101610005BFA5448006800904A20009901F054FA9F
:101620005148006800904B20009901F04DFA01E00C
:10163000AFE031E04F48006800904C20009901F085
:1016400043FA4D48006800904D20009901F03CFAA3
:101650004A48006800904E20009901F035FA484849
:10166000006800904F20009901F02EFA454800686C
:1016700000905020009901F027FA4348006800903C
:101680005120009901F020FA38480068009052205B
:10169000009901F019FACBE0314800680090002071
:1016A000009901F011FA2F48006800904A20009933
:1016B00001F00AFA2C48006800904B20009901F0D4
:1016C00003FA2C48006800904C20009901F0FCF9C6
:1016D0002948006800904D20009901F0F5F927484D
:1016E000006800904E20009901F0EEF9244800684F
:1016F00000904F20009901F0E7F92248006800901F
:101700005020009901F0E0F91F4800680090512036
:10171000009901F0D9F9154800680090522000990D
:1017200001F0D2F91948006800905320009901F0A7
:10173000CBF97DE01034161014341610183416103E
:101740001C34161020341610FC33161000341610FA
:1017500004341610083416100C34161024341610E5
:10176000043316100C331610103316102C331610C9
:101770000833161014331610183316101C331610B5
:101780002033161024331610283316103033161059
:1017900050E02A48006800905620009901F094F922
:1017A0002748006800904A20009901F08DF92548EB
:1017B000006800904B20009901F086F922480068EB
:1017C00000904C20009901F07FF9204800680090BB
:1017D0004D20009901F078F91D48006800904E20D6
:1017E000009901F071F91B48006800904F200099A2
:1017F00001F06AF91848006800905020009901F043
:1018000063F91648006800905120009901F05CF9D6
:101810001348006800905220009901F055F91148D2
:10182000006800905320009901F04EF900E000BFDD
:1018300000BF00E000BF00BF0EBD0000083316105F
:101840000C331610103316101433161018331610EC
:101850001C3316102033161024331610283316109C
:101860002C331610303316101CB51649002003F027
:1018700089FCE0B9002211461248006803F034FDEB
:10188000A8B911490F48006803F0FCFA78B90F486D
:10189000006800903C20009901F016F938B90C4816
:1018A000006801902F20019901F00EF910B14FF05E
:1018B000FF301CBD022007490870074804F078F883
:1018C0000020F6E7D0311610F8950010E831161018
:1018D000EC311610CC311610DD18001030B589B07F
:1018E000054600240020089000E0641C285D0028C4
:1018F000FBD1202209496846FEF75CFE019502945F
:1019000008A8039069460648006803F07DFD089822
:10191000A04201D000BFFEE709B030BD0496001020
:10192000D03116102DE9F04786B007460C46154613
:101930001E46DDE90E89CDF8009000208DF80400E8
:101940008DF806008DF80750029601208DF80C00E6
:10195000ADF80E408DF8100000208DF80500012034
:101960008DF8110000208DF81200CDF81480054A82
:101970006946384601F06AF98246504606B0BDE82D
:10198000F087000040420F002DE9F04F89B0054676
:101990000E4617469846DDE9129A4FF0000B0020DC
:1019A00002902C46A07A10B1A07A012809D102AA8F
:1019B0000021284605F0E0FF18B1012009B0BDE87C
:1019C000F08FCDF80CA000208DF8100001208DF8CC
:1019D00012008DF81370CDF814808DF81800ADF852
:1019E0001A6000208DF81C008DF811008DF81D0084
:1019F0008DF81E00CDF820900A4A03A9284601F070
:101A000025F90190A07A10B1A07A012807D100220F
:101A10002846029905F0B0FF08B10120CEE70198F1
:101A2000CCE7000040420F002DE9F04186B00546AA
:101A30004FF000082C462768207A0A2806D0207A22
:101A40000B2803D0002006B0BDE8F081032F01D998
:101A50000120F8E7207A0A2802D00B280CD105E0F3
:101A6000162216496846FEF760FD07E01622144963
:101A70006846FEF75AFD01E00120E4E700BF606818
:101A800002F01AFB06460EB10120DCE769466068E9
:101A900002F090F920B10BA003F06CFF0120D2E717
:101AA000606802F049FB06460EB10120CBE79DF8C5
:101AB00008103846FFF7F2F90020C4E7203116106D
:101AC000363116104572726F72202D204661696C96
:101AD000656420746F207265636F6E666967204D60
:101AE000535049206465766963652E0D0A00000035
:101AF0002DE9F04186B005464FF000082C462768D6
:101B0000207A0A2806D0207A0B2803D0002006B0BD
:101B1000BDE8F081032F01D90120F8E7207A0A28D7
:101B200002D00B280CD105E0162216496846FEF7B4
:101B3000FCFC07E0162214496846FEF7F6FC01E0BB
:101B40000120E4E700BF606802F0B6FA06460EB175
:101B50000120DCE76946606802F02CF920B10BA097
:101B600003F008FF0120D2E7606802F0E5FA0646BC
:101B70000EB10120CBE79DF808103846FFF78EF92B
:101B80000020C4E74C311610623116104572726F96
:101B900072202D204661696C656420746F20726527
:101BA000636F6E666967204D53504920646576699E
:101BB00063652E0D0A0000002DE9FF5F0746894688
:101BC00015464FF0000AD3463C463846FFF72CFF37
:101BD000A07A08B9042000E00820824603AA5146F2
:101BE000606805F003FF18B1012004B0BDE8F09F64
:101BF000207A10B1207A012807D102AA002160685A
:101C000005F0BAFE08B10120EFE7207A042802D0DF
:101C1000207A052807D1A07A10B14FF4884604E055
:101C200044F2400601E044F240060420CDE90050B1
:101C30004B46012231466068FFF774FE8046B8F1DA
:101C4000000F04D03846FFF753FF0120CDE70022F4
:101C50006068039905F0CAFE08B10120C5E7207A43
:101C600010B1207A012807D100226068029905F09E
:101C700083FE08B10120B8E73846FFF739FF28781E
:101C800028600020B1E72DE9FE4F064688469146C0
:101C90004FF0000A34463046FFF7C6FE207A10B1F6
:101CA000207A012808D102AA0021606805F064FEAC
:101CB00010B10120BDE8FE8F207A042802D0207ADE
:101CC000052807D1A07A10B14FF44C4504E04CF23E
:101CD000C00501E04CF2C0050120CDE9009043466B
:101CE000012229466068FFF74FFE074627B13046BC
:101CF000FFF7FEFE0120DDE7207A10B1207A0128EF
:101D000007D100226068029905F036FE08B1012073
:101D1000D0E73046FFF7ECFE0020CBE770B5044675
:101D20002546074B296803EB01121021686801F072
:101D300003F906460EB1012070BD0020FCE700004B
:101D40006030161070B5044625460D4B296803EB2C
:101D500001120E21686801F0EFF806460EB101206D
:101D600070BD074B296803EB01121121686801F06F
:101D7000E3F806460EB10120F2E70020F0E700008C
:101D8000603016102DE9F04F87B00746884615469B
:101D90001E46DDF840A0BB46BAF1000F2BD0002054
:101DA000069006A81D49002202924346CDE900563E
:101DB000CDE9032105901146584606F02FFE044652
:101DC0001CB1012007B0BDE8F08F4FF0000908E01A
:101DD0009DF8180000B107E0012003F04BFB09F16A
:101DE00001090F488145F3D300BF9DF8180008B9D9
:101DF0000120E7E710E000200290039004904346A2
:101E000002460146CDE900560590584606F006FE0A
:101E100004460CB10120D5E70020D3E7FD76001081
:101E200040420F002DE9F04F87B00746884615461F
:101E30001E46DDF840A0BB46BAF1000F2CD00020B2
:101E4000069006A81E49002202924346CDE900569C
:101E5000CDE90321059001220021584606F0DEFD60
:101E600004461CB1012007B0BDE8F08F4FF0000917
:101E700008E09DF8180000B107E0012003F0FAFA2D
:101E800009F101090F488145F3D300BF9DF81800FF
:101E900008B90120E7E710E00020029003900490C9
:101EA000434601220146CDE900560590584606F00A
:101EB000B5FD04460CB10120D5E70020D3E70000B2
:101EC000FD76001040420F0070B5064634464FF0D4
:101ED000FF31606802F046FA05460DB1012070BD81
:101EE0004FF0FF31606802F01FFA05460DB1012086
:101EF000F5E7606802F0E0F805460DB10120EEE775
:101F000000220221606802F0C5FC20B107A003F0A6
:101F100031FD0120E3E7606801F02AFF05460DB1BD
:101F20000120DCE70020607200BFD8E74572726FC5
:101F300072202D204661696C656420746F20706F7B
:101F4000776572206F6E204D5350492E0D0A0000A8
:101F50002DE9F04794B007460C4691469A46002575
:101F6000032F00D81CB9012014B0BDE8F08700F0A1
:101F700079FD002508E005EB4500A14901EB800053
:101F8000407A00B902E06D1C002DF4D000BF012D95
:101F900001D10120E8E7207830B104280DD00828CD
:101FA0001FD00A282FD125E0162296490EA8FEF749
:101FB000BCFA60789349C87227E0207D40B11622B0
:101FC00091490EA8FEF7B1FA60788F49C87207E010
:101FD00016228E490EA8FEF7A8FA60788B49C872BF
:101FE00013E016228A490EA8FEF79FFA6078884906
:101FF000C8720AE0162287490EA8FEF796FA6078A2
:102000008449C87201E00120AEE700BF60788DF816
:1020100043000DA9384602F02BF920B17EA003F051
:10202000A9FC0120A0E7002211460D9802F032FC25
:1020300020B183A003F09EFC012095E7DFF8248205
:10204000A068C8F800006068C8F8040041460D9810
:1020500000F0C8FE20B184A003F08CFC012083E7CF
:102060000EA90D9801F0A6FE20B17FA003F082FC1E
:10207000012079E7874800EB07130FCB09AE0FC6A5
:10208000E068099020690A9009AA0E210D9800F0D5
:1020900053FF06460EB1012066E707EB47007E4975
:1020A00001EB800207CA06AB07C306AA0F210D98F1
:1020B00000F042FF06460EB1012055E707EB87000E
:1020C000764901EB40000168039141680491008961
:1020D000ADF814009DF8400018B19DF840000428A8
:1020E00002D100208DF80C0003AA0B210D9800F0FE
:1020F00023FF06460EB1012036E7694A07CA8DE87C
:102100000700207D10B900208DF8020060780128BA
:1021100002D102208DF804006A460C210D9800F0CF
:102120000BFF06460EB101201EE7207D012810D1CD
:1021300000220A210D9800F0FFFE06460EB1012094
:1021400012E7012005EB45012D4A02EB810188725F
:102150000FE0002209210D9800F0EEFE06460EB1B8
:10216000012001E7002005EB4501254A02EB810132
:1021700088720D9801F0E0FF20B14AA003F0FAFB4D
:102180000120F1E69DF840103846FEF787FE9620C4
:1021900003F079F94FF4D4510D9802F0C5F80646D2
:1021A0000EB10120E0E64FF4D4510D9802F0FEF894
:1021B00006460EB10120D7E6012005EB4501104A85
:1021C00002EB8101487205EB4500114601EB8000EE
:1021D000C9F8000005EB450102EB81010D9848604C
:1021E000CAF8000005EB4500114641F820709DF843
:1021F000400005EB450102EB810108720020B3E6C7
:102200004C371610DE301610F43016100A31161046
:10221000203116104C3116104572726F72202D202D
:102220004661696C656420746F20696E69746961C8
:102230006C697A65204D5350492E0D0A000000004C
:102240004572726F72202D204661696C656420743E
:102250006F20706F776572206F6E204D5350492E3E
:102260000D0A0000403716104572726F72202D2043
:102270004661696C656420746F20636F6E66696780
:10228000757265204D535049206465766963652EEB
:102290000D0A000060301610B03016109030161085
:1022A000D43016104572726F72202D204661696C11
:1022B000656420746F20656E61626C65204D5350BB
:1022C000492E0D0A000000003EB504460020029091
:1022D000062002A900231A46CDE900104FF6FF712F
:1022E0002046FFF751FB08B101203EBD0020FCE76E
:1022F00070B5044625466868FFF7E6FF70BD00002C
:1023000030B502460AB1222901D3062030BD044867
:1023100000EB011539CD82E839000020F6E7000016
:102320008496001038B50446FEF722F800904FF06E
:102330009040006820F440704FF090410860009891
:10234000FEF71AF8A078022101EA40000849084384
:102350002178F02202EA0111084361784FF44072BB
:1023600002EA012108434FF090410860002038BD87
:10237000000410004FF09040006820F00100401C65
:102380004FF0904108600846806820F00100401C32
:1023900088600020704700002DE9F04706460D4692
:1023A0009046994634464EB13068C0F3006028B17B
:1023B000306820F07F402B49884202D00220BDE8DF
:1023C000F087B8F1000F02D0B9F1000F01D106205B
:1023D000F5E7D4E90401884201D00720EFE7204661
:1023E00007F013F8E069FE30216A401A01D5052094
:1023F000E5E7D4E9031088421CD3A81C216901EB4E
:10240000C000A168884201D827691EE0681C616885
:1024100001EBC000E16888420AD2D4F810A0606ADB
:102420004068CAF800006068CAF8040067680CE0F9
:102430000520C4E7681C216901EBC000E1688842FF
:1024400001D2276901E00520B9E7C8F80070206AC9
:10245000401C2062C9F8000007EBC5006061002045
:10246000ADE70000CDCDCD00024611464AB110685F
:10247000C0F3006028B1106820F07F400C4B9842F8
:1024800001D0022070470868C0F3406008B90020FE
:10249000F8E7486A0068006820F001004B6A1B6892
:1024A0001860086820F0007008600020EAE700006B
:1024B000CDCDCD0070B505462C464DB12868C0F392
:1024C000006028B1286820F07F401149884201D07F
:1024D000022070BD2068C0F3406008B10020F8E71A
:1024E0000C49A068884203D30021012000F03AFA89
:1024F000606A0068006840F00100616A096808606D
:10250000206820F0007000F1007020600020E0E7FB
:10251000CDCDCD000000061010B5034619464BB1D5
:102520001868C0F3006028B1186820F07F40194C8B
:10253000A04201D0022010BD0868C0F3406008B975
:102540000020F8E7486A0068006820F001004C6A43
:1025500024682060486A4068026807E010684C6A96
:102560006468A04201D1526800E00832106820F08F
:1025700001004C6AA468A042F0D1486A80681060EB
:10258000486A40680260086820F000700860002017
:10259000D1E70000CDCDCD002DE9F04106460D4636
:1025A00034464EB13068C0F3006028B1306820F086
:1025B0007F401B49884202D00220BDE8F0810DB95E
:1025C0000620FAE7204606F020FFE0692860206A2E
:1025D000A860D4E90410884201D0012000E0002066
:1025E000216A081A6860606A80690768606AC06961
:1025F000384008B1012000E000202873606A406A7A
:10260000384008B1012000E000206873606A006A69
:10261000384008B1012000E00020A8730020CCE77A
:10262000CDCDCD0030B504460B460B2C01DB05208B
:1026300030BD2BB1586818B112B11868022801D208
:102640000620F5E704EB440000EBC400284D55F8E4
:102650002000C0F3006008B10720E9E704EB440064
:1026600000EBC400224D05EB80011868C0008861B2
:1026700058684860C86048610861D3E9000505EB07
:10268000C0008860086820F0807000F180700860E9
:10269000086820F000700860164D086865F31700A0
:1026A000086004EB8400144D05EBC0004862002074
:1026B000C86108624D6AAD6828604D6AED6828609F
:1026C000486A006900684D6A6D6928434D6A2D6942
:1026D000286058684D6A6D682860187A022505EAF6
:1026E00040004D6A2D68286011600020A0E70000BE
:1026F00084581610CDCDCD00349900102DE9F0414D
:1027000005460F462C464DB12868C0F3006028B13D
:10271000286820F07F401349884202D00220BDE89B
:10272000F081D4E90401884201D10720F7E7666906
:10273000606A806838433060206A706006F1080083
:10274000606120610849A068884203D3002101200C
:1027500000F008F994F82000616AC9680860002058
:10276000DDE70000CDCDCD00000006102DE9F041E1
:1027700006460F4634464EB13068C0F3006028B1BB
:10278000306820F07F401649884202D00220BDE820
:10279000F081D4E90401884201D10720F7E7656997
:1027A000606A80682860002068600835606A406858
:1027B000384328606068686005F108006061206146
:1027C0000849A068884203D30021012000F0CAF81C
:1027D00094F82000616AC96808600020D7E700000B
:1027E000CDCDCD0000000610024611464AB110685A
:1027F000C0F3006028B1106820F07F40084B984279
:1028000001D002207047D1E90403984201D107208A
:10281000F8E708694861086A401E08620020F1E78D
:10282000CDCDCD00024611464AB11068C0F300601C
:1028300028B1106820F07F40144B984201D002204C
:1028400070470868C0F3406008B10720F8E7486A9D
:102850000068006820F001004B6A1B681860486837
:10286000C860486108610020C86108624B6A9B68C3
:1028700018604B6ADB6818604B6A48685B681860D0
:10288000086820F0007008600020D9E7CDCDCD00A9
:1028900070B505460E462C464DB12868C0F3006061
:1028A00028B1286820F07F401249884201D00220D8
:1028B00070BD204606F0A9FD2EB9D4E90701884273
:1028C00001D00320F4E7206820F080702060606A67
:1028D0000068006820F00100616A09680860606AA9
:1028E00000690068616A49698843616A096908602A
:1028F0000020DDE7CDCDCD0038B50446FDF738FD2D
:1029000000900021012000F02DF8E4B1207900F0C2
:1029100001006178022202EA41010843E1784FF4A4
:10292000706202EA01210843A1784FF4F81202EA2A
:10293000014108434FF09041086508482168016053
:102940002179017103E006204FF0904108650448A9
:1029500000680098FDF710FD002038BD44351610C2
:102960000000FF4770B504460D464CB1012C04D061
:10297000022C09D0032C0FD10AE003F009FC0DE072
:10298000002003F019FC09E00020FFF7B5FF05E087
:102990000448FFF7B1FF01E0062070BD00BF002032
:1029A000FBE700004435161070B50646002000EB2A
:1029B000461409480068C0F3C100022802D164002F
:1029C000152500E00F25AC4204D9641B0348416A79
:1029D0002046884770BD000000100240049B001094
:1029E0002DE9F04107460C4615461E460FE02068CB
:1029F0002840B04202D10020BDE8F081381EA7F186
:102A0000010703D00120FFF7CFFF00E000E0EEE771
:102A100000BF0420F0E72DE9F04107460C461546BB
:102A20001E46DDF8188018E0B8F1000F06D02068C7
:102A30002840B04208D10020BDE8F081206828403D
:102A4000B04201D00020F7E7381EA7F1010703D0FC
:102A50000120FFF7A9FF00E000E0E5E700BF042048
:102A6000EAE700000548006820F00100401C4FF034
:102A70009041C1F89000002070470000900000488D
:102A8000014609B9062070470E48026802F00100AD
:102A90000870C2F340000872C2F3800008744FF05F
:102AA0009040D0F88400C860064B0C3B48681B6817
:102AB00018434860034B1B1F48691B681843486153
:102AC0000020E0E78C00004813B502461049802A38
:102AD00001D305201CBD0198C0F3812001280BDD26
:102AE00050090C4B53F8200002F01F040123A340AF
:102AF000184008B90720EDE77320074B18600198CC
:102B000041F822000020024BC3F8000200BFE1E7B9
:102B1000000001405C9600100002014038B50446F8
:102B20000D46062D5FD2DFE805F0030D18303B4659
:102B300004F01F01012088402C49C4F3411241F8E0
:102B4000220050E004F01F0101208840274910397D
:102B5000C4F3411241F8220045E0FDF709FC009062
:102B600022482038C4F3411150F8210004F01F021C
:102B70000121914048401D492039C4F3411241F8D8
:102B800022000098FDF7F8FB2DE004F01F01012062
:102B9000884016493031C4F3411241F8220022E046
:102BA00004F01F010120884010492031C4F3411274
:102BB00041F8220017E0FDF7DBFB00900B481030D6
:102BC000C4F3411150F8210004F01F02012191408B
:102BD000484006491031C4F3411241F822000098E0
:102BE000FDF7CAFB00BF00BF002038BD3402014022
:102BF0002DE9F04106460F4614461D4604F00F002D
:102C000010B905F0030018B14FF0FF30BDE8F081B6
:102C10002B4622463946304600F002F8F6E700001F
:102C2000F8B507460D4614461E46B4F5001F00D2FF
:102C3000A4080548009623462A460121D0F810C072
:102C40003846E047F8BD0000049B00102DE9F84F1E
:102C500080460D46924647460026B346B8F1000F1F
:102C60000BD0D8F80000C0F3006030B1D8F80000F5
:102C700020F07F405849884202D00220BDE8F88FFA
:102C8000B87A0A2802D0B87A0B2807D12946087AE0
:102C900000F0030008B10720F0E700BFA87C08B1EE
:102CA0000720EBE77C68386A10B9D7F8400808B10C
:102CB0000720E3E797F82C08022801D10720DDE779
:102CC0002888464901EA0040064328794FF40071FC
:102CD00001EA40200643A879802101EAC01006439A
:102CE000287B30B146F04006E8893D4901EB0431CC
:102CF000C860E87930B146F02006394901EB04316B
:102D0000A8688860287C08B146F48066787B4FF418
:102D1000807101EA0020064300BF687C090101EAD6
:102D200000300643687908B146F4006646F00106B3
:102D30002B4800EB0430D0F800920020284901EB2A
:102D40000431C1F80002401E254901EB0431C1F8ED
:102D50000802234901EB04300660A87938B93B69C1
:102D600020462A68696904F0BBF9834609E0A8791E
:102D7000012806D13B6920462A68696904F004FAF3
:102D80008346BBF1000F0DD04FF0FF30144901EB2B
:102D90000431C1F80802124800EB0430C0F8009278
:102DA00058466BE7012000900D4800EB04310223E8
:102DB0001A465046FFF72FFE83464FF0FF30084972
:102DC00001EB0431C1F80802054800EB0430C0F8FB
:102DD0000092584652E70000BEBEBE000000FFFF52
:102DE00000000640F0B503460C461A4651684BB148
:102DF0001868C0F3006028B1186820F07F404A4D81
:102E0000A84201D00220F0BD1068C0F3406008B1B4
:102E10000720F8E7454800EB0130D0F8900020F09B
:102E20000100424D05EB0135C5F8900000203F4DF3
:102E300005EB0135C5F89C003C4D05EB0135C5F8A7
:102E4000800001EB411505EB0515394E06EB8505B4
:102E50006068A86101EB411505EB051506EB8505DA
:102E6000206868619069E8B3D2E9050505EB800048
:102E7000304DA84201D2012000E0002082F8C008B5
:102E800092F8C00870B996690F3626F00F00167ECA
:102E900006F00F075669C7EB860590612E09B6004C
:102EA000566100BF5069083880004825B0FBF5F036
:102EB00001EB411505EB05151D4E06EB8505C5F823
:102EC000580801EB411000EB0010354605EB80007F
:102ED000D0F85808B0F5807F0BD94FF4807001EB23
:102EE000411500E005E005EB051506EB8505C5F885
:102EF0005808207A01EB411505EB05150C4E06EB41
:102F000085056872012001EB411505EB051506EBFF
:102F100085052872162001EB411505EB051506EB1A
:102F20008505A87200206EE7BEBEBE000000064008
:102F3000383E1610000006102DE9F74F88B0814684
:102F400016464D4600200790B9F1000F0BD0D9F876
:102F50000000C0F3006030B1D9F8000020F07F40DD
:102F6000FE49884203D002200BB0BDE8F08F0998DB
:102F7000212801DD0620F7E7287A08B90720F3E7C2
:102F80006C68099821287CD2DFE800F011203047D6
:102F90005F6C7C8998AAB7C5FDFCFBFAF9F8F7F6D7
:102FA000F5F4F3F2F1F0EFEEEDECEBEAE9000EB937
:102FB0000620D9E73178EA4800EB0430006B61F372
:102FC0000000E74901EB04310863C2E20EB90620B4
:102FD000CAE7E4493068084008B10620C4E7E04980
:102FE00001EB04313068C1F8B402EEE70EB90620F7
:102FF000BAE73068082804D33068072801D00620D3
:10300000B2E73178D64800EB0430006B61F307106B
:10301000D34901EB04310863D7E70EB90620A3E7D3
:103020003068032804D33068072801D006209BE7C6
:1030300030780830CA4901EB0431096B60F307119D
:10304000C74800EB04300163BFE7C54800EB04301C
:10305000D0F8900020F48050C14901EB0431C1F850
:103060009000B2E7BE4800EB0430D0F8900020F4A6
:10307000805000F58050BA4901EB0431C1F890004E
:10308000A3E7FDE3B64800EB0430D0F89C0020F045
:103090000040B34901EB0431C1F89C0095E7B0480A
:1030A00000EB0430D0F89C0020F0004000F100401C
:1030B000AB4901EB0431C1F89C0086E70EB906204C
:1030C00052E731460A78A64800EB0430D0F8900069
:1030D00062F38300A24A02EB0432C2F8900074E764
:1030E0009F4800EB0430D0F8880020F001009C4994
:1030F00001EB0431C1F8880067E7994800EB043020
:10310000D0F8880020F00100401C954901EB043103
:10311000C1F8880059E7002231460EB9062023E79E
:103120000B788F4800EB0430D0F8880063F38200FE
:103130008B4B03EB0433C3F888004B78884800EBD3
:103140000430D0F8880063F3C300854B03EB0433ED
:10315000C3F888008B78824800EB043014E0FCE36D
:10316000FCE3FCE3FCE3FCE3FCE390E355E346E330
:1031700040E348E23CE230E216E2F9E1EAE158E1FC
:10318000C4E167E1F5E065E0D0F8880063F304107E
:10319000734B03EB0433C3F88800CB78704800EB23
:1031A0000430D0F8880063F349106D4B03EB04330F
:1031B000C3F888000B796A4800EB0430D0F8880027
:1031C00063F38E20664B03EB0433C3F888004B791E
:1031D000634800EB0430D0F8880063F3D330604BD1
:1031E00003EB0433C3F888008B795D4800EB0430AF
:1031F000D0F8880063F31450594B03EB0433C3F841
:103200008800CB79564800EB0430D0F8880063F38F
:103210005950534B03EB0433C3F888000B7A5048E2
:1032200000EB0430D0F8880063F39E604C4B03EB56
:103230000433C3F888004B7A494800EB0430D0F8D7
:10324000880063F3DF70464B03EB0433C3F8880058
:10325000104689E631460EB9062085E64A7A40488E
:1032600000EB0430D0F88C0062F303003C4A02EB20
:103270000432C2F88C000A7A394800EB0430D0F8E6
:103280008C0062F30410364A02EB0432C2F88C0060
:10329000CA79334800EB0430D0F88C0062F3451053
:1032A0002F4A02EB0432C2F88C008A792C4800EBDA
:1032B0000430D0F88C0062F3C710294A02EB0432C4
:1032C000C2F88C004A79264800EB0430D0F88C0014
:1032D00062F30820224A02EB0432C2F88C000A7919
:1032E0001F4800EB0430D0F88C0062F34A201C4ADF
:1032F00002EB0432C2F88C00CA78194800EB0430A3
:10330000D0F88C0062F3CB20154A02EB0432C2F8ED
:103310008C008A78124800EB0430D0F88C0062F3FD
:103320000C300F4A02EB0432C2F88C004A780C4889
:1033300000EB0430D0F88C0062F34D30084A02EB09
:103340000432C2F88C000A78054800EB0430D0F84B
:103350008C0062F39030024A06E00000BEBEBE0060
:1033600000000640E0E0E00002EB0432C2F88C000E
:103370002BE631460EB90620F6E50A78FD4800EB4B
:103380000430D0F8840062F31860FA4A02EB043289
:10339000C2F884004A78F74800EB0430D0F8840083
:1033A00062F3D750F34A02EB0432C2F884008A7801
:1033B000F04800EB0430D0F8840062F39650ED4AF8
:1033C00002EB0432C2F884004A79EA4800EB043088
:1033D000D0F8840062F30D20E64A02EB0432C2F812
:1033E00084004A79E34800EB0430D0F8900062F39F
:1033F0009330E04A02EB0432C2F89000CA78DD480C
:1034000000EB0430D0F8880062F34910D94A02EB8F
:103410000432C2F888000A79D64800EB0430D0F8AC
:10342000880062F38E20D34A02EB0432C2F888008F
:10343000CBE500210120FFF795FACE4800EB0430E0
:10344000D0F8900020F00100CA4901EB0431C1F826
:103450009000BAE53146002224B1012C0DD0022C97
:1034600021D115E08868B0F1A05F03D38868B0F17E
:10347000C05F01D3052077E515E08868B0F1C05F33
:1034800003D38868B0F1E05F01D305206CE50AE062
:103490008868B0F1E05F03D38868B0F1005F01D3C2
:1034A000052061E500BF00BF8868C0F30940B24B4A
:1034B00003EA00400243087B102303EA00100243A2
:1034C000487B00F00F0002430868030CA94800EB9A
:1034D0000430D0F89C0063F30900A64B03EB0433DF
:1034E000C3F89C004868030CA24800EB0430D0F8F5
:1034F0009C0063F319409F4B03EB0433C3F89C001B
:103500009C4800EB0430C0F880205EE53146002284
:103510000EB9062028E588794FF4001303EA4050DD
:103520000243C879DB1103EA80300243087A5B105A
:1035300003EA4030024348795B1003EA003002435B
:103540000888C0F30B0002438A4800EB0430C0F83F
:10355000A020B0E2874800EB0430D0F8900020F0C3
:103560000100401C834901EB0431C1F89000F7E3EE
:10357000804901EB0430006820F4807000F5807011
:103580000A4602EB04310860104600EB0430D0F824
:10359000900020F010001030114601EB0431C1F80A
:1035A000900001206873DBE3724901EB043000688E
:1035B00020F480700A4602EB04310860104600EBEC
:1035C0000430D0F8900020F01000114601EB0431D7
:1035D000C1F8900000206873C2E337460EB9062098
:1035E000C2E43878E872284603F0F8FD0020BBE416
:1035F00037460EB90620B7E43878A872284603F09B
:1036000011F90020B0E431785A4800EB0430D0F8CA
:10361000840061F31540574A02EB0432C2F884007B
:1036200008293CD007DC072962D2DFE801F0610DF0
:103630003435366137000C2932D0102931D01829A1
:1036400030D0202954D12EE04A4800EB0430D0F885
:10365000840020F0807000F18070464A02EB043252
:10366000C2F88400434800EB0430D0F8840020F412
:103670000000404A02EB0432C2F884003D4800EBEF
:103680000430D0F8840020F480003A4A02EB04327F
:10369000C2F884002EE000BF00BF00BF00BF00BF23
:1036A00000BF00BF00BF334800EB0430D0F88400F7
:1036B00020F080702F4A02EB0432C2F884002D48BB
:1036C00000EB0430D0F8840020F40000294A02EB1B
:1036D0000432C2F88400274800EB0430D0F884009C
:1036E00020F48000234A02EB0432C2F8840001E097
:1036F000052039E400BFA869D8B320201D4A02EB99
:103700000432C2F81401082943D007DC07296CD21F
:10371000DFE801F06B0D0E3C3D6B3E000C2939D00B
:10372000102938D0182937D020295ED135E000BFC4
:10373000104800EB0430D0F8180120F01F000C30C6
:103740000C4A02EB0432C2F818010A4800EB0430BC
:10375000006A20F47C5000F5F050064A02EB043277
:103760001062044800EB0430D0F8180120F4F8503F
:1037700004E03DE0000006400000FF0300F50060AB
:10378000FA4A02EB0432C2F8180130E000BF00BF71
:1037900000BF00BF00BF00BF00BFF44800EB043013
:1037A000D0F8180120F01F000830F04A02EB043274
:1037B000C2F81801ED4800EB0430006A20F47C5098
:1037C00000F5F050E94A02EB04321062E74800EBE2
:1037D0000430D0F8180120F4F85000F50060E34AF6
:1037E00002EB0432C2F8180101E0052008E400BF32
:1037F0002973B5E2284602F0A3FF0790B0E295F8DE
:10380000C00818B900210120FFF7ACF88020D74983
:1038100001EB0431C1F8B402A2E20EB9062006E4BD
:10382000A86908B907204BE4307808B1012000E00E
:103830000020074695F82C08B84201D100203FE44B
:1038400095F82C0830B1022809D1284602F078FFFB
:10385000079005E0286A08B1072031E400E000BFC6
:1038600000BF079890B9D5F82808FEF7DBFF0020C5
:10387000E861C5F83008286285F82C78012000E05E
:103880006CE285F82D080020C5F85C0868E24FF06E
:10389000000A374600200490039002900EB90620DB
:1038A0000EE4387900F0E00008B1062008E4B049E1
:1038B000B868084008B1062031E495F82C080128C2
:1038C00001D007202BE4D5F8380878B10020C5F8DE
:1038D000380895F8C00818B900210120FFF742F810
:1038E0002020A24901EB0431C1F8B4023878D0B3EA
:1038F00095F82D08B8BB05AB06AA0121D5F8280814
:10390000FEF74AFD8246BAF1000F01D0504606E4A8
:1039100098490598C2B205F1280040F82210059890
:10392000C1B205F5856040F82150904800EB0430A5
:1039300000F52D7006990860002006994860FCF794
:1039400017FD02900121D5F82808FEF7D7FE824620
:10395000BAF1000F10D0029806E0D0E1A2E1D8E061
:10396000B8E0A9E08DE020E0FCF706FDD5F82808D6
:10397000FEF73AFF50466CE4D5F820B00BF1010099
:1039800028620298FCF7F8FCBBF1000F08D148460A
:1039900002F0B1FE8246BAF1000F01D0504658E461
:1039A00000BF402004900004039005AB06AA032149
:1039B000D5F82808FEF7F0FC8246BAF1000F01D0D6
:1039C000504646E4DDF818B0684800EB043000F5D6
:1039D0002E70CBF80800CBF80000644800EB0430F0
:1039E00000F52D70CBF810007868049A40EA0201C7
:1039F000284602F049FDCBF804004FF48040CBF894
:103A00000C00B86803990843CBF81400FCF7B0FC2D
:103A10000290387830B10021D5F82808FEF7A6FECC
:103A2000824605E00021D5F82808FEF767FE8246A9
:103A3000BAF1000F07D00298FCF79EFCD5F82808D1
:103A4000FEF7D2FE1AE0286A0190286A401C28621C
:103A5000387808B1022000E0002085F82C08029890
:103A6000FCF78AFC019840B9484602F044FE8246C1
:103A7000BAF1000F01D050467EE400BF00BF5046AF
:103A80007AE431460EB9062076E4D5F8540808B138
:103A9000072071E4002005F5046528612860286985
:103AA000401CE8600868686118224868B0FBF2F0C2
:103AB000A860A5F5046553E14FF400102B4901EB14
:103AC0000431C1F8B4020120C5F838080020C5F857
:103AD000440845E195F8C00818B900210120FEF717
:103AE00041FF2020214901EB0431C1F8B40200203C
:103AF000C5F83808D5F8440850B92846D5F8441810
:103B000003F0F8FF0790079810B90020C5F84408A3
:103B100026E13746002005900FB906202CE4D5F8A1
:103B2000280808B9072027E4286AB0F5807F08D064
:103B3000FA68D11C04AB06AAD5F82808FEF72CFCBD
:103B400008B1052018E4094800EB043000F52E7098
:103B5000069908602846396802F096FC0699486084
:103B6000069808300690002015E00000000006408E
:103B7000E0E0E000BD720010B96851F83010069A1C
:103B80001160B96801EBC0014968069A5160401C98
:103B9000069908310691F9688142EDD8B86910B1EB
:103BA0000698B9690860704800EB043000F52E7083
:103BB000069908604FF480400699486006980830DE
:103BC0000690694800EB043000F52D7006990860F6
:103BD000796806984160D7F810A0BAF1000F0ED1AD
:103BE000D5F8380858B995F82C0840B9D5F85818C0
:103BF000D5F85C08B0EB510F01D3DFF870A1049841
:103C0000C1B205F1280040F821A079690498C2B238
:103C100005F5856040F82210FCF7AAFB0590BAF183
:103C2000000F01D0012200E000221146D5F828083B
:103C3000FEF764FD0790079838B10598FCF79CFBE8
:103C4000D5F82808FEF7D0FD2BE0D5F820B00BF111
:103C500001002862D5F83008401CC5F830083869E2
:103C600028B1002085F82D08C5F85C080BE0BAF1F2
:103C7000000F03D00020C5F85C0804E0D5F85C080C
:103C8000401CC5F85C080598FCF776FBBBF1000FFB
:103C900007D1484602F02FFD0790079808B1079812
:103CA00038E45DE0B0460EB9062033E498F8000031
:103CB000032803DC98F80100012801DD062029E42F
:103CC00098F80110284800EB0430D0F8840061F324
:103CD000C710254901EB0431C1F8840098F80010A1
:103CE000214800EB0430D0F8840061F346101E49EF
:103CF00001EB0431C1F884000020079030E00EB9D8
:103D0000062007E431464A7A174800EB0430D0F821
:103D1000840062F39F60144A02EB0432C2F884000C
:103D2000114800EB0430D0F8900020F4706000F5EA
:103D3000A0600D4A02EB0432C2F890000A7B0A48E8
:103D400000EB0430D0F8900062F34D30064A02EBED
:103D50000432C2F890000020079001E006203FE402
:103D600000BF07983CE4000000000640DD70001032
:103D700070B5044625464CB12068C0F3006028B1F8
:103D8000206820F07F400A49884201D0022070BD9F
:103D90002868C0F3406010B1204600F08DF9286813
:103DA00020F0807028600020686000BFEFE700000E
:103DB000BEBEBE002DE9F04180460E4647460025B6
:103DC0007C68B8F1000F0BD0D8F80000C0F3006099
:103DD00030B1D8F8000020F07F40B349884202D0CB
:103DE0000220BDE8F081387A08B90720F9E77C683D
:103DF00000257078602101EA40100543B0788021E9
:103E000001EAC010054330784FF47C5101EA0020EC
:103E10000543B07A30B1012806D0022807D0032824
:103E20000BD107E000BF08E045F4004505E045F48C
:103E3000804502E045F4404500BF00BFF07A4FF4F2
:103E40007C1101EA00400543F07A082818D007DC0D
:103E500007281BD2DFE800F01A0D1011121A130008
:103E60000C280ED010280DD018280CD020280DD1E9
:103E70000AE045F080750BE000BF00BF00BF00BF47
:103E800000BF00BF00BF00BF00BF01E00520A8E7E2
:103E900000BF707A4FF07C4101EA8060054383489F
:103EA00000EB0430C0F88450307C08B1012100E000
:103EB00000217E4800EB0430D0F8880061F3000058
:103EC0007A4901EB0431C1F88800784800EB0430EE
:103ED000006B20F00100754901EB04310863734861
:103EE00000EB0430D0F89000714900EA010545F07C
:103EF0000C05787B102101EA00100543F07B38B1F6
:103F000045F0200530784FF47C2101EA80300543EC
:103F1000707B08B145F04005B07B08B145F08005E5
:103F2000307B4FF4005101EA40300543707A4FF086
:103F30007C7101EA005005435C4800EB0430C0F896
:103F400090500025F0880543B0885A4901EA0040A6
:103F50000543564800EB0430C0F894500025708AA1
:103F6000C0F30B000543307D4FF4704101EA00308F
:103F700005434E4800EB0430C0F898504B4800EB26
:103F80000430006B20F0F0007030484901EB043140
:103F9000086300207873B869002877D0202043494F
:103FA00001EB0431C1F81401F07A08283DD007DC98
:103FB000072868D2DFE800F0670D0E363767380053
:103FC0000C2833D0102832D0182831D020285AD1CC
:103FD0002FE000BF354800EB0430D0F8180120F086
:103FE0001F000C30314901EB0431C1F818012F4892
:103FF00000EB0430006A20F47C5000F5F0502B49AF
:1040000001EB04310862294800EB0430D0F81801B4
:1040100020F4F85000F50060244901EB0431C1F8A8
:10402000180132E000BF00BF00BF00BF00BF00BFEB
:1040300000BF1E4800EB0430D0F8180120F01F002C
:1040400008301A4901EB0431C1F81801174800EB98
:104050000430006A20F47C5000F5F050134901EB65
:1040600004310862114800EB0430D0F8180120F444
:10407000F85000F500600D4901EB0431C1F818015A
:1040800003E003E0FFE70520ABE600BF307AB8723B
:10409000384602F0C7FB00207873F07A387342F29A
:1040A0001070386100209CE6BEBEBE0000000640D5
:1040B000031F00FC0000FFFF70B505462C464DB104
:1040C0002868C0F3006028B1286820F07F401849B4
:1040D000884201D0022070BD2068C0F3406008B95A
:1040E0000020F8E7D4F8400808B9206A08B1032096
:1040F000F1E7A06948B1284602F0F5FA06460EB18C
:104100003046E8E7284602F065FB206820F00070A2
:1041100020600849606801EB0030D0F8900000F0A2
:10412000010018B100210120FEF71CFC0020D2E79D
:10413000BEBEBE000000064070B505462C464DB11F
:104140002868C0F3006028B1286820F07F401B4930
:10415000884201D0022070BD207A08B90720FAE712
:10416000A06918B30020E0612062D4E905126068FC
:1041700002F0CAFA1249134A606802EB0030C0F834
:10418000B4120020C4F8540884F83C08C4F8440869
:10419000C4F83808C4F8400884F82C08C4F830087B
:1041A000012084F82D080020C4F85C08206820F065
:1041B000007000F1007020600020CCE7BEBEBE00A1
:1041C00080004000000006402DE9F04705460E46FD
:1041D00092461F46DDF820902C464FF000084DB166
:1041E0002868C0F3006028B1286820F07F401F498C
:1041F000884202D00220BDE8F087A06908B90720F4
:10420000F9E7D4F8540808B90720F4E7306908B191
:104210000620F0E7706908B10620ECE7A07A0A28CA
:1042200002D0A07A0B2807D13146087A00F00300AB
:1042300008B10720DFE700BF4B463A463146284623
:1042400002F0CEF98046B8F1000F0DD1D4F838084D
:1042500028B90121204603F04DFC804604E0D4F843
:104260004408401CC4F844084046C4E7BEBEBE0033
:1042700010B50246032A01D3052010BD09B9062056
:10428000FBE702EB421000EB0010254B53F8200037
:10429000C0F3006008B10720EFE702EB421000EB2B
:1042A00000101F4B53F8200020F0807000F1807048
:1042B00002EB421303EB0313194C44F82300194B90
:1042C00002EB421000EB001054F8200063F31700DB
:1042D00002EB421303EB031344F8230002EB4210FA
:1042E00000EB0010234603EB80004260002002EB4D
:1042F000421303EB031304EB8303187302EB421323
:1043000003EB031304EB8303986102EB421000EB11
:104310000010234603EB800008600020ADE700009A
:10432000383E1610BEBEBE0030B502460B461446DF
:104330004AB11068C0F3006028B1106820F07F40D7
:10434000064DA84201D0022030BD6168044800EB50
:104350000130C0F808320020F6E70000BEBEBE0003
:104360000000064030B502460B4614464AB11068BC
:10437000C0F3006028B1106820F07F40094DA842CA
:1043800001D0022030BD6168074800EB0130D0F851
:1043900000029843044D05EB0135C5F800020020EA
:1043A000F0E70000BEBEBE000000064030B5024689
:1043B0000B4614464AB11068C0F3006028B110687B
:1043C00020F07F40094DA84201D0022030BD616835
:1043D000074800EB0130D0F800021843044D05EB0C
:1043E0000135C5F800020020F0E70000BEBEBE00A7
:1043F000000006402DE9FF47804689464446B8F153
:10440000000F0BD0D8F80000C0F3006030B1D8F82E
:10441000000020F07F40B949884203D0022004B058
:10442000BDE8F087656894F83C08002874D0606A9D
:1044300040EA09006062A08C00F4C65000286CD0ED
:1044400000BFAF49606801EB0030D0F8040100F014
:1044500001000028F5D101EB0531606AD1F80412A2
:10446000084360624FF0FF30A54901EB0531C1F808
:104470000802A08C00F4C45018B30126A04800EB39
:104480000530D0F8000120F003009D4901EB053113
:10449000C1F800019A4800EB0530006B20F0804025
:1044A000974901EB05310863954800EB0530006B37
:1044B00020F0804000F18040914901EB0531086314
:1044C00000E0002604F504642069401C2061206897
:1044D000401E2060A1682069B0FBF1F201FB120AC6
:1044E0006069A4F504640AEB4A0100EBC10738696E
:1044F00048B100210846FEF735FA3146D7E90420D5
:10450000904700203861D4F8400838B1002060623C
:10451000204603F03DF91BE01DE01AE0002084F87E
:104520003C08774901EB0531C1F80001744800EB04
:104530000530D0F8000220F04000714901EB053150
:10454000C1F8000280206E4901EB0531C1F8B402C8
:1045500000BF002063E7206A00287AD005EB4510F1
:1045600000EB0010674901EB800000F6280A606A42
:1045700040EA09006062DAF8000000286AD0694663
:10458000DAF80000FEF708F80646002E62D184F83B
:10459000340822E0E069401CE061206A401E20628D
:1045A000277F04F1280050F82700B0B10021084609
:1045B000FEF7D8F904F5856151F8270004F12801C8
:1045C00051F827200021904794F82C08022804D0A5
:1045D000002104F1280040F8271094F8340818B995
:1045E000E06900998842D5D194F83408002874D144
:1045F00009F4C45018B99DF80E00002864D0E06991
:10460000401CE061206A401E2062277F04F12800E0
:1046100050F82700B0B100210846FEF7A3F904F5D1
:10462000856151F8270004F1280151F82720012164
:10463000904794F82C08022804D0002104F12800A7
:1046400040F82710204602F04EF806461EB13046CC
:10465000E5E651E041E02A4800EB0530D0F80001E2
:1046600020F00300264901EB0531C1F80001244880
:1046700000EB0530006B20F08040214901EB053153
:1046800008631F4800EB0530006B20F0804000F10C
:1046900080401B4901EB05310863194800EB0530E8
:1046A000D0F8AC02164901EB0531C1F8AC02DAF8DA
:1046B0000000FDF731FF206A30B1204602F01BF800
:1046C00006460EB13046AAE6206A30B9204602F00E
:1046D0000AF806460EB13046A1E6206A58B90848E5
:1046E00000EB0530D0F8000120F00300044901EB95
:1046F0000531C1F8000100BF002090E6BEBEBE003B
:1047000000000640383E161070B503460C461D46A4
:104710004BB11868C0F3006028B1186820F07F40E2
:104720000D4EB04201D0022070BD696862B10B4EDF
:1047300006EB0136D6F80402084E06EB0136D6F831
:1047400000620640266005E0044800EB0130D0F826
:10475000040220600020E7E7BEBEBE000000064065
:104760002DE9FF4F81B0054689461F462C464FF084
:1047700000084DB12868C0F3006028B1286820F017
:104780007F404249884203D0022005B0BDE8F08F47
:10479000A06908B90720F8E794F82C08022801D18D
:1047A0000720F2E7A07A0A2802D0A07A0B2807D1C6
:1047B0004946087A00F0030008B10720E5E700BF8A
:1047C0003E466EB9D4F8380850B994F82C0838B978
:1047D000D4F85818D4F85C08B0EB510F00D32C4E25
:1047E0000E983346009049462846039A01F033FF5D
:1047F0008046B8F1000F01D04046C6E74FF0000BED
:10480000FBF7B6FD83460EB1012200E000221146FF
:10481000D4F82808FDF772FF8046B8F1000F07D0E2
:104820005846FBF7A9FDD4F82808FDF7DDFF29E07D
:10483000D4F820A00AF101002062D4F83008401C0E
:10484000C4F830082FB1002084F82D08C4F85C08A3
:1048500009E01EB10020C4F85C0804E0D4F85C084C
:10486000401CC4F85C085846FBF786FDBAF1000FFF
:1048700008D1284601F03FFF8046B8F1000F01D073
:10488000404682E700BF40467FE70000BEBEBE0054
:10489000DD7000102DE9F04105460F4616462C4606
:1048A0004DB12868C0F3006028B1286820F07F402F
:1048B000EF49884202D00220BDE8F08127B1012FE4
:1048C0007DD0022F7CD1D2E026B194F8600808B9DF
:1048D0000720F1E721790E31C8B200F015FA002E59
:1048E0006FD040F664000159E24A606802EB003084
:1048F000C0F8801040F668000159606802EB003093
:10490000C0F8841040F66C000159606802EB00307A
:10491000C0F888104FF407600159606802EB00305E
:10492000C0F88C1040F674000159606802EB00304A
:10493000C0F8901040F678000159606802EB003032
:10494000C0F8941040F67C000159606802EB00301A
:10495000C0F898104FF408600159606802EB00300D
:10496000C0F89C1040F684000159606802EB0030EA
:10497000C0F8A01040F688000159606802EB0030D2
:10498000016340F68C000159606802EB003041641D
:104990004FF409600159606802EB0030816440F611
:1049A00094000159606802EB0030C16440F69C003D
:1049B0000159606802EB0030C0F8A81202E055E02F
:1049C00051E152E04FF40A600159606802EB003097
:1049D000C0F8B81240F6A4000159606802EB00303C
:1049E000C0F8C01240F6A8000159606802EB003020
:1049F000C0F8C41240F6AC000159606802EB003008
:104A0000C0F8001294F8B018606802EB0030C0F8EB
:104A1000B41240F6B4000159606802EB0030C0F8EF
:104A2000141140F6B8000159606802EB0030C0F87C
:104A3000181140F6BC000159606802EB00300162B9
:104A400040F69800005920F00101606802EB003048
:104A5000C0F8A01294F8980800F0010010B12046A8
:104A600001F049FE002084F86008FEE000BFD4F8A1
:104A7000400808B9206A08B103201DE7002E7CD049
:104A80007C49606801EB0030D0F8801040F664008B
:104A900001517849606801EB0030D0F8841040F68D
:104AA000680001517349606801EB0030D0F888104C
:104AB00040F66C0001516F49606801EB0030D0F89E
:104AC0008C104FF4076001516A49606801EB0030B7
:104AD000D0F8901040F6740001516649606801EB0F
:104AE0000030D0F8941040F67800015161496068B8
:104AF00001EB0030D0F8981040F67C0001515D4980
:104B0000606801EB0030D0F89C104FF40860015150
:104B10005849606801EB0030D0F8A01040F68400DE
:104B200001515449606801EB0030016B40F6880088
:104B300001515049606801EB0030416C40F68C0037
:104B400001514C49606801EB0030816C4FF4096001
:104B500001514849606801EB0030C16C40F6940097
:104B600001514449606801EB0030D0F8A81240F6CA
:104B70009C0001513F49606800E05CE001EB0030BF
:104B8000D0F8B8124FF40A6001513A49606801EB5D
:104B90000030D0F8C01240F6A400015135496068D9
:104BA00001EB0030D0F8C41240F6A80001513149A1
:104BB000606801EB0030D0F8001240F6AC00015103
:104BC0002C49606801EB0030D0F8B0124FF40B6054
:104BD00001512849606801EB0030D0F8141140F60B
:104BE000B40001512349606801EB0030D0F818117E
:104BF00040F6B80001511F49606801EB0030016ABE
:104C000040F6BC0001511B49606801EB0030D0F850
:104C1000A01240F6980001511649606801EB00307F
:104C2000D0F8A00200F0010010B1204601F05BFDB9
:104C3000012084F8600841F6FF712846FFF792FBD7
:104C40000C49606801EB0030D0F8900000F00100E2
:104C500018B100210120FDF785FE21790E31C8B27F
:104C600000F00AF801E0062026E600BF002023E657
:104C7000BEBEBE000000064030B585B005462946E0
:104C800001A8FDF73DFB044614B1204605B030BD38
:104C9000019800680299084008B90020F6E7142D31
:104CA00011D117480068C0280DD101F04DFA044613
:104CB0000CB12046EAE71348006820B111480168AA
:104CC000002001F0D1F9FBF753FB00900198006838
:104CD00002998843019908600098FBF74DFB00207A
:104CE0000090049B1A4605200399FDF794FE0446A4
:104CF0000CB92046CAE7284602F0E2FDC6E70000EC
:104D0000E00F0C402435161030B585B0044621461E
:104D100001A8FDF7F5FA054615B1284605B030BDE6
:104D2000019800680299084008B10020F6E7142CA9
:104D300007D11F48006820B11D480168012001F01B
:104D400093F9FBF715FB009001980068029908435E
:104D5000019908600098FBF70FFB01200090049B6D
:104D60001A4605200399FDF756FE05465DB1142C41
:104D700007D10F48006820B10D480168002001F0FC
:104D800073F92846CAE7142C09D101231A460949A8
:104D90006420FDF725FE05460DB12846BEE70398C1
:104DA00000680499084008B10020B7E70120B5E782
:104DB00024351610101F0C402DE9F84304460D460B
:104DC0001746206900FB07F64FF00009A846FBF7DD
:104DD000CFFA0090D4E90210401AB04218D3002054
:104DE0000EE025B118F8001023686269D1542168DB
:104DF000491CE268B1FBF2F302FB13112160401C75
:104E0000B042EED3A0683044A0604FF0010901E049
:104E10004FF000090098FBF7AFFA4846BDE8F88369
:104E20002DE9F84304460D461746206900FB07F6B6
:104E30004FF00009A846FBF79BFA0090A068B0422B
:104E400018D300200EE025B162686169895C08F81A
:104E500000106168491CE268B1FBF2F302FB131118
:104E60006160401CB042EED3A068801BA0604FF090
:104E7000010901E04FF000090098FBF77DFA484670
:104E8000BDE8F8832DE9F04706460D4637467C6AB3
:104E90004EB13068C0F3006028B1306820F07F4028
:104EA0008A49884202D00220BDE8F0870020884964
:104EB00001EB04310863864800EB0430006B20F0FE
:104EC00008000830824901EB0431086381492868F1
:104ED00088420BD97E4800EB0430006B20F0700054
:104EE00050307B4901EB043108630AE0784800EB5D
:104EF0000430006B20F070001030754901EB043174
:104F00000863734800EB0430006B20F00100704927
:104F100001EB043108636E4800EB0430006B20F4B1
:104F200000706B4901EB04310863694800EB043001
:104F3000006B20F48070664901EB0431086307F1CF
:104F400028022046296801F037F88046B8F1000FA2
:104F500001D04046A8E75E4800EB0430006B20F427
:104F600080405B4901EB04310863594800EB043091
:104F7000006B20F40040564901EB043108635448AB
:104F800000EB0430006B29890843514901EB0431DF
:104F900008634FF00009CA46687920B1012807D09C
:104FA00002280DD108E04FF001094FF0000A07E098
:104FB0004FF00109CA4603E04FF00009CA4600BF9E
:104FC00000BF434800EB0430C06A20F001004049B4
:104FD00001EB0431C8623E4800EB0430C06A69F35B
:104FE00041003B4901EB0431C862394800EB043011
:104FF000C06A6AF38200364901EB0431C862A979BC
:10500000334800EB0430C06A61F3C300304901EB60
:105010000431C8622E4800EB0430C06A20F0100052
:1050200010302B4901EB0431C8622979284800EB84
:105030000430C06A61F34610254901EB0431C862AF
:10504000234800EB0430C06A20F08000204901EBC7
:105050000431C862A97A1E4800EB0430406B61F34A
:1050600002001B4901EB04314863E97A184800EB60
:105070000430406B61F3C500154901EB043148630E
:10508000134800EB0430006B20F00100401C104975
:1050900001EB043108630E4800EB0430006B20F490
:1050A000007000F500700A4901EB043108630848FC
:1050B00000EB0430006B20F4807000F58070044930
:1050C00001EB043108630020EEE60000069EEA00D2
:1050D00000C0014060E316002DE9F04704460E468B
:1050E000174600210020A446DCF824501DE0DFF81C
:1050F000488008EB0538D8F81880C8F30018B8F1D4
:10510000000F00D013E0DFF8309009EB0538D8F835
:10511000002002F47068B8F1000F02D04FF0006078
:1051200005E08846491C06F80820B942DFD300BFD5
:1051300003B11960BDE8F08700C001402DE9F041DE
:1051400004460D461646002127467A6A10E00C48B0
:1051500000EB02308069C0F3401000B10AE008465D
:10516000491C285CDFF8188008EB023CCCF80000F2
:10517000B142ECD300BF03B119600020BDE8F0815B
:1051800000C0014010B50246042A01D3052010BD1D
:1051900009B90620FBE7086868B108680068C0F331
:1051A000006040B10868006820F07F403E4B9842A4
:1051B00001D10720EBE7C2EBC20000EB02103B4B32
:1051C00053F8300020F0807000F18070C2EBC20311
:1051D00003EB0213354C44F83300334BC2EBC200EF
:1051E00000EB021054F8300063F31700C2EBC20367
:1051F00003EB021344F83300C2EBC20000EB0210D1
:10520000234603EBC00042620020C2EBC20303EB63
:10521000021304EBC3031871C2EBC20303EB0213C6
:1052200004EBC3039862C2EBC20303EB021304EB6B
:10523000C30383F82C00C2EBC20303EB021304EB9D
:10524000C30383F85400C2EBC20303EB021304EB65
:10525000C30383F87C00C2EBC20303EB021304EB2D
:10526000C30383F89800C2EBC20303EB021304EB01
:10527000C3039867C2EBC20303EB021304EBC3033F
:1052800018650120C2EBC20303EB021304EBC30356
:1052900083F8B400C2EBC20000EB0210234603EB1C
:1052A000C0000860002072E7069EEA00583B161016
:1052B00030B5024613465C6A4AB11068C0F300601C
:1052C00028B1106820F07F40054DA84201D002208F
:1052D00030BD044800EB043041640020F8E70000D2
:1052E000069EEA0000C001402DE9F04706468846C8
:1052F000174635466C6A04F1090000F0FF094EB10B
:105300003068C0F3006028B1306820F07F403C492D
:10531000884202D00220BDE8F087B8F1000F06D025
:10532000B8F1010F32D0B8F1020F64D12FE01FB1F4
:10533000287908B90720EEE74846FFF7E5FC27B3D0
:10534000304901EB0431A86808622E4901EB0431B1
:10535000E86848622B4901EB0431286988622949D1
:1053600001EB04316869C862264901EB0431A86980
:105370000863244901EB0431E8694863214901EBE2
:105380000431286A88630020287136E000BF27B303
:105390001C4800EB0430016AA9601A4800EB043095
:1053A000416AE960174800EB0430816A29611548B9
:1053B00000EB0430C16A6961124800EB0430016BF4
:1053C000A961104800EB0430416BE9610D4800EB26
:1053D0000430816B2962012028714FF0FF3128468B
:1053E000FFF766FF0020074901EB043108634846D8
:1053F000FFF742FC01E006208DE700BF00208AE7AE
:10540000069EEA0000C0014070B505460C462078B3
:1054100030B1012809D002280CD0032814D10EE0A5
:105420002146284600F0DFFC70BD2146284600F0EA
:10543000AFFCF9E72146284602F02CF8F4E72146B4
:10544000284601F0A7FFEFE70120EDE708B50022AD
:10545000694607480068FFF757F905480099006852
:10546000FEF762FF024800990068FEF7C3FF08BD1F
:105470006836161010B504464FF47A7104FB01F03B
:10548000FDF792FA10BD10B504462046FDF78CFAE0
:1054900010BD000092B0054618216846FBF7DEF803
:1054A000002410947048006810901098C0B28DF8D5
:1054B00044001098000A8DF8450010984FF6FF71CF
:1054C00001EA1040ADF846006748103000680F90C0
:1054D0009DF8450000F0020020B129460620FAF7A9
:1054E0003EFF01E04FF0FF300E9029460020FAF712
:1054F00036FF069029460120FAF731FF079029462A
:105500000220FAF72CFF089029460320FAF727FF1C
:10551000099029460420FAF722FF0A90294605201F
:10552000FAF71DFF0B9029460620FAF718FF0C909A
:1055300029460720FAF713FF0D906846FDF7A0FAF9
:105540004AA000F017FA06994FA000F013FA079945
:1055500052A000F00FFA089955A000F00BFA099933
:1055600058A000F007FA0A995BA000F003FA0B9923
:105570005EA000F0FFF90C9961A000F0FBF90D9915
:1055800064A000F0F7F968A000F0F4F90E996CA09F
:1055900000F0F0F90F9971A000F0ECF99DF84410BB
:1055A00078A000F0E7F99DF8451082A000F0E2F93C
:1055B000BDF846108AA000F0DDF9802437E09DF8A0
:1055C0004500204010281BD008DC012828D00228E4
:1055D00022D004281CD0082826D115E020280BD082
:1055E000402805D080281FD188A000F0C3F91CE016
:1055F0008EA000F0BFF918E094A000F0BBF914E011
:1056000099A000F0B7F910E09EA000F0B3F90CE00B
:10561000A4A000F0AFF908E0AAA000F0ABF904E004
:10562000B0A000F0A7F900E000BF00BF6408002CA4
:10563000C5D1B3A000F09EF99DF8000018B1B5A047
:10564000019900F097F99DF8080018B1B9A00399E5
:1056500000F090F99DF8100018B1BEA0059900F077
:1056600089F900BF00BFFEE728ED00E048617264E1
:10567000204661756C7420737461636B656420648B
:105680006174613A0A00000020202020523020205E
:105690003D203078253038580A0000002020202096
:1056A000523120203D203078253038580A00000043
:1056B00020202020523220203D20307825303858BC
:1056C0000A00000020202020523320203D20307886
:1056D000253038580A000000202020205231322086
:1056E0003D203078253038580A0000002020202046
:1056F0004C5220203D203078253038580A000000D8
:1057000020202020504320203D203078253038585C
:105710000A00000020202020505352203D203078E5
:10572000253038580A0000004F74686572204861BF
:105730007264204661756C7420646174613A0A0079
:10574000202020204661756C74206164647265734A
:1057500073203D203078253038580A002020202042
:10576000424641522028427573204661756C742070
:10577000416464722052656729203D2030782530CD
:1057800038580A00202020204D4D535220284D65C6
:105790006D204D676D74204661756C742053746183
:1057A0007475732052656729203D2030782530328A
:1057B000580A0000202020204246535220284275DB
:1057C00073204661756C7420537461747573205234
:1057D000656729203D203078253032580A000000C6
:1057E000202020205546535220285573616765209C
:1057F0004661756C742053746174757320526567CB
:1058000029203D203078253034580A0020202020DF
:10581000202020204246535220626974373A2042A9
:1058200046415256414C49440A00000020202020A5
:10583000202020204246535220626974363A20527A
:10584000455345525645440A0000000020202020C0
:10585000202020204246535220626974353A204C61
:1058600053504552520A00002020202020202020A2
:105870004246535220626974343A2053544B455285
:10588000520A00002020202020202020424653528F
:1058900020626974333A20554E53544B4552520A94
:1058A00000000000202020202020202042465352CB
:1058B00020626974323A20494D505245434953455C
:1058C00052520A00202020202020202042465352FD
:1058D00020626974313A205052454349534545523C
:1058E000520A00002020202020202020424653522F
:1058F00020626974303A20494255534552520A0099
:105900004D4355204661756C7420646174613A0A98
:105910000000000020202049434F44452046617587
:105920006C7420416464726573733A20307825305A
:1059300038580A0020202044434F444520466175D2
:105940006C7420416464726573733A20307825303A
:1059500038580A00202020535953204661756C7432
:1059600020416464726573733A203078253038586A
:105970000A0000000FB438B50B48006818B90020C1
:1059800038BC5DF814FB05A800900848009A0499FB
:1059900000F024F8044600200090044802490968F9
:1059A00088472046ECE700008C3116105837161057
:1059B00001490860704700008C31161010B502A034
:1059C000FFF7D8FF10BD00000A0A0A0A0A0A0A0AED
:1059D0000A0A0A0A0A0A0A0A0A0A00002DE9F74F07
:1059E0002DED028B8AB004460D464FF000090020D1
:1059F0000090B9E1062006902878252812D06CB1D5
:105A000028780A2807D1DE48007820B10D2004F854
:105A1000010B09F10109287804F8010B6D1C09F14B
:105A20000109A1E16D1C0020029003902020049048
:105A30002878302801D104906D1C07A9284600F071
:105A4000DFFB0646079805442878732802D0002E0D
:105A500000DA764228782E2807D16D1C07A928463F
:105A600000F0CEFB06900798054428786C2806D1F4
:105A70006D1C28786C2802D16D1C012002902878BA
:105A800066286FD008DC46286DD058285CD0632883
:105A90000BD0642868D1C3E069287DD0732811D069
:105AA00075287AD07828F5D14BE00E9810F8041BB1
:105AB0000E90C8B2059014B1059804F8010B09F1D5
:105AC00001094EE10E9850F804BB0E90584602F0C2
:105AD0000DFE0090002E11DD0098B0420ED200980D
