:020000040001F9
:10800000081B0010018201001F820100398301005A
:10801000218201002382010025820100000000006E
:1080200000000000000000000000000027820100A6
:1080300029820100000000002B8201002D82010036
:108040002F8201002F8201002F8201002F82010068
:108050002F8201002F8201002F8201002F82010058
:108060002F8201002F8201002F8201002F82010048
:108070002F8201002F8201002F8201002F82010038
:108080002F8201002F8201002F8201002F82010028
:108090002F8201002F8201002F8201002F82010018
:1080A0002F8201002F8201002F8201002F82010008
:1080B0002F8201002F8201002F8201002F820100F8
:1080C0002F8201002F8201002F8201002F820100E8
:1080D0002F8201002F8201002F8201002F820100D8
:1080E0002F8201002F8201002F8201002F820100C8
:1080F0002F8201002F8201002F8201002F820100B8
:108100002F8201002F8201002F8201002F820100A7
:108110002F8201002F8201002F8201002F82010097
:108120002F8201002F8201002F8201002F82010087
:108130002F8201002F8201002F8201002F82010077
:108140002F8201002F8201002F8201002F82010067
:108150002F8201002F8201002F8201002F82010057
:108160002F8201002F8201002F8201002F82010047
:108170002F8201002F8201002F8201002F82010037
:108180002F8201002F8201002F8201002F82010027
:1081900000000000000000000000000000000000DF
:1081A00000000000000000000000000000000000CF
:1081B00000000000000000000000000000000000BF
:1081C00000000000000000000000000000000000AF
:1081D000000000000000000000000000000000009F
:1081E000000000000000000000000000000000008F
:1081F000000000000000000000000000000000007F
:108200004EF68850CEF20000016841F47001016022
:10821000BFF34F8FBFF36F8F05480047FEE7FEE7C0
:10822000FEE7FEE7FEE7FEE7FEE7FEE7FEE7FEE726
:108230003582010000F002F800F06EF80AA090E824
:10824000000C82448344AAF10107DA4501D100F011
:1082500063F8AFF2090EBAE80F0013F0010F18BF70
:10826000FB1A43F001031847CC260000FC2600004F
:1082700010F8013B0A4413F0030408BF10F8014B47
:108280001D1108BF10F8015B641E05D010F8016BCA
:10829000641E01F8016BF9D1002D15D010F8014BC7
:1082A00003F00C030C2BA1EB04040ABF10F8013BF4
:1082B000A4EB8314A4EB032405F1010314F8016B70
:1082C0005B1E01F8016BF9D5914238BF10F8013BF4
:1082D000D1D37047103A24BF78C878C1FAD8520772
:1082E00024BF30C830C144BF04680C607047000030
:1082F0000023002400250026103A28BF78C1FBD8AF
:10830000520728BF30C148BF0B6070471FB502F04D
:1083100038F91FBD10B510BD00F094F81146FFF7F5
:10832000F5FF01F06EFD00F0B2F803B4FFF7F2FFC5
:1083300003BC00F0B9F8000001B51EF0040F0ABF3D
:10834000EFF30880EFF3098010F1080000F0F4FD6E
:1083500001BD80004018006870470000EFF31080F6
:1083600062B67047EFF3108072B6704780F31088E2
:108370007047000002480349014A034B7047000060
:10838000080B0010081B0010080B001010B5203A55
:10839000C0F00B80B1E81850203AA0E81850B1E8BE
:1083A0001850A0E81850BFF4F5AF5FEA027C24BF74
:1083B000B1E81850A0E8185044BF18C918C0BDE86B
:1083C00010405FEA827C24BF51F8043B40F8043B34
:1083D00008BF7047D20728BF31F8023B48BF11F8E9
:1083E000012B28BF20F8023B48BF00F8012B704743
:1083F0004FF0000200B5134694469646203922BF3E
:10840000A0E80C50A0E80C50B1F12001BFF4F7AF88
:10841000090728BFA0E80C5048BF0CC05DF804EB6A
:10842000890028BF40F8042B08BF704748BF20F8D8
:10843000022B11F0804F18BF00F8012B70477047D6
:1084400070477047754600F02BF8AE460500694648
:10845000534620F00700854618B020B5FFF78AFF85
:10846000BDE820404FF000064FF000074FF0000835
:108470004FF0000B21F00701AC46ACE8C009ACE8B6
:10848000C009ACE8C009ACE8C0098D46704710B51A
:108490000446AFF300802046BDE81040FFF745BF1B
:1084A00000487047A80A001001491820ABBEFEE73B
:1084B00026000200704700001CB51649002000F09D
:1084C000D7FBE0B9002211461248006800F082FC98
:1084D000A8B911490F48006800F04AFA78B90F4866
:1084E000006800903C20009900F012F938B90C485F
:1084F000006801902F20019900F00AF910B14FF0A7
:10850000FF301CBD022007490870074800F0A2FF99
:108510000020F6E754000010B0A501006C00001028
:1085200070000010500000102D85010030B589B09A
:10853000054600240020089000E0641C285D002807
:10854000FBD1202209496846FFF720FF01950294DC
:1085500008A8039069460648006800F0CBFC08981C
:10856000A04201D000BFFEE709B030BDBCA50100AC
:108570005400001030B502460AB1222901D306206A
:1085800030BD044800EB011539CD82E839000020E8
:10859000F6E700003CA6010038B50446FFF7E2FE0E
:1085A00000904FF09040006820F440704FF09041F0
:1085B00008600098FFF7DAFEA078022101EA400087
:1085C000084908432178F02202EA01110843617842
:1085D0004FF4407202EA012108434FF090410860D5
:1085E000002038BD000410004FF09040006820F0DB
:1085F0000100401C4FF0904108600846806820F060
:108600000100401C886000207047000070B50646DD
:10861000002000EB461409480068C0F3C10002289E
:1086200002D16400152500E00F25AC4204D9641B7B
:108630000348416A2046884770BD00000010024090
:10864000ECA801002DE9F04107460C4615461E46F0
:108650000FE020682840B04202D10020BDE8F08140
:10866000381EA7F1010703D00120FFF7CFFF00E07C
:1086700000E0EEE700BF0420F0E72DE9F0410746F7
:108680000C4615461E46DDF8188018E0B8F1000FBC
:1086900006D020682840B04208D10020BDE8F08113
:1086A00020682840B04201D00020F7E7381EA7F12B
:1086B000010703D00120FFF7A9FF00E000E0E5E794
:1086C00000BF0420EAE70000014609B90620704710
:1086D0000E48026802F001000870C2F34000087200
:1086E000C2F3800008744FF09040D0F88400C86056
:1086F000064B0C3B48681B6818434860034B1B1F24
:1087000048691B68184348610020E0E78C00004876
:1087100013B502461049802A01D305201CBD0198DB
:10872000C0F3812001280BDD50090C4B53F82000C9
:1087300002F01F040123A340184008B90720EDE709
:108740007320074B1860019841F822000020024B6B
:10875000C3F8000200BFE1E70000014014A60100D9
:108760000002014030B585B00546294601A8FFF753
:1087700001FF044614B1204605B030BD01980068E1
:108780000299084008B90020F6E7142D11D11748C6
:108790000068C0280DD101F0A1F904460CB12046B3
:1087A000EAE71348006820B111480168002001F091
:1087B00025F9FFF7D7FD00900198006802998843DA
:1087C000019908600098FFF7D1FD00200090049BFC
:1087D0001A4605200399FFF750FF04460CB92046BE
:1087E000CAE7284601F071FCC6E70000E00F0C4024
:1087F000A803001030B585B00446214601A8FFF754
:10880000B9FE054615B1284605B030BD019800688F
:108810000299084008B10020F6E7142C07D11F4840
:10882000006820B11D480168012001F0E7F8FFF75A
:1088300099FD009001980068029908430199086029
:108840000098FFF793FD01200090049B1A46052035
:108850000399FFF712FF05465DB1142C07D10F48AD
:10886000006820B10D480168002001F0C7F82846D3
:10887000CAE7142C09D101231A4609496420FFF7DD
:10888000E1FE05460DB12846BEE70398006804994D
:10889000084008B10020B7E70120B5E7A8030010A1
:1088A000101F0C402DE9F84304460D461746206979
:1088B00000FB07F64FF00009A846FFF753FD0090B4
:1088C000D4E90210401AB04218D300200EE025B1BE
:1088D00018F8001023686269D1542168491CE268C5
:1088E000B1FBF2F302FB13112160401CB042EED346
:1088F000A0683044A0604FF0010901E04FF000098A
:108900000098FFF733FD4846BDE8F8832DE9F843AA
:1089100004460D461746206900FB07F64FF0000994
:10892000A846FFF71FFD0090A068B04218D30020B2
:108930000EE025B162686169895C08F80010616821
:10894000491CE268B1FBF2F302FB13116160401CA9
:10895000B042EED3A068801BA0604FF0010901E097
:108960004FF000090098FFF701FD4846BDE8F88385
:108970002DE9F04706460D4637467C6A4EB1306811
:10898000C0F3006028B1306820F07F408A498842F7
:1089900002D00220BDE8F0870020884901EB0431B5
:1089A0000863864800EB0430006B20F008000830B4
:1089B000824901EB043108638149286888420BD958
:1089C0007E4800EB0430006B20F0700050307B4993
:1089D00001EB043108630AE0784800EB0430006BD7
:1089E00020F070001030754901EB043108637348C2
:1089F00000EB0430006B20F00100704901EB043102
:108A000008636E4800EB0430006B20F400706B4983
:108A100001EB04310863694800EB0430006B20F47B
:108A20008070664901EB0431086307F12802204693
:108A3000296800F08BFF8046B8F1000F01D0404656
:108A4000A8E75E4800EB0430006B20F480405B49EF
:108A500001EB04310863594800EB0430006B20F44B
:108A60000040564901EB04310863544800EB0430E0
:108A7000006B29890843514901EB043108634FF029
:108A80000009CA46687920B1012807D002280DD113
:108A900008E04FF001094FF0000A07E04FF001092C
:108AA000CA4603E04FF00009CA4600BF00BF434872
:108AB00000EB0430C06A20F00100404901EB0431B2
:108AC000C8623E4800EB0430C06A69F341003B498C
:108AD00001EB0431C862394800EB0430C06A6AF324
:108AE0008200364901EB0431C862A979334800EBB2
:108AF0000430C06A61F3C300304901EB0431C8623D
:108B00002E4800EB0430C06A20F0100010302B49D2
:108B100001EB0431C8622979284800EB0430C06AAF
:108B200061F34610254901EB0431C862234800EB8C
:108B30000430C06A20F08000204901EB0431C86293
:108B4000A97A1E4800EB0430406B61F302001B4918
:108B500001EB04314863E97A184800EB0430406BBC
:108B600061F3C500154901EB04314863134800EB7C
:108B70000430006B20F00100401C104901EB04316F
:108B800008630E4800EB0430006B20F4007000F521
:108B900000700A4901EB04310863084800EB043017
:108BA000006B20F4807000F58070044901EB043103
:108BB00008630020EEE60000069EEA0000C00140C7
:108BC00060E316002DE9F04704460E4617460021E3
:108BD0000020A446DCF824501DE0DFF8488008EBB4
:108BE0000538D8F81880C8F30018B8F1000F00D085
:108BF00013E0DFF8309009EB0538D8F8002002F4D4
:108C00007068B8F1000F02D04FF0006005E08846B0
:108C1000491C06F80820B942DFD300BF03B1196030
:108C2000BDE8F08700C001402DE9F04104460D4643
:108C30001646002127467A6A10E00C4800EB023005
:108C40008069C0F3401000B10AE00846491C285C66
:108C5000DFF8188008EB023CCCF80000B142ECD3FE
:108C600000BF03B119600020BDE8F08100C00140E1
:108C700010B50246042A01D3052010BD09B906200B
:108C8000FBE7086868B108680068C0F3006040B19D
:108C90000868006820F07F403E4B984201D10720D1
:108CA000EBE7C2EBC20000EB02103B4B53F8300085
:108CB00020F0807000F18070C2EBC20303EB02135E
:108CC000354C44F83300334BC2EBC20000EB0210CA
:108CD00054F8300063F31700C2EBC20303EB021336
:108CE00044F83300C2EBC20000EB0210234603EB52
:108CF000C00042620020C2EBC20303EB021304EB8C
:108D0000C3031871C2EBC20303EB021304EBC303EA
:108D10009862C2EBC20303EB021304EBC30383F8B4
:108D20002C00C2EBC20303EB021304EBC30383F872
:108D30005400C2EBC20303EB021304EBC30383F83A
:108D40007C00C2EBC20303EB021304EBC30383F802
:108D50009800C2EBC20303EB021304EBC303986752
:108D6000C2EBC20303EB021304EBC303186501203B
:108D7000C2EBC20303EB021304EBC30383F8B4009A
:108D8000C2EBC20000EB0210234603EBC0000860F8
:108D9000002072E7069EEA00C807001030B50246C0
:108DA00013465C6A4AB11068C0F3006028B11068CD
:108DB00020F07F40054DA84201D0022030BD04487C
:108DC00000EB043041640020F8E70000069EEA0052
:108DD00000C001402DE9F047064688461746354653
:108DE0006C6A04F1090000F0FF094EB13068C0F36D
:108DF000006028B1306820F07F403C49884202D0B2
:108E00000220BDE8F087B8F1000F06D0B8F1010FDD
:108E100032D0B8F1020F64D12FE01FB1287908B920
:108E20000720EEE74846FFF7E5FC27B3304901EBA2
:108E30000431A86808622E4901EB0431E8684862F1
:108E40002B4901EB043128698862294901EB04317F
:108E50006869C862264901EB0431A869086324499E
:108E600001EB0431E8694863214901EB0431286AC8
:108E700088630020287136E000BF27B31C4800EB50
:108E80000430016AA9601A4800EB0430416AE960C5
:108E9000174800EB0430816A2961154800EB043063
:108EA000C16A6961124800EB0430016BA961104886
:108EB00000EB0430416BE9610D4800EB0430816B3D
:108EC0002962012028714FF0FF312846FFF766FF25
:108ED0000020074901EB043108634846FFF742FCD4
:108EE00001E006208DE700BF00208AE7069EEA0029
:108EF00000C0014070B505460C46207830B101280D
:108F000009D002280CD0032814D10EE021462846AF
:108F100000F0BBFC70BD2146284600F08BFCF9E751
:108F20002146284601F03CF8F4E72146284600F0A7
:108F3000B7FFEFE70120EDE792B00546182168463C
:108F4000FFF756FA002410947048006810901098AB
:108F5000C0B28DF844001098000A8DF845001098B2
:108F60004FF6FF7101EA1040ADF846006748103037
:108F700000680F909DF8450000F0020020B12946DE
:108F80000620FFF7E6F901E04FF0FF300E9029468A
:108F90000020FFF7DEF9069029460120FFF7D9F9F6
:108FA000079029460220FFF7D4F9089029460320AC
:108FB000FFF7CFF9099029460420FFF7CAF90A9074
:108FC00029460520FFF7C5F90B9029460620FFF733
:108FD000C0F90C9029460720FFF7BBF90D906846B1
:108FE000FFF772FB4AA000F017FA06994FA000F0B5
:108FF00013FA079952A000F00FFA089955A000F053
:109000000BFA099958A000F007FA0A995BA000F042
:1090100003FA0B995EA000F0FFF90C9961A000F033
:10902000FBF90D9964A000F0F7F968A000F0F4F9DD
:109030000E996CA000F0F0F90F9971A000F0ECF916
:109040009DF8441078A000F0E7F99DF8451082A043
:1090500000F0E2F9BDF846108AA000F0DDF98024A6
:1090600037E09DF84500204010281BD008DC01287F
:1090700028D0022822D004281CD0082826D115E0A8
:1090800020280BD0402805D080281FD188A000F0D0
:10909000C3F91CE08EA000F0BFF918E094A000F026
:1090A000BBF914E099A000F0B7F910E09EA000F021
:1090B000B3F90CE0A4A000F0AFF908E0AAA000F01A
:1090C000ABF904E0B0A000F0A7F900E000BF00BFDA
:1090D0006408002CC5D1B3A000F09EF99DF80000F3
:1090E00018B1B5A0019900F097F99DF8080018B1E2
:1090F000B9A0039900F090F99DF8100018B1BEA036
:10910000059900F089F900BF00BFFEE728ED00E0F7
:1091100048617264204661756C7420737461636B7E
:10912000656420646174613A0A00000020202020F8
:10913000523020203D203078253038580A00000079
:1091400020202020523120203D20307825303858F2
:109150000A00000020202020523220203D203078BC
:10916000253038580A0000002020202052332020CB
:109170003D203078253038580A000000202020207B
:10918000523132203D203078253038580A00000016
:10919000202020204C5220203D2030782530385887
:1091A0000A00000020202020504320203D2030785D
:1091B000253038580A00000020202020505352202B
:1091C0003D203078253038580A0000004F7468651B
:1091D000722048617264204661756C742064617409
:1091E000613A0A00202020204661756C7420616479
:1091F0006472657373203D203078253038580A003A
:10920000202020204246415220284275732046618A
:10921000756C7420416464722052656729203D207A
:109220003078253038580A00202020204D4D5352E8
:1092300020284D656D204D676D74204661756C74F6
:10924000205374617475732052656729203D203066
:1092500078253032580A0000202020204246535200
:109260002028427573204661756C742053746174B4
:1092700075732052656729203D203078253032589B
:109280000A00000020202020554653522028557304
:10929000616765204661756C7420537461747573E1
:1092A0002052656729203D203078253034580A0047
:1092B0002020202020202020424653522062697422
:1092C000373A204246415256414C49440A00000078
:1092D0002020202020202020424653522062697402
:1092E000363A2052455345525645440A0000000084
:1092F00020202020202020204246535220626974E2
:10930000353A204C53504552520A0000202020206C
:10931000202020204246535220626974343A205360
:10932000544B4552520A00002020202020202020AB
:109330004246535220626974333A20554E53544B7F
:109340004552520A0000000020202020202020202A
:109350004246535220626974323A20494D50524578
:109360004349534552520A0020202020202020202B
:109370004246535220626974313A20505245434963
:1093800053454552520A0000202020202020202052
:109390004246535220626974303A2049425553453F
:1093A00052520A004D4355204661756C7420646129
:1093B00074613A0A0000000020202049434F4445D0
:1093C000204661756C7420416464726573733A2041
:1093D0003078253038580A0020202044434F444537
:1093E000204661756C7420416464726573733A2021
:1093F0003078253038580A00202020535953204611
:1094000061756C7420416464726573733A203078BE
:10941000253038580A0000000FB438B50B480068F2
:1094200018B9002038BC5DF814FB05A80090084866
:10943000009A049900F024F80446002000900448A3
:109440000249096888472046ECE700001000001038
:10945000C8030010014908607047000010000010A8
:1094600010B502A0FFF7D8FF10BD00000A0A0A0AD3
:109470000A0A0A0A0A0A0A0A0A0A0A0A0A0A000060
:109480002DE9F74F2DED028B8AB004460D464FF0C3
:10949000000900200090B9E10620069028782528D0
:1094A00012D06CB128780A2807D1DE48007820B1A4
:1094B0000D2004F8010B09F10109287804F8010BCB
:1094C0006D1C09F10109A1E16D1C002002900390BF
:1094D000202004902878302801D104906D1C07A921
:1094E000284600F01FFB0646079805442878732895
:1094F00002D0002E00DA764228782E2807D16D1C83
:1095000007A9284600F00EFB069007980544287826
:109510006C2806D16D1C28786C2802D16D1C0120A6
:109520000290287866286FD008DC46286DD058282D
:109530005CD063280BD0642868D1C3E069287DD053
:10954000732811D075287AD07828F5D14BE00E9881
:1095500010F8041B0E90C8B2059014B1059804F8D9
:10956000010B09F101094EE10E9850F804BB0E9071
:10957000584600F04FFE0090002E11DD0098B042DA
:109580000ED20098361A32462046049900F08CFD1F
:1095900006460CB1304600E000200444B1440026E9
:1095A00008E01CB19BF8000004F8010B0BF1010B63
:1095B00009F101099BF800000028F2D196B176422A
:1095C0000098B0420ED20098361A324620460499CE
:1095D00000F06AFD06460CB1304600E0002004446D
:1095E000B14400260FE10120039000BF029870B142
:1095F0000E98C01D20F0070001460E9000684968D3
:109600000E9A08320E9208E0C3E0C3E0F4E00E9830
:1096100000680E99091D0E910021074688469EB1EB
:109620003846414600F0F3FB361A3246204604998C
:1096300000F03AFD06461CB1304602E043E00EE081
:1096400000200444B1440026224638464146039B8C
:1096500000F06EFE824604B15444D144D3E0029837
:1096600058B10E98C01D20F0070001460E9000680A
:1096700049680E9A08320E9205E00E9800680E991D
:10968000091D0E910021074688468EB13846414695
:1096900000F0E9FB361A32462046049900F004FD3A
:1096A00006460CB1304600E000200444B1440026D8
:1096B00022463846414600F080FE824604B15444BA
:1096C000D144A0E000BF029858B10E98C01D20F010
:1096D000070001460E90006849680E9A08320E9203
:1096E00005E00E9800680E99091D0E91C117CDE98D
:1096F00008010023DDE90801C01A994108DA0022B7
:10970000DDE908104F4262EB00080120019003E000
:10971000DDE90878002001904EB33846414600F05C
:1097200090FB361A019848B1761E0498302805D16E
:1097300014B12D2004F8010B09F10109324620462D
:10974000049900F0B1FC06460CB1304600E0002060
:109750000444B1440026019888B1049820280ED111
:1097600014B12D2004F8010B09F1010907E001985B
:1097700028B114B12D2004F8010B09F1010922468A
:109780003846414600F019FE824604B15444D144A3
:1097900039E000BF7CB30E98C01D20F007000E908A
:1097A000B0EC021BB0EE410AF0EE610A0E9051ECF3
:1097B000100B00F067FE08EE100A1420206020460F
:1097C000B0EE480A069900F035FA8246BAF1000F69
:1097D0000EDA0AF1010109B9134805E00AF10201A4
:1097E00009B9124800E0124820604FF0030A00BF98
:1097F000D144544400BF06E014B1287804F8010BAA
:1098000009F1010900BF00BF6D1C00BF28780028C6
:109810007FF442AE04B1207048460AB0BDEC028B22
:10982000BDE8FE8F14000010302E3000232E2300E0
:109830003F2E3F002DE9F04105460C464FF0000851
:109840002F462146284600F02BFB064616B130462F
:10985000BDE8F08113E0284600F048FB4FF47A7031
:10986000FEF7D4FE2069401C48B108F101082069C8
:10987000404504D1002087F82C000420E8E797F841
:109880002C000028E7D100BFE2E72DE9F0410546B2
:109890000C464FF000082F462146284600F080FB7A
:1098A000064616B13046BDE8F08113E0284600F0C8
:1098B0009DFB4FF47A70FEF7A9FE2069401C48B169
:1098C00008F101082069404504D1002087F85400C0
:1098D0000420E8E797F854000028E7D100BFE2E74A
:1098E000044672B6656810480560206880F30888F1
:1098F00000BF206880F3098800BF002080F3118832
:1099000000BF00BF80F3138800BF00BF80F314883E
:1099100000BFBFF36F8F294604A0FFF77DFD02480B
:109920000068804700BFFEE70C0000100D0A5B6274
:109930006F6F746C6F616465725D20626F6F74200D
:1099400066726F6D20307825780D0A002DE9504F32
:1099500003468A469046224800EB0330006BC0F372
:10996000021006280ED2DFE800F00D0507090B03F0
:109970001C490DE01C490BE01C4909E01C4907E0AB
:109980001C4905E00020C8F800001B48BDE8508FC6
:1099900000BF4FEA0A19B1FBF9FC8801B0FBF9F4EA
:1099A0004FEA8C10261A3246BCF1000F05D1002078
:1099B000C8F800001048401CE8E7094800EB0330F5
:1099C000C0F824C0064800EB033082624FEA0C1056
:1099D00000EB9200B1FBF0F0C8F800000020D5E7E2
:1099E00000C00140006CDC0200366E01001BB700B5
:1099F000808D5B00C0C62D0002000008F8B504464B
:109A00000D4614B13048007818B91CB92E480078BA
:109A100000B9F8BDFEF7A6FC00902B4804701CB1FD
:109A20002A480068284402E028480068401B27496B
:109A3000086008460668002E01DA002602E03F2E84
:109A400000D93F261CB122480068284402E0204883
:109A50000068401B1E49086008460768002F01DAAD
:109A6000002702E03F2F00D93F2794B11948006832
:109A700066F319501849C1F86C031420FEF7C6FDAF
:109A80001548D0F8880067F305001349C1F888002D
:109A900012E011488830006867F305000E49C1F8EC
:109AA00088001420FEF7B2FD0B48D0F86C0366F373
:109AB00019500949C1F86C030098FEF757FC1420AF
:109AC000FEF7A4FD00BFA4E7B4030010AC03001030
:109AD000B00300106C0302400000024010B50123E7
:109AE0001A460E496420FEF7ADFD04460CB120462F
:109AF00010BD01231A460A496420FEF7A3FD04465F
:109B00000CB12046F4E70548001D006820F0010074
:109B1000401C0249091D08600020E9E77C0A0C404E
:109B2000101F0C4030B50246002500230024107899
:109B30002D2802D10125521C641C07E0641C03EB94
:109B400083004300107830380344521C10783028CA
:109B500002DB10783928F1DD01B10C600DB15842FB
:109B600030BD1846FCE72DE9F04F04460D460020B5
:109B700085EA00014040014344D05FEA550A4FEABC
:109B800034014FEA940B4BEA85700A184AEB9503AF
:109B90004FEA121040EA037A1AEB020243EB131366
:109BA0004FEA122040EA036A1AEB020243EB132346
:109BB0004FEA124040EA034A1AEB020243EB134316
:109BC0009A1843F10003D00840EA4372DB080A21E7
:109BD0004FF0000AA2FB010B03FB01B102FB0A11CB
:109BE000261A65EB0107062116EB010A47F1000171
:109BF0004FEA1A1040EA017A1AEB020043EB111106
:109C0000BDE8F08FA0464FEA580000EB980C0CEB33
:109C10001C1C0CEB1C2C0CEB1C4C4FEADC0C0CEB56
:109C20008C00A8EB400909F106000CEB1010002194
:109C3000E6E700002DE9F34F2DED020B2DED028B31
:109C400081B0B0EE408A0446D4F800B0BBF1040FF6
:109C500007DA6FF0020001B0BDEC028B04B0BDE882
:109C6000F08FB5EEC08AF1EE10FA03D14E482060B5
:109C70000320F0E7A2468DED008A0098C0F3C7509C
:109C8000A0F17F05009820F07F4040F400094FF0DC
:109C9000000800271F2D01DBB81EDCE715F1170FA8
:109CA00002DA4FF0FF30D6E7172D04DBA5F11700DD
:109CB00009FA00F711E0002D09DBC5F1170049FA98
:109CC00000F7681C09FA00F020F07F4805E029F051
:109CD0007F40691C494240FA01F80098002802DAE6
:109CE0002D2004F8010B1FB9302004F8010B14E0FB
:109CF000002F05DD22463846F91700F05EFB07E02D
:109D00002D2004F8010B22467842C11700F055FBC4
:109D100000E0641C20780028FBD12E2004F8010B01
:109D2000B8F1000F03D1302004F8010B36E0A4EBAA
:109D30000A02ABEB0202511E069A914201DD069A1D
:109D400000E00A46114600200BE008EB88024FEACB
:109D50004208302202EB286204F8012B28F07F48E9
:109D6000401C8842F1DB08EB880252000523B3EB6C
:109D7000226F12DC661E0DE032782E2A09D032786E
:109D8000392A02D13022327003E03278521C32700C
:109D900002E0761E5645EFD200BF00BF00202070C3
:109DA000A4EB0A0057E70000302E30002DE9F04107
:109DB00006460F464FF000080024002506B10FB9F3
:109DC000BDE8F081002518E034464FF0000811E0AE
:109DD000206850B16068A84204D0022D05D16068A7
:109DE000022802DD2168A06888470C3408F10100D0
:109DF00000F0FF08B845EBDB6D1C022DE4DD00BF71
:109E0000DEE700F037FA4FF48020FFF769FD30B548
:109E100002460B46002482EA04015C40214301D142
:109E2000012100E00021084604E0110941EA037223
:109E30001B09401C002482EA04015C402143F4D148
:109E400030BD70B504460D4600210846611A75EB19
:109E5000000003DA0022644262EB05052046294631
:109E600000F001F870BD70B504460D46002184EA8B
:109E700001006940084301D1012000E000200646AE
:109E800006E020462946FFF76EFE04460D46761C86
:109E9000002184EA010069400843F2D1304670BDD8
:109EA0002DE9F04104460D460026EF684CB12068CC
:109EB000C0F3006028B1206820F07F400A49884242
:109EC00002D00220BDE8F0810FB1002038602946A1
:109ED000204600F055F906460EB13046F2E720461E
:109EE00000F004F83046EDE7069EEA002DE9FC4755
:109EF00005462C4694F8980010B1284600F06AF9FF
:109F000094F82C00002848D0FEF72CFA0190276D19
:109F1000A06BA0EB0708606B00EB07090020009026
:109F200094F89800E0B1A42050F804A0D04501D2E4
:109F3000404600E050460090494604F19C00009ADB
:109F4000FEF7E4FC064656B9002084F82C00606C4D
:109F500028B10120D4E911219047BDE8FC8705E034
:109F60006B46424649462846FEF72CFE206D009976
:109F7000084420650198FEF7F9F9216DE06B016056
:109F8000216DA06B814208D1002084F82C00606C08
:109F900018B10020D4E91121904700BFDDE700008F
:109FA0002DE9F04104460E46F7684CB12068C0F335
:109FB000006028B1206820F07F400B49884202D021
:109FC0000220BDE8F0810FB1002038603146204604
:109FD00000F02CFA05460DB12846F2E7204600F0C5
:109FE00005F80020EDE70000069EEA002DE9FC4799
:109FF00005462C4694F8540000283AD0FEF7B2F9F2
:10A000000190A76F206EA0EB0708E06D00EB070939
:10A0100094F87C00F8B18C20015988200059A1EBFC
:10A02000000AD04501D2404600E050460090494623
:10A0300004F18000009AFEF735FC064656B9002070
:10A0400084F85400E06E28B10120D4E91B21904728
:10A05000BDE8FC8705E06B46424649462846FEF7C8
:10A06000E3FDA06F00990844A0670198FEF77EF910
:10A0700000BF94F87C0010B1284600F02FF9A16FC2
:10A08000606E0160A16F206E81420BD194F8540084
:10A0900040B1002084F85400E06E18B10020D4E9EB
:10A0A0001B21904700BFD3E730B503460020002AAC
:10A0B00000DC30BD03E00BB103F8011B401C141E93
:10A0C000A2F10102F7D100BFF3E77FB504462146B4
:10A0D0006846FEF74FFA054615B1284604B070BD34
:10A0E0000398B0F5F07F24D004DC1E2815D0FF289B
:10A0F00042D136E0B0F5F05F03D0B0F5E03F3BD1A0
:10A1000023E00098006800F4F05028B1009800683F
:10A110000199084000B900252FE00098006800F080
:10A120001E0028B1009800680199084000B9002578
:10A1300023E00098006800F4F07028B100980068EF
:10A140000199084000B9002517E00098006800F464
:10A15000E03028B1009800680199084000B9002556
:10A160000BE000980068C0B228B10098006801991F
:10A17000084000B9002500E000BF00BF2846ADE759
:10A18000F8B504460D460026FEF7ECF8009094F86A
:10A190002C00B0B9012084F82C00287884F8300015
:10A1A00069686163A968A163E968E1632969216459
:10A1B00069696164A969A164E969E16400202065B5
:10A1C00000E0034E0098FEF7D1F83046F8BD0000DD
:10A1D0000500000870B58AB004462646FEF7C2F8AE
:10A1E000009001AB202202A92046FEF7EBFC0546B9
:10A1F0003DB902A906F19C00019AFEF753FB00B994
:10A20000034D0098FEF7B2F828460AB070BD000072
:10A21000010000080146002001B9704700E0401C21
:10A2200011F8013B002BFAD100BFF6E710B5044648
:10A230000648FEF7B1F9FEF7D7F9FEF73DF9FFF74B
:10A240000FF903A0FFF7E8F8002010BD2CA90100CA
:10A250000D0A5B626F6F746C6F616465725D206183
:10A26000706F6C6C6F347020736F6320696E6974EB
:10A27000210D0A0070B50024002512481249401A29
:10A280000C21B0FBF1F0C5B20F4C29462046FFF778
:10A290008DFD0E480E49401A0C21B0FBF1F0C5B2FD
:10A2A0000B4C29462046FFF781FD0A480A49401A0F
:10A2B0000C21B0FBF1F0C5B2074C29462046FFF750
:10A2C00075FD70BD0C0000100000001000000000C3
:10A2D000000000000000000000000000FEB5044681
:10A2E00025466E6A0027FEF73DF8009010E0012237
:10A2F00002A905F18000FEF709FB40B101AB012284
:10A3000002A92046FEF790FC07460FB108E007E0DF
:10A31000064800EB06308069C0F340100028E6D004
:10A3200000BF0098FEF722F83846FEBD00C001408D
:10A330002DE9F04185B004460D461E4600218C46AD
:10A3400084EA0C0785EA0C0C57EA0C0705D14FF09C
:10A3500030080F46491C0DF8078016E00F272740EC
:10A36000FBB2092B05DD0EB1272700E007271F44AC
:10A37000FBB203F1300707F0FF080F46491C0DF848
:10A380000780270947EA05742D094FF0000C84EA7D
:10A390000C0785EA0C0C57EA0C07DFD108464AB1D6
:10A3A00003E01DF8017002F8017B0F1EA1F101010D
:10A3B000F7D1177005B0BDE8F0812DE9F04F87B0F7
:10A3C0000746884616464FF00009CB4600BF384680
:10A3D0004146FFF7C8FB04460D460A21A4FB0101D4
:10A3E000B7EB000A0AF13000C2B2484609F1010990
:10A3F0000DF800202746A8464FF0000287EA020029
:10A4000088EA02010843E2D1CB4656B103E01DF8C9
:10A41000090006F8010BB9F10000A9F10109F6D114
:10A420003070584607B0BDE8F08F0000F8B504461C
:10A430000D460026FDF796FF009094F85400C0B931
:10A44000012084F85400287884F858006968E16590
:10A45000A9682166E96861662969A1666969E1669A
:10A46000A9692167E96961670020A06784F8B400E1
:10A4700000E0034E0098FDF779FF3046F8BD00007C
:10A480000400000821F00042A2F16052B2F5801FE2
:10A4900001F0004328BFD2F17F6C0BD95FEA001CAA
:10A4A00043EAC20242EB507018BF704728BF20F049
:10A4B00001007047B2F5801FBCBF184670474FEAD5
:10A4C000410C1CF5001F02D2084600F05FB870B5C1
:10A4D00000F009F800000089FFF7F6BF4FF00040D8
:10A4E000A0F5800070470EF1020E2EF0030E5EF80C
:10A4F000046B364205D4012A43EB030515F5001F12
:10A5000012D8012841EB010C1CF5001F0CD80ED10C
:10A510004FEAD17C15F5001F0CEB4C0C0CF1020C32
:10A5200008BF4CEBD37C04E04FF0080C01E04FEA8D
:10A53000D37C0CEB4C0526FA05F606F00706B6F1BF
:10A54000040C06D20EEB860CBDE870404CF0010CFA
:10A550006047DFE80CF0090B02024FF000414FF0BA
:10A560000000A1F5002170BD19461046012851EBED
:10A57000010418BFD4F5001484BF002001F000418D
:10A5800070BD4FF04070E1EE100A7047FF2141EAC4
:10A59000D050C00570470000080000000000000017
:10A5A0001000000000000000180000002000000063
:10A5B00000100E0003020000000002020000000074
:10A5C000000000000000000000000000FFFFFFFF8F
:10A5D0000000000000000000000000000800000073
:10A5E0000000000010000000000000001800000043
:10A5F0002000000003000000830100009300000021
:10A6000083030000830200000300000083E00000D9
:10A6100093010000E007C08FFFFFFBE3FFFFFF0196
:10A620000000000008000000000000001000000012
:10A63000000000001800000020000000041002408C
:10A640000100000008100240010000000410024058
:10A6500002000000081002401E000000041002402A
:10A6600004000000081002401E0000000410024018
:10A6700008000000081002401E0000000410024004
:10A6800010000000081002401E00000004100240EC
:10A690002000000008100240E00100000410024009
:10A6A0004000000008100240E001000004100240D9
:10A6B0008000000008100240E00100000410024089
:10A6C0000001000008100240E001000004100240F8
:10A6D0000002000008100240001E000004100240AA
:10A6E0000004000008100240001E00000410024098
:10A6F0000008000008100240001E00000410024084
:10A700000010000008100240001E0000041002406B
:10A710000020000008100240002000000410024049
:10A72000004000000810024000C001000410024078
:10A73000008000000810024000C001000410024028
:10A74000000001000810024000C001000410024097
:10A750000000020008100240000002000410024045
:10A760000000040008100240000004000410024031
:10A770000000080008100240000008000410024019
:10A7800000001000081002400000100004100240F9
:10A7900000002000081002400000200004100240C9
:10A7A0000000400008100240000040000410024079
:10A7B00000008000081002400000800004100240E9
:10A7C0000000000108100240000000010C100240CF
:10A7D0000100000010100240FF0000000C100240B9
:10A7E0000200000010100240FF0000000C100240A8
:10A7F0000400000010100240FF0000000C10024096
:10A800000800000010100240FF0000000C10024081
:10A810001000000010100240FF0000000C10024069
:10A820002000000010100240FF0000000C10024049
:10A830004000000010100240FF0000000C10024019
:10A840008000000010100240FF0000000C100240C9
:10A85000000400001010024000040000020107077D
:10A8600001000300000000030000010001ECF500FE
:10A87000F5FEFFFE08FE0811FD111AFC1A23FB234A
:10A880002CFA2C35F9353CF87F7F00ECF500F5FE0D
:10A89000FFFE08FE0811FD111AFC1A23FB232CFAF7
:10A8A0002C35F9353CF87F7F00EEF208F2F607F61A
:10A8B000FA06FAFE05FE0204020603060A020A0E62
:10A8C000010E12001216FF161AFE1A2AFD2A3CFC6F
:10A8D0007F7F000008000000000000001000000062
:10A8E0000000000018000000200000004D000008DB
:10A8F0005100000855000008590000086D000008CC
:10A90000750000087900000881000008990000081F
:10A910009D0000080800000000000000100000007A
:10A920000000000018000000200000000E030000DE
:10A9300001020F0164A90100000000100C000000DA
:10A94000D482010070A901000C000010BC030000BB
:10A95000708201006CAA0100C803001040170000BB
:10A96000F08201002DA201000000000000000000A4
:10A97000920001125A04120408521E085261101269
:10A980001208920128D21310611883030204435362
:10A99000E004C3040004D20504011E20528779118B
:10A9A0000732080B424204B00487010450430442BA
:10A9B00004600407010830A2003000041507010CF0
:10A9C0001802151018021514180215181802131C75
:10A9D0001816914911AB354421042211CC124114AF
:10A9E00010070240000705240420042500009B01F5
:10A9F000210412032726096882010425780219021E
:10AA0000040215090C032802000100042707052091
:10AA1000A4011EC4128004000428070522F4120DAC
:10AA2000C8128C0402190C04428C04251816096CF7
:10AA3000430A0408610474040704283C011618033F
:10AA400010020404040413070429743578595821AA
:10AA5000A069ECDA07944393E00493030340420DAA
:0CAA6000D4214352FF0102350001000028
:04000005000182353F
:00000001FF
