:020000043002C8
:1000000088420130E50302304D910230D9030230BD
:10001000F58F0230390E023019E103300000000084
:10002000000000000000000000000000C1A6023037
:100030005D130230000000003D950230F3A602304F
:10004000FF030230FF0302306794023039E10330CE
:10005000FF030230FF03023095130230E713023032
:10006000F1130230FB130230051402300F1402307A
:1000700019140230231402302D14023039140230C6
:100080009F130230AB130230B7130230C313023098
:10009000CF130230DB13023041E10330FF030230A3
:1000A000FF030230FF0302301DA70230FF030230BE
:1000B000FF030230FF030230FF030230FF03023070
:1000C000FF030230490F0230590F0230FF030230A4
:1000D000FF030230FF030230FF030230FF03023050
:1000E000FF030230690F0230790F0230FF03023044
:1000F000FF030230FF030230FF030230FF03023030
:10010000FF030230FF030230FF030230FF0302301F
:10011000FF030230FF030230FF030230FF0302300F
:10012000FF030230FF030230FF030230FF030230FF
:10013000FF030230FF030230FF030230FF030230EF
:10014000FF030230FF030230FF030230FF030230DF
:10015000FF030230FF030230FF030230FF030230CF
:10016000FF030230FF030230FF030230FF030230BF
:10017000FF030230FF030230FF030230FF030230AF
:10018000FF030230FF030230FF030230FF6A023038
:10019000016B0230036B0230056B0230076B0230DB
:1001A000FF030230FF030230FF030230FF0302307F
:1001B000FF030230FF03023025A8023059A90230A4
:1001C00069A90230A9A70230B9A7023079A9023083
:1001D000C9A70230D9A70230E9A70230F9A7023037
:1001E00059A7023069A7023079A70230FF03023015
:1001F0005B0E02305F0E0230630E0230670E02307B
:100200006B0E02306F0E0230590E02305D0E02305E
:10021000610E0230650E0230690E02306D0E023042
:100220008D1302308F13023091130230931302307A
:1002300021A702301FA7023025A7023023A70230D2
:100240006B8802306F880230698802306D88023016
:10025000659402306DA60230FF030230791502303A
:10026000FF03023085910230FF030230FF030230AA
:1002700081910230FF030230FF030230FF0302309E
:10028000FF030230FF030230FF030230FF0302309E
:10029000FF030230FF030230FF030230FF0302308E
:1002A000FF030230FF030230FF030230FF0302307E
:1002B000FF030230FF030230FF030230FF0302306E
:1002C000FF030230FF030230FF03023089A7023030
:1002D00099A70230FF030230290E02302B0E0230A4
:1002E0002D0E02302F0E0230310E0230330E02304E
:1002F000350E0230370E0230D5A5023029A6023065
:10030000F58702307D1502304516023000000000EE
:1003100000000000000000000000000000000000DD
:1003200000000000000000000000000000000000CD
:1003300000000000000000000000000000000000BD
:1003400000000000000000000000000000000000AD
:10035000000000000000000000000000000000009D
:10036000000000000000000000000000000000008D
:10037000000000000000000000000000000000007D
:10038000000000000000000000000000000000006D
:10039000000000000000000000000000000000005D
:1003A000000000000000000000000000000000004D
:1003B000000000000000000000000000000000003D
:1003C00000000000DFF80CD000F09CFB0048004764
:1003D0004524043088420130704669461EF0B0FD65
:1003E000FFF7FEFF0648804706480047FEE7FEE7A6
:1003F000FEE7FEE7FEE7FEE7FEE7FEE7FEE7FEE7D5
:10040000FDA60230C50302302DE9F05F054600204D
:1004100092469B4688460646814640241BE0284675
:1004200041464746224600F018F953465A46C01A3C
:10043000914110D311461846224600F016F82D1AA5
:1004400067EB01084F4622460120002100F00DF81D
:1004500017EB00094E41201EA4F10104DFDC4846E1
:1004600031462A464346BDE8F09F202A04DB203A65
:1004700000FA02F1002070479140C2F1200320FAF7
:1004800003F31943904070470649074A08685043F0
:1004900043F239021044086040087047014908607F
:1004A00070470000F84F00306D4EC64140EA01032E
:1004B0009B0703D009E008C9121F08C0042AFAD21A
:1004C00003E011F8013B00F8013B521EF9D27047DE
:1004D000D2B201E000F8012B491EFBD27047002286
:1004E000F6E710B513460A4604461946FFF7F0FF33
:1004F000204610BD421E12F8013F002BFBD111F81F
:10050000013B02F8013B002BF9D1704730B505469D
:100510002A460B4612F8010B13F8014B08B1A04212
:10052000F8D01CB1002802D06D1CF1E7284630BD80
:1005300010B5044604E00B7800F8013B03B1491CF8
:10054000521EF8D2204610BD421C10F8011B002993
:10055000FBD1801A704710B5002200E0521C835C6A
:100560008C5CA34201D1002BF8D1D8B2E1B2401A81
:1005700010BD034611F8012B00F8012B002AF9D118
:100580001846704730B505460020034600E05B1C66
:10059000934205D2EC5CC85C201A01D1002CF6D144
:1005A00030BD2DE9F05F93460F4680460446002695
:1005B0001DF0DAFED0F80090824614F8015B2DB1F0
:1005C00000F05CF80068405DC007F6D12B2D02D02A
:1005D0002D2D1AD0641E0021CAF800105A46394643
:1005E000204600F04FF8014627B13868A04201D1FB
:1005F000C7F80080DAF80000022809D0CAF8009095
:10060000700505D54842BDE8F09F46F48066E2E7F4
:100610000846F8E770B506461DF0A6FE04680546D4
:100620000A220021304600F07CF82C6070BD30B505
:100630000B46014600202022012409E021FA02F5A0
:100640009D4205D303FA02F5491B04FA02F528443A
:10065000151EA2F10102F1DC30BD202A04DB203A94
:1006600021FA02F00021704721FA02F3D040C2F1D2
:100670002002914008431946704700000048704727
:100680007C8804302DE9F05F82460078002715460B
:100690008B460AF10104B946302801D09DB113E020
:1006A00014F8010B0127782803D0582801D045B150
:1006B0000AE00DB1102D07D10027102514F8010B09
:1006C00002E0082500E00A250026B0460EE005FB02
:1006D000080005FB06F1012701EB10461FFA80F820
:1006E000B6F5803F00D3B94614F8010B294600F057
:1006F0002DFA0028EBDABBF1000F05D00FB1641E14
:1007000000E05446CBF80040B9F1000F06D01DF0D0
:100710002BFE02210160C81EBDE8F09F48EA06409A
:10072000FAE72DE9F04791460F4680460446002639
:1007300014F8015B2DB1FFF7A1FF0068405DC00711
:10074000F6D12B2D02D02D2D18D0641E4A463946E5
:100750002046FFF797FF27B13968A14201D1C7F8BA
:10076000008071054FF002040BD54042002803DDE4
:100770001DF0FAFD0460A007BDE8F08746F480662E
:10078000E4E70028F8DA1DF0EFFD04606FF00040A8
:10079000F2E72DE9FE4F804681EA0300C00F0C46C8
:1007A000009021F0004123F00045B8EB0200A94180
:1007B00005D24046214690461C460B46024623F091
:1007C0000040104347D0270DC7F30A00C3F30A5176
:1007D0000290401A019040286BDAC3F3130040F4F2
:1007E000801B0098924620B10023D2EB030A63EBF2
:1007F0000B0B01985946C0F140025046FFF735FEF9
:1008000006460D4650465946019A00F08DF910EB08
:1008100008006141002487EA115284EAE7731A4311
:1008200040D0009A62B3019A012A4FEA075215DCC0
:10083000001B61EB02014FF0004202EA0752CDE9D2
:100840000042001C41F5801132462B4600F09BF916
:1008500003B0BDE8F08F40462146F9E7001B61EB8D
:100860000201001C41F5801300185B412018A2F51D
:10087000001747EB030140EAD570B6196D4111E04E
:100880006D084FEA360645EAC0754FEA0752001B6D
:1008900061EB0201001C41F5801149084FEA30006C
:1008A0000019514132462B4603B0BDE8F04F00F02D
:1008B0005BB90098012240000023D0EB020263EBF9
:1008C000E073009821464FEAE074B8EB000061EB5A
:1008D0000401E9E783F000435BE781F0004158E75A
:1008E0002DE9FE4F81EA030404F0004421F00041A9
:1008F00000944FF0000B23F0004350EA01045ED057
:1009000052EA03045BD0C3F30A54C1F30A552C44E2
:10091000A4F2F3340194A0FB0254C1F3130141F497
:100920008011C3F3130343F4801301FB024400FB63
:10093000034E840A970A44EA815447EA8357A4FB8A
:10094000076802958D0A05FB07854FEA932C04FB87
:100950000C542705029D4FEA065847EA1637B5EBB7
:1009600008056EEB070C870E920E47EA811742EAE4
:100970008312A7FB0201B6EB0B0164EB00042B0D05
:1009800043EA0C335E1844EB1C50DA465146E7FB51
:100990000201C5F313044FEA0B3343EA14534FEA41
:1009A0000432019C43EA0603A4F10C040294009C67
:1009B000CDE900B400F0E7F803B0BDE8F08F002007
:1009C0000146F9E72DE9F04D81EA030404F0004BFC
:1009D00021F0004514464FF0000A23F0004150EA90
:1009E000050220D054EA01021DD0C5F30A57024681
:1009F000C5F31303C1F31300C1F30A5640F4801585
:100A000043F48013A7EB0608101BD64608F2FD3806
:100A100073EB050002D308F1010801E092185B4175
:100A2000B8F1000F03DA00200146BDE8F08D002088
:100A30004FF48011064684460EE0171B73EB050742
:100A400005D3121B63EB050306434CEA010C49086E
:100A50004FEA300092185B4150EA0107EDD152EAAB
:100A6000030012D082EA040083EA0501084305D09E
:100A7000101BAB4106D20122002306E000224FF0FA
:100A8000004302E06FF0010253101AEB06004CEB3A
:100A9000085110EB0A0041EB0B01BDE8F04D00F0EE
:100AA00063B8C1F30A52C1F3130140F2FF3341F4BA
:100AB00080119A4202DA00200146704740F2334327
:100AC0009A42A2F2334202DC5242FFF7C6BDFFF760
:100AD000CCBC000030B5041E71F1000404DB4FF003
:100AE0000044404264EB0101141E73F1000405DB75
:100AF0001C464FF00043524263EB0403994208BF87
:100B0000904230BD064C074D06E0E06840F001031E
:100B100094E8070098471034AC42F6D3FFF756FC30
:100B2000D4C40430F4C40430202A06DBCB17203AA6
:100B300041FA02F043EAE07306E041FA02F3D040E2
:100B4000C2F1200291400843194670473A2800D26A
:100B5000303820F02002412A01D3A2F13700884228
:100B600001D34FF0FF30704710B5141E73F100042D
:100B700008DA401C41F1000192185B411A4301D18F
:100B800020F0010010BD2DE9F04D92469B4611B1B9
:100B9000B1FA81F202E0B0FA80F220329046FFF71B
:100BA00064FC04460F4640EA0A0041EA0B01534642
:100BB0005A46084313D0114653EA010019D0C8F130
:100BC00040025046FFF749FD05460E46504659463D
:100BD0004246FFF74AFC084305D0012004E02046C6
:100BE0003946BDE8F08D0020054346EAE0762C4307
:100BF00037430A986305E40AA0EB08000022FD0AC7
:100C000044EA47540A3002D500200146E9E70105CD
:100C100010196941DDE9084500196941BDE8F04D49
:100C2000A2E770B58C1810F8015B15F0070301D12D
:100C300010F8013B2A1106D110F8012B03E010F83F
:100C4000016B01F8016B5B1EF9D12B0705D4002362
:100C5000521E0DD401F8013BFAE710F8013BCB1A04
:100C6000921C03E013F8015B01F8015B521EF9D5F9
:100C7000A142D8D3002070BD70B505460E4614467B
:100C8000064907A01DF004FB012C02D0022C02D162
:100C900000E000E000BF00BF002070BD38850430D8
:100CA0002573200D0A000000014600207047002037
:100CB000704703460020704701460020704700003F
:100CC0002DE9F04106460D461746012F01D10DA032
:100CD00000E00DA002460E490EA01DF0D9FA2A46EA
:100CE0000B4913A01DF0D4FA002406E0335D224620
:100CF000074918A01DF0CCFA641CAC42F6D30020C2
:100D0000BDE8F081203D200020213D2000000000B2
:100D10004A850430257320636D6420257320415576
:100D200044494F5F4F55545F5443200D0A00000063
:100D3000257320676574506572696F646963206408
:100D40006174612073697A652030782578200D0AF6
:100D500000000000257320676574506572696F6438
:100D6000696320646174615B25645D203078257857
:100D7000200D0A0070B505460E46D5F8DC4004B9D2
:100D800070BD402143F60A402044401CFFF7A7FBFA
:100D9000F28843F60A402118491C284613F0D5FA78
:100DA00000BFEDE770B506460C46D6F8DC5005B935
:100DB00070BDE088C0B1E28843F60A402918491C9A
:100DC000304613F0A4FA012143F60A404155A079B8
:100DD00043F60A41294481F84100A088000A43F6FD
:100DE0000A41294481F8420000BFE1E72DE9FC47B0
:100DF00004460D4616461F464FF00108D4F830054C
:100E0000D0F81C90A9F89071022003462A460621CA
:100E1000CDE90060204614F0B7FF80464046BDE8AB
:100E2000FC87014600207047704770477047704745
:100E30007047704770477047024903A01DF028FAB9
:100E400000BFFEE74E6B0430257320496E74657257
:100E500072757074200D0A007047704770477047B4
:100E600070477047704770477047704770477047CA
:100E70000346042B15D007DC7BB1012B0ED0022BCF
:100E80000DD0032B12D10BE0202B0BD0212B0AD03D
:100E9000222B09D0232B09D107E008E007E006E068
:100EA00005E004E003E002E001E000E000BF00BF75
:100EB000002070470020704710B500220449054803
:100EC00013F036F90449034813F027F9002010BD48
:100ED00010240130105C0030101C013070B5044645
:100EE0000D462146034813F018F9024813F0F0F8B4
:100EF000002070BD105C003010B503460C46002188
:100F0000084610BD30B5002215E015060023002468
:100F10000BE085EA030000F0004018B1084880EAC1
:100F2000430300E05B006D00641C082CF1D305480E
:100F300040F82230521CFF2AE7D908F079FC30BD76
:100F4000B71DC104ACC8003010B50248006800F0FD
:100F5000F3FC10BD903F003010B50248006800F06F
:100F6000EBFC10BD943F003010B50248006800F063
:100F7000E3FC10BD903F003010B50248006800F05F
:100F8000DBFC10BD943F00302DE9F04107460D46D3
:100F900000240026022F2ED32C686E68FF2E0BD95A
:100FA00000261AA01DF074F91DA01DF071F926A0ED
:100FB0001DF06EF9BDE8F081B4F1105F02D3234853
:100FC00084420AD9002611A01DF062F920A01DF06C
:100FD0005FF91DA01DF05CF9ECE73246214623A025
:100FE0001DF056F932464FF400712046FFF770FAB3
:100FF0002A48046008E005A01DF04AF928A01DF069
:1010000047F911A01DF044F900BFD3E755534244FE
:101010006576696365204552524F523A20000000C0
:10102000696E697469616C20646174612063616ECA
:10103000206E6F7420626520657863656565646500
:1010400064203078464600000A000000FF0F803818
:10105000646D612061646472657373206973206ECE
:101060006F742076616C6964000000007573622003
:10107000646D612074657374206164647265737358
:10108000203078257820696E697469616C446174D8
:10109000612030782578200D0A0000005C32003095
:1010A000706C6561736520696E7075742076616C13
:1010B000696420706172616D657465720000000082
:1010C00010B5034623FA01F4B4F5805F05D340F66A
:1010D000FF7004468C40146002E023FA01F01360B4
:1010E00010BD30B5024600BFD2F8A003044604EAA2
:1010F000010008B9002030BD01F47F4040F2011525
:101100008540C2F8A05300BF002309E000BFD2F819
:10111000A003044604EA010008B90020EBE75B1CC9
:10112000642BF3D30220E6E770470000F8B50446CD
:1011300004B9F8BD206805F067FF0546206805F092
:1011400073FF0646B5F1402F05D02048854202D0F6
:101150001F48854200D104E04FF441711DA01DF0ED
:1011600081FD082E00D204E040F2053119A01DF0E7
:1011700079FDE06940B3042060713146284605F0EE
:101180000FFF0020009005E00098401C00906428AC
:1011900000D905E03146284606F0C4F90028F3D10D
:1011A00000BF00BF0020207100BF3146284606F076
:1011B000B9F910B10320607101E00120607120696C
:1011C00010B120462169884700BFB2E70080004087
:1011D000008001502E2E5C2E2E5C2E2E5C636D73D3
:1011E00069735C447269766572735C5372635C7890
:1011F000793332683778785F68616C5F646D612E2F
:101200006300000070B5044604B970BD206805F0A5
:10121000FBFE0546206805F007FF0646B5F1402FA6
:1012200005D02848854202D02748854200D104E0F5
:101230004FF4507125A01DF015FD082E00D204E0DA
:1012400040F2413121A01DF00DFD6079042817D135
:1012500000223146284606F0BBF9206805F0A6FEBC
:101260003146284605F00CFE00BF0020207100BF6B
:1012700001206071606910B1204661698847C4E748
:10128000D4E9090188421BD100223146284606F0E4
:101290009FF9206805F08AFE3146284605F0F0FDEA
:1012A0003146284605F07CFE00BF0020207100BFBB
:1012B00001206071606910B1204661698847A4E728
:1012C00000BFA2E700800040008001502E2E5C2E5F
:1012D0002E5C2E2E5C636D7369735C447269766557
:1012E00072735C5372635C78793332683778785FF5
:1012F00068616C5F646D612E63000000014600222E
:1013000000BF05E0002301F5A76040F82230521C21
:101310000F2AF7D3002204E0002301F5077083545D
:10132000521CB2F5007FF7D30020087048700120EE
:1013300088700020C1F8780501230B7640238B715B
:1013400000238B7681F81C34012381F81D3400239F
:1013500081F81F3481F81E347047000010B503492E
:1013600003A01CF095FF00BF00BF10BD7E6B0430D2
:10137000257320496E74657272757074200D0A00B1
:10138000014600E0491E0029FCD1704770477047B4
:101390007047704710B5012000F05AFD10BD10B520
:1013A0004FF4806000F054FD10BD10B54FF40060A4
:1013B00000F04EFD10BD10B54FF4805000F048FD18
:1013C00010BD10B54FF4005000F042FD10BD10B537
:1013D0004FF4804000F03CFD10BD10B54FF40040CC
:1013E00000F036FD10BD10B5022000F031FD10BD3B
:1013F00010B5042000F02CFD10BD10B5082000F041
:1014000027FD10BD10B5102000F022FD10BD10B555
:10141000202000F01DFD10BD10B5402000F018FD8B
:1014200010BD10B5802000F013FD10BD10B54FF4B5
:10143000807000F00DFD10BD10B54FF4007000F08D
:1014400007FD10BD0A4800680A49084308490860BA
:101450000948006840F0807007490860002007498B
:1014600048600846006840F00100086070470000CE
:10147000B01F00E055CEACC5FCED00E0001000E070
:1014800010B505A01CF004FF06A01CF001FF0AA087
:101490001CF0FEFE10BD00005553424465766963A2
:1014A000653A2000555342204F636375727320459F
:1014B00072726F72000000000A00000030B504462E
:1014C0000D4600222946204600F002F830BD0000FB
:1014D000F0B50346012500241148807B02281CDA60
:1014E00000200F4EB67B0E4FB8553846867B001D48
:1014F00040F82630001F867B0C3082553E46B07B7C
:10150000461CBE73044604F1300008703A2048704F
:101510002F2088700020C87000252846F0BD0000EC
:10152000B4D9003010B504460021204600F002F87E
:1015300010BD000030B502460B46002101200D4CC5
:10154000A47B012C14DB1478303CE1B2094C241D3F
:1015500054F8214064B10025064C241D44F8215064
:10156000083465540C3CA47B641E024DAC7300200F
:1015700030BD0000B4D900307047000010B5002421
:10158000206800F0806010B111A01CF081FE20687E
:1015900000F0004010B113A01CF07AFE206800F0AB
:1015A000805010B117A01CF073FE206800F00050AE
:1015B00010B11AA01CF06CFE206840F04050206072
:1015C0001C491DA01CF064FE1C481D49086010BD8C
:1015D00046505520696E6578616374206572726F3C
:1015E00072210A0046505520696E76616C6964204C
:1015F0006F7065726174696F6E206572726F7221AF
:101600000A000000465055206F766572666C6F7751
:10161000206572726F72210A00000000465055204A
:10162000756E646572666C6F77206572726F722179
:101630000A000000C46B043025730A0001AAAAAA9C
:10164000FC03004010B50024206800F0806010B159
:1016500015A01CF01DFE206800F0804010B117A0FE
:101660001CF016FE206800F0004010B11AA01CF01B
:101670000FFE206800F0805010B11FA01CF008FE83
:10168000206800F0005010B121A01CF001FE20687D
:1016900040F040502060244924A01CF0F9FD24486B
:1016A0002449086010BD000046505520696E6578D9
:1016B000616374206572726F72210A004650552072
:1016C0006469766964652D62792D7A65726F20652B
:1016D00072726F72210A000046505520696E766161
:1016E0006C6964206F7065726174696F6E206572D9
:1016F000726F72210A000000465055206F766572A5
:10170000666C6F77206572726F72210A00000000AC
:1017100046505520756E646572666C6F77206572F1
:10172000726F72210A000000D46B043025730A0026
:1017300001AAAAAAFC0300402DE9F05F80460F46EB
:101740001546B8F1000F02D1002012490860AE081A
:1017500005F00309BA46DFF840B0002404E05AF867
:1017600024004BF82400641CB442F8D3042202FB8A
:101770000671094A042303FB06204A46FEF796FE3B
:101780000448006828440349086008460068BDE82A
:10179000F09F000030420030602000302DE9F04121
:1017A00004460D461646012B01D108F041F80022EF
:1017B00010E0501914F800800A48006888EA1060A8
:1017C000094951F820000749096880EA01200549C4
:1017D0000860521CB242ECD3024807683846BDE8A4
:1017E000F081000028420030ACC8003070B5084CD1
:1017F000084D094E344454B108220849204605F0EA
:1018000083F9042205491031284605F07DF970BDA1
:10181000785634129968341255443322B644003055
:101820002DE9F05F04466079022808D08020E0614D
:1018300000BF0020207100BF0120BDE8F09F20689C
:1018400005F0E2FB8146206805F0EEFB8246B9F127
:10185000402F05D02A48814502D02A48814500D131
:1018600004E040F2671128A01DF0FCF9BAF1080F5E
:1018700000D204E04FF4B47123A01DF0F3F940F25C
:10188000011000FA0AFB206805F090FB1F22594660
:10189000484605F03FFB5146484605F081FB00F005
:1018A000F5FA4FF0000807461CE000F0EFFA0026BA
:1018B0000546E81B76EB080002D22D1C46F1010616
:1018C000EA1B66EB08000021D2F10502814109D232
:1018D0002020E06100BF0020207100BF0320607164
:1018E0000120AAE75146484605F01CFE0028DCD13D
:1018F00000BF207100BF0120607100209DE7000043
:1019000000800040008001502E2E5C2E2E5C2E2E7A
:101910005C636D7369735C447269766572735C5362
:1019200072635C78793332683778785F68616C5FAE
:10193000646D612E630000002DE9F04105462F68BB
:10194000286805F061FB0646286805F06DFB044633
:10195000B6F1402F05D05648864202D055488642FF
:1019600000D104E040F29F2153A01DF07BF9082C28
:1019700000D204E04FF428714FA01DF073F9204607
:10198000D6F8081301228240114001228240914280
:1019900001D1012100E00021A9B1E86940F0010076
:1019A000E86100BF0020287100BF0120687128692C
:1019B00010B12846296988472146304605F08CFA3F
:1019C0002846FFF7B3FB2046D6F8E81201228240F2
:1019D000114001228240914201D1012100E0002109
:1019E00029B3384605F0E2FA2146304605F088FA78
:1019F0002146304605F05CFA2146304605F076FA7D
:101A00002146304605F05EFA00222146304605F0B8
:101A1000DFFD00BF0020287100BF01206871E86869
:101A200010B12846E96888472846FFF7EBFB2046B7
:101A3000D6F8F012012282401140012282409142E8
:101A400001D1012100E0002161B100BF0020287117
:101A500000BF012068712146304605F029FA28466A
:101A6000FFF762FB2046D6F8F812012282401140AF
:101A700001228240914201D1012100E0002119B1EF
:101A80002146304605F032FA2046D6F800130122EE
:101A90008240114001228240914201D1012100E0A7
:101AA000002119B12146304605F00CFABDE8F0815D
:101AB00000800040008001502E2E5C2E2E5C2E2EC9
:101AC0005C636D7369735C447269766572735C53B1
:101AD00072635C78793332683778785F68616C5FFD
:101AE000646D612E630000002DE9F04704460D4649
:101AF00004B115B90120BDE8F0872068B0F1402F8E
:101B000069D051492068884265D04F4958312068D2
:101B1000884260D04C49B031206888425BD04B4944
:101B20002068884257D0494958312068884252D0AD
:101B30004649B031206888424DD0454920688842E6
:101B400049D044492068884245D0424958312068EC
:101B5000884240D03F49B031206888423BD03E495E
:101B60002068884237D03C4958312068884232D0BA
:101B70003949B031206888422DD0384920688842E0
:101B800029D0364958312068884224D03449206809
:101B9000884220D032495831206888421BD03049D1
:101BA000B0312068884216D02E492068884212D071
:101BB0002C495831206888420DD02A49B03120681C
:101BC000884208D028492068884204D026495831E4
:101BD0002068884200D103E0392124A01DF042F89A
:101BE00002206071206805F01FFA0646206805F0A3
:101BF0000BFA8246082E00D203E040211BA01DF004
:101C000031F82A463146504605F0EAFA07461FB138
:101C10000320607100206EE72068816901F0700187
:101C20004FEA11182068816901F00E014FEA51094D
:101C3000C84501D2404600E0484684F82000012013
:101C40006071002057E700005840004060410040AC
:101C5000684200400080004008810040108200403F
:101C60000080015008810150108201502E2E5C2E00
:101C70002E5C2E2E5C636D7369735C4472697665AD
:101C800072735C5372635C78793332683778785F4B
:101C900068616C5F646D612E630000002DE9FC5F7C
:101CA0000446884617469B46206805F0ADF906466F
:101CB000206805F0B9F90546B6F1402F05D04C482B
:101CC000864202D04B48864200D104E040F2111116
:101CD00049A01CF0C7FF082D00D204E04FF4897121
:101CE00045A01CF0BFFF6079012805D04FF40060CB
:101CF000E0610120BDE8FC9F00BF2079012801D1EF
:101D00000220F7E70120207100BF2068D0F81CA056
:101D100000BF20688169894600BF49F40009B8F115
:101D2000000F02D04048804505D3B8F1005F04D9C8
:101D30003E48804501D2012000E0002008B149F072
:101D4000806917B13848874205D3B7F1005F04D9DD
:101D50003648874201D2012000E0002008B149F056
:101D600080794146206805F07EFC3946206805F000
:101D700078FC94F820106A465846FFF7A1F90190C4
:101D800001984AEA000AC4F824B00020A0620120A9
:101D900040F48071A940C6F8301300BF00BF40F482
:101DA0008071A940C6F8101300BF00BF40F48071D5
:101DB000A940C6F8181300BF5146206805F046FC3C
:101DC0004946206805F046FC2068816941F0010120
:101DD000816100BF022060710020E0610121304676
:101DE00005F03CFC2946304605F0E5F8002081E787
:101DF00000800040008001502E2E5C2E2E5C2E2E86
:101E00005C636D7369735C447269766572735C536D
:101E100072635C78793332683778785F68616C5FB9
:101E2000646D612E63000000FFFF0B00FFFF0320C5
:101E300001B508E04FF0E020006900F4803010B1F7
:101E40000098401E009000980028F3D108BD70470C
:101E50002DE9F0410546002411E00120A04000EAF0
:101E600005075FB1204605F03FFCC6B236B12046FB
:101E700005F0FCFB31462846FFF7E9FF641C45FAF4
:101E800004F00028E9D1BDE8F081000001480068B5
:101E9000704700007849003010B50446C82015F09E
:101EA000DEFB20681BF06DFED4F8A00116F0F2FEF8
:101EB00010BD10B50446D4F8A00116F0F6FE10BD12
:101EC00010B5044620681AF08FFE10BD024601EBE3
:101ED000410000EBC10302F1380000EB830090F8F1
:101EE00028007047024601EB410000EBC10302F1FC
:101EF000380000EB83008069704770B504460D46DA
:101F0000002600BF94F89801012801D1022070BD7D
:101F1000012084F8980100BF294620681AF09AFE33
:101F200000BF002084F8980100BF3046EFE72DE99C
:101F3000FE4F04460D4616461F46DDE90D9ADDF8B4
:101F4000308000BF94F89801012802D10220BDE83A
:101F5000FE8F012084F8980100BF002105EB4500A9
:101F600000EBC50204F1380000EB8200417105EB83
:101F7000450000EBC50104F1380000F8217005EBC5
:101F8000450000EBC50104F1380000EB8100A0F82A
:101F900008A005EB450000EBC50104F1380000EB9B
:101FA0008100457005EB450000EBC50104F13800E8
:101FB00000EB810080F8079006F07F0105EB4500FB
:101FC00000EBC50204F1380000EB8200817006F0DE
:101FD000800080280AD1012105EB450000EBC502F5
:101FE00004F1380000EB8200C17009E0002105EB2C
:101FF000450000EBC50204F1380000EB8200C1701F
:1020000005EB450000EBC50104F1380000EB810051
:1020100080F804808DE800073B4632462946206858
:102020001AF01AFF834600BF002084F8980100BF11
:1020300058468CE770472DE9F05F04460D4616467A
:102040001F46DDE90C9BDDE90A8A05EB450000EB44
:10205000C50104F1380000EB8100C67005EB4500B6
:1020600000EBC50104F1380000EB8100C771B8F145
:10207000000F14D1032105EB450000EBC50204F16C
:10208000380000EB8200817205EB450000EBC501D2
:1020900004F1380000EB810080F805B009E002216E
:1020A00005EB450000EBC50204F1380000EB8200AF
:1020B000817237B1012F76D0022F33D0032F73D125
:1020C00073E0B8F1010F2CD106BBB9F1000F09D1B3
:1020D000012105EB450000EBC50204F1380000EBDF
:1020E0008200417705EB450000EBC50104F13800A3
:1020F00000EB8100407F50B9002105EB450000EB6B
:10210000C50204F1380000EB8200817209E002216F
:1021100005EB450000EBC50204F1380000EB82003E
:1021200081728FE0FEB905EB450000EBC50104F1BB
:10213000380000EB8100407F50B9002105EB4500DD
:1021400000EBC50204F1380000EB8200817229E047
:10215000022105EB450000EBC50204F1380000EB5D
:10216000820081721EE005EB450000EBC50104F121
:10217000380000EB8100007F50B9002105EB4500DD
:1021800000EBC50204F1380000EB8200817209E027
:10219000022105EB450000EBC50204F1380000EB1D
:1021A000820081724EE041E04BE0FEB905EB450054
:1021B00000EBC50104F1380000EB8100407F50B90D
:1021C000002105EB450000EBC50204F1380000EBEF
:1021D0008200817229E0022105EB450000EBC50277
:1021E00004F1380000EB820081721EE005EB45002F
:1021F00000EBC50104F1380000EB8100007F50B90D
:10220000002105EB450000EBC50204F1380000EBAE
:102210008200817209E0022105EB450000EBC50256
:1022200004F1380000EB820081720BE0002105EB25
:10223000450000EBC50204F1380000EB820081721A
:1022400000E000BF00BF05EB450000EBC50104F155
:10225000380000EB8100C0F80CA005EB450000EB56
:10226000C50104F1380000EB8100C0F81490002192
:1022700005EB450000EBC50204F1380000EB8200DD
:1022800080F8281005EB450000EBC50204F138008A
:1022900000EB8200816105EB450000EBC50104F114
:1022A000380000EB81004570002105EB450000EB94
:1022B000C50204F1380000EB820080F82910227C6E
:1022C00005EB450303EBC50C04F1380303EB8C016C
:1022D00020681AF0D9FEBDE8F09F00002DE9F0411A
:1022E000044604B104E04FF4E37172A01CF0BAFCA0
:1022F000206800B104E040F2C7116EA01CF0B2FCEF
:10230000266820681AF0A0FC012801D0BDE8F08101
:1023100020681BF001FC00B9F8E7206840692168DB
:102320008969084000F00800082804D12168486144
:10233000204600F0F2FA2068406921688969084067
:1023400000F40010B0F5001F03D14FF40010216815
:1023500048612068406921688969084000F480105C
:10236000B0F5801F03D14FF48010216848612068C8
:10237000406921688969084000F08060B0F1806F91
:1023800003D14FF08060216848612068406921686E
:102390008969084000F00200022801D121684861E3
:1023A0002068406921688969084000F00040B0F168
:1023B000004F06D14FF0004021684861204600F0F0
:1023C00071FA2068406921688969084000F000506E
:1023D000B0F1005F16D14FF0005021684861D6F887
:1023E000400400F0010068B92046FFF762FDE06894
:1023F00020B9002120681BF0E5F903E001212068E5
:102400001BF0E0F92068406921688969084000F004
:102410008070B0F1807F02D1204604F0E4F920689A
:102420004069216889690840C0F3001070B12068D4
:10243000806920F0100021688861204604F02CFAA1
:102440002068806940F01000216888612068406938
:1024500021688969084000F00070B0F1007F26D142
:102460004FF000702168486120681AF005FE0746A9
:10247000002519E005F00F0101208840384090B197
:1024800006F5A06000EB4510006800F40040B0F5D0
:10249000004F04D1E9B2204603F026FA03E0E9B286
:1024A000204603F005FE6D1CA068A842E2D800BFDC
:1024B0002CE700002E2E5C2E2E5C2E2E5C636D739E
:1024C00069735C447269766572735C5372635C789D
:1024D000793332683778785F68616C5F6863642E3F
:1024E0006300000030B58BB0044614B901200BB076
:1024F00030BD2C492068884200D103E04B212AA03E
:102500001CF0B0FB256894F8990128B9002084F8E4
:102510009801204600F060F8032084F899012068B3
:1025200019F068FD282204F110016846FDF7BEFF8E
:1025300094E80F0019F0CAFA206968B12068806831
:1025400040F02000216888601648806820F01E0056
:1025500040F00C0013498860E06830B9D5F80004F9
:1025600020F00400C5F8000409E0E068012806D165
:10257000D5F8000420F00400001DC5F80004012176
:1025800020681BF01DFB282204F110016846FDF7AE
:102590008DFF94E80F001AF017FF012084F89901CD
:1025A0000020A4E7000003402E2E5C2E2E5C2E2E71
:1025B0005C636D7369735C447269766572735C53B6
:1025C00072635C78793332683778785F68616C5F02
:1025D0006863642E6300000010B5044692A01BF0EF
:1025E00057FE944994A01BF053FE94A01BF050FE9C
:1025F00000BF9348006840F400709149086000BF34
:1026000000BF0846006840F48060086000BF0021F9
:10261000892000F0C3FB892000F086FB89A01BF015
:1026200037FE012240218E4805F05AF940218C489E
:1026300005F09BF8012208218948203805F050F95F
:1026400008218748203805F090F80122102184489D
:10265000203805F045F910218148203805F085F82B
:10266000012220217E48203805F03AF920217C48BB
:10267000203805F07AF8012240217948203805F009
:102680002FF940217648203805F06FF8012280218B
:102690007348203805F024F980217148203805F06E
:1026A00064F8012211026E48203805F019F94FF440
:1026B00080716B48203805F058F8012251026848B3
:1026C000203805F00DF94FF400716548203805F009
:1026D0004CF8012291026248203805F001F94FF4CC
:1026E00080615F48203805F040F80122D1025C4843
:1026F000203805F0F5F84FF400615948203805F00E
:1027000034F8012211035648203805F0E9F84FF457
:1027100080515348203805F028F8012210215048F4
:10272000203005F0DDF810214D48203005F01DF86F
:10273000012220214A48203005F0D2F820214848C3
:10274000203005F012F8012240214548203005F0E4
:10275000C7F840214248203005F007F801228021C7
:102760003F48203005F0BCF880213D48203004F07F
:10277000FCFF012202213A4805F0B2F80221384854
:1027800004F0F3FF01220421354805F0A9F80421E3
:10279000334804F0EAFF01222021314805F0A0F877
:1027A00020212F4804F0E1FF012280212C4805F070
:1027B00097F880212A4804F0D8FF01221102284806
:1027C00005F08EF84FF48071254804F0CEFF012209
:1027D0005102234805F084F84FF40071204804F0BA
:1027E000C4FF012204211E48203805F079F8042195
:1027F0001B48203804F0B9FF1AA01BF049FD1CA0AB
:102800001BF046FD0DA01BF043FD0520FFF710FB5C
:10281000042013492039086100BF1A48006840F0BD
:1028200004001849086010BD4445425547203A202D
:1028300000000000107E0430257300000A00000034
:1028400020040150696E69742075746D6920696E89
:102850007465726661636520706879200D0A0000F6
:10286000201C0150555342486F73743A0000000019
:102870005553422050485920506F776572204F6E53
:10288000000000000018015010B50446D4F8A00163
:1028900016F0DEFA10BD10B50446D4F8A00116F00B
:1028A000DBFA10BD38B505462C6804F58864D4F809
:1028B000C00920F00100C4F8C009009840F480501D
:1028C0000090009820F004000090009820F0800014
:1028D00000902068009908432060206840F0400084
:1028E00020600F20FFF7A4FA206820F0400020604D
:1028F000206840F4807020604FF41670FFF798FA5B
:10290000206820F480702060A4F5886438BD10B57C
:10291000044620681BF035F910BD10B50446D4F804
:10292000A00116F026FA10BD10B5044600BF94F8B9
:102930009801012801D1022010BD012084F89801DE
:1029400000BF20681AF07EF80121206819F0D2FB40
:1029500000BF002084F8980100BF00BFECE710B56D
:1029600004460CB9012010BD00BF94F8980101285D
:1029700001D10220F7E7012084F8980100BF206808
:102980001BF0C6F900BF002084F8980100BF00BF0B
:10299000E9E7000003480068034909780844014951
:1029A00008607047784900308049003010B50F202A
:1029B00000F008F808B1012010BD00F079F90020FE
:1029C000FAE7000070B504461148007808B9012004
:1029D00070BD0F4800784FF47A71B1FBF0F00D49EB
:1029E0000968B1FBF0F5284601F04EFE08B1012060
:1029F000EEE7102C07D221464FF0FF3000F0CEF961
:102A00000548046001E00120E2E70020E0E7000063
:102A100080490030344200307C49003010B5044613
:102A20000CB9012010BD2068B0F1824F37D0234986
:102A30002068884233D02249206888422FD021491B
:102A4000206888422BD020492068884227D01F491F
:102A50002068884223D02068B0F1924F1FD01C49D3
:102A6000206888421BD01B492068884217D01A4929
:102A70002068884213D01949206888420FD018492D
:102A8000206888420BD017492068884207D0206808
:102A9000B0F1A24F03D014492068884200D104E06D
:102AA00040F2511111A01CF0DDF8206804F048FF3D
:102AB000002084F83C0000BFB4E700000010004193
:102AC0000020004100300041004000410050004122
:102AD0000010004900200049003000490040004932
:102AE0000050004900600049001000512E2E5C2E5D
:102AF0002E5C2E2E5C636D7369735C44726976651F
:102B000072735C5372635C78793332683778785FBC
:102B100068616C5F75736172742E630070477047F3
:102B200070B504460D4616460CB9012070BD2068EC
:102B3000B0F1824F37D045492068884233D04449AC
:102B4000206888422FD04349206888422BD04249D0
:102B50002068884227D041492068884223D02068D5
:102B6000B0F1924F1FD03E49206888421BD03D49AA
:102B70002068884217D03C492068884213D03B49DE
:102B8000206888420FD03A49206888420BD03949E2
:102B90002068884207D02068B0F1A24F03D03649A0
:102BA0002068884200D103E0E32134A01CF05AF8E9
:102BB000E868022801D10120B8E72869032801D07C
:102BC0000120B3E7A06B60B9002084F834002046F0
:102BD00007F046FFA06E08B93448A0662046A16EF3
:102BE00088472420A0632946206805F0A3FB01281C
:102BF00000D19BE700BF2869032802D1FF20207580
:102C000012E02869022802D17F2020750CE0286993
:102C1000012802D13F20207506E0286910B91F2045
:102C2000207501E00020207500BF3146206804F0C7
:102C300069FF2020A063012084F83C0000BF002031
:102C400084F8340000BF00BF70E7000000100041AE
:102C50000020004100300041004000410050004190
:102C600000100049002000490030004900400049A0
:102C70000050004900600049001000512E2E5C2ECB
:102C80002E5C2E2E5C636D7369735C44726976658D
:102C900072735C5372635C78793332683778785F2B
:102CA00068616C5F75736172742E6300454E02300B
:102CB0007047000010B50446002C00DB03E03E2105
:102CC0000BA01BF0CFFF204600280BDB00F01F02FB
:102CD00001219140134A430942F82310BFF34F8F5B
:102CE000BFF36F8F00BF204605F07EFA10BD0000D5
:102CF0002E2E5C2E2E5C2E2E5C636D7369735C44ED
:102D00007269766572735C5372635C78793332688A
:102D10003778785F68616C5F636F727465782E6373
:102D20000000000080E100E010B50446002C00DB4C
:102D300003E02D210CA01BF095FF204605F080FA42
:102D4000204600280DDB00BF00BF00F01F0201215C
:102D500091404209920002F1E022C2F8001100BF46
:102D600000BF00BF10BD00002E2E5C2E2E5C2E2E4C
:102D70005C636D7369735C447269766572735C53EE
:102D800072635C78793332683778785F68616C5F3A
:102D9000636F727465782E630000000070B505469D
:102DA0000C46102C00D203E0522104A01BF05AFF65
:102DB000214628461BF0C4FA70BD00002E2E5C2E62
:102DC0002E5C2E2E5C636D7369735C44726976654C
:102DD00072735C5372635C78793332683778785FEA
:102DE00068616C5F636F727465782E630000000029
:102DF0000246106B416200207047F0B5034615464D
:102E0000186B446A21B944EA05401E6BB06219E0B0
:102E1000186B806A04EB1044002208E0186B00F580
:102E2000827050F8220004EB1044501CC2B2481EBD
:102E30009042F3D844EA0547186B00F582704E1EA5
:102E400040F826700020F0BD70B504460D46C5EB75
:102E5000C50304F16C0101EB8301CA682946D4F86B
:102E6000580111F0EBFE70BD70B504460D46C5EB80
:102E7000C50304F1DC0101EB8301CA682946D4F8DB
:102E8000580111F04CFF70BD70B504460E4606F0B7
:102E90000F00287006F0800080280AD106F00F008D
:102EA000C0EBC00104F16C0000EB810501206870EB
:102EB00009E006F00F00C0EBC00104F1DC0000EBFC
:102EC00081050020687000BF94F84C01012801D1F1
:102ED000022070BD012084F84C0100BF2946206B00
:102EE00018F07EFE00BF002084F84C0100BF00BF38
:102EF000EFE770B504460E4606F00F00616B88429E
:102F000001D9012070BD06F0800080280AD106F0AA
:102F10000F00C0EBC00104F16C0000EB8105012043
:102F2000687009E006F00F00C0EBC00104F1DC009E
:102F300000EB8105002068700020A87006F00F00EB
:102F4000287000BF94F84C01012801D10220D9E774
:102F5000012084F84C0100BF2946206B19F0A0FA2B
:102F600000BF002084F84C0100BF00BFCAE770B565
:102F700004460D4600BF94F84C01012801D10220FF
:102F800070BD012084F84C0100BF05F0800080284E
:102F900005D105F00F01206B19F0B6FD02E0206BA2
:102FA00019F07AFD00BF002084F84C0100BF00BF7B
:102FB000E6E7024601F00F00C0EBC00302F1DC00BF
:102FC00000EB8300806970472DE9F04705460E4607
:102FD00090461F464FF0000906F0800080280AD175
:102FE00006F00F00C0EBC00105F16C0000EB81049E
:102FF0000120607009E006F00F00C0EBC00105F190
:10300000DC0000EB81040020607006F00F002070EF
:10301000C4F80880E770607808B12078E080022F5B
:1030200001D10020207100BF95F84C01012802D188
:103030000220BDE8F087012085F84C0100BF214641
:10304000286B18F00FFC00BF002085F84C0100BF72
:103050004846EEE72DE9F04104460E4617469846ED
:1030600006F00F00C0EBC00104F1DC0000EB8105AD
:10307000EF60C5F814800020A861687006F00F00AA
:103080002870206C012800D12F6106F00F0030B9A4
:1030900040210A5D2946206B19F052F805E04021D5
:1030A0000A5D2946206B19F0D9FA0020BDE8F081AD
:1030B00070B504460D4605F00F00616B884201D9DA
:1030C000012070BD05F0800080280AD105F00F00B6
:1030D000C0EBC00104F16C0000EB810601207070B0
:1030E00007E0C5EBC50104F1DC0000EB8106002020
:1030F00070700120B07005F00F00307000BF94F8C0
:103100004C01012801D10220DBE7012084F84C01A9
:1031100000BF3146206B19F02FFA05F00F0028B9D7
:103120004022115D2246206B19F056F900BF0020A5
:1031300084F84C0100BF00BFC3E72DE9F04104460D
:103140000E461746984606F00F00C0EBC00104F18A
:103150006C0000EB8105EF60C5F814800020A861C9
:103160000120687006F00F002870206C012800D143
:103170002F6106F00F0030B940210A5D2946206B0F
:1031800018F0DEFF05E040210A5D2946206B19F0AA
:1031900065FA0020BDE8F081FEB50546286B1AF0FF
:1031A000DDFB0190286B009000248AE0019800F07C
:1031B000010000287ED02146286B1AF037FC0290CF
:1031C000029800F08000802803D12146284606F0AE
:1031D000C5F8029800F00100E0B30121009800F565
:1031E000106000EB4410816004F00F01012000FA30
:1031F00001F6009901F634000168B1430160286CC2
:10320000012823D1C4EBC40105F16C0000EB81005F
:10321000C4EBC402C16805F16C0000EB8200806859
:103220000144C4EBC40205F16C0000EB8200C160F4
:1032300064B9C4EBC40105F16C0000EB8100C06807
:1032400020B92A460121286B19F0C6F821462846E4
:10325000FFF7FAFD029800F00800082806D10821BF
:10326000009800F5106000EB44108160029800F0B7
:103270001000102806D11021009800F5106000EB16
:1032800044108160029800F04000402806D140219F
:10329000009800F5106000EB44108160029800F087
:1032A0000200022808D10221009800F5106000EB0E
:1032B000441000E000E08160601CC4B20198400846
:1032C0000190019800287FF471AFFEBD7CB50446E3
:1032D00004B104E04FF493614AA01BF0C3FC206BDF
:1032E00000B104E040F2994146A01BF0BBFC256B05
:1032F000206B40690190206B80690090DDE900102F
:1033000008400190206B416901F0010101B17CBDD1
:10331000019800F0080010B10820216B4861019865
:1033200000F4806018B14FF48060216B486101980F
:1033300000F4006060B14FF40060216B486140F61A
:103340000800405900F0010010B1204600F08CFC4C
:1033500038490198084030B14FF48050216B4861E2
:10336000204600F00FFB019800F40050E0B14FF44C
:103370000050216B4861206B18F010FB206B19F096
:1033800007FCE063E06B08B92BA000E02DA001462C
:103390002FA01AF07DFF204600F0C4FB206B80694F
:1033A00020F00800216B8861019800F0100070B1D6
:1033B000206B406900F01000216B4861204600F04E
:1033C00071FB2948806940F0100027498861019805
:1033D00000F4002010B1204600F072FA019800F4C9
:1033E000802010B12046FFF7D7FE019800F00200C0
:1033F00028B1206B406900F00200216B486100BFDA
:1034000085E700002E2E5C2E2E5C2E2E5C636D73E5
:1034100069735C447269766572735C5372635C783D
:10342000793332683778785F68616C5F7063642ED7
:103430006300000000108000486967682D737065A4
:10344000656400006F746865722053706565640080
:10345000656E756D20646F6E652C20737065656494
:10346000202573200D0A00000000034030B58BB00A
:10347000044604B103E0472162A01BF0F3FB206B7C
:1034800000B103E048215FA01BF0ECFB94F84D0174
:1034900028B9002084F84C01204600F0CDF8032024
:1034A00084F84D01206B18F0A5FD282204F140019D
:1034B0006846FCF7FBFF04F130000FC818F006FB6C
:1034C00028B1022084F84D0101200BB030BD00214D
:1034D000206B1AF075FB206C012810D1206BC06D99
:1034E00080B2216BC865206BC06D52490843216BC7
:1034F000C865206B806840F02600216B886000253D
:1035000031E00121C5EBC50204F16C0000EB820043
:103510004170C5EBC50104F16C0000F82150C5EB0A
:10352000C50100EB8100C5800021C5EBC50204F197
:103530006C0000EB8200C170C5EBC50204F16C00A9
:1035400000EB82008160C5EBC50204F16C0000EB6A
:103550008200C160C5EBC50204F16C0000EB820083
:103560004161681CC5B2606BA842CAD800252AE038
:103570000021C5EBC50204F1DC0000EB82004170C4
:10358000C5EBC50104F1DC0000F821500021C5EBBA
:10359000C50200EB8200C170C5EBC50204F1DC007E
:1035A00000EB82008160C5EBC50204F1DC0000EB9A
:1035B0008200C160C5EBC50204F1DC0000EB8200B3
:1035C0004161681CC5B2606BA842D1D8282204F1C1
:1035D00040016846FCF76AFF04F130000FC818F09C
:1035E0001FFC20B1022084F84D0101206DE700206E
:1035F00084F86800012084F84D01206B18F0DAFB94
:10360000002062E72E2E5C2E2E5C2E2E5C636D73E6
:1036100069735C447269766572735C5372635C783B
:10362000793332683778785F68616C5F7063642ED5
:10363000630000000000EE0310B50446002189205D
:10364000FFF7ACFB8920FFF76FFB00BF89480068DC
:1036500020F400708749086000BF00BF084600687A
:1036600020F48060086000BF83A01AF011FE0122E0
:103670004021884804F041F94021864804F078F858
:10368000012208218348203804F037F908218148B5
:10369000203804F06DF8012210217E48203804F013
:1036A0002CF910217B48203804F062F801222021F7
:1036B0007848203804F021F920217648203804F099
:1036C00057F8012240217348203804F016F94021B0
:1036D0007048203804F04CF8012210216D48203049
:1036E00004F00BF910216B48203004F041F801225E
:1036F00080216848203804F000F98021654820388E
:1037000004F036F8012211026248203804F0F5F87E
:103710004FF480715F48203804F02AF801225102EA
:103720005C48203804F0E9F84FF40071594820381B
:1037300004F01EF8012291025648203804F0DDF80A
:103740004FF480615348203804F012F80122D1026E
:103750005048203804F0D1F84FF400614D4820382B
:1037600004F006F8012211034A48203804F0C5F895
:103770004FF480514748203803F0FAFF01222021FE
:103780004448203004F0B9F820214248203003F0AA
:10379000EFFF012240213F48203004F0AEF84021E5
:1037A0003C48203003F0E4FF0122802139482030DA
:1037B00004F0A3F880213748203003F0D9FF01221C
:1037C0000221344804F099F80221324803F0D0FF76
:1037D000012204212F4804F090F804212D4803F021
:1037E000C7FF012220212B4804F087F82021294817
:1037F00003F0BEFF01228021264804F07EF88021DC
:10380000244803F0B5FF01221102224804F075F8A4
:103810004FF480711F4803F0ABFF012251021D4895
:1038200004F06BF84FF400711A4803F0A1FF012275
:1038300004211848203804F060F804211548203885
:1038400003F096FF14A01AF023FD16A01AF020FD35
:1038500019A01AF01DFD0520FEF7EAFA04200D4913
:103860002039086100BF1548006840F00400134982
:10387000086010BD20040150696E69742075746D74
:103880006920696E7465726661636520706879206D
:103890000D0A0000201C01505553424465766963AF
:1038A000653A20005553422050485920506F7765A3
:1038B00072204F6E000000000A0000000018015046
:1038C0003EB505460024286B0090286B1AF07AF864
:1038D000029053E0029800F00100002849D02146F0
:1038E000286B1AF0E5F80190019800F0010050B142
:1038F0000121009800F5306000EB44108160214602
:10390000284605F097FC019800F0080008280AD125
:103910000821009800F5306000EB441081602146DA
:10392000284605F061FC019800F01000102806D12F
:103930001021009800F5306000EB44108160019880
:1039400000F02000202806D12021009800F53060EA
:1039500000EB44108160019800F40050B0F5005F66
:1039600007D14FF40051009800F5306000EB44108F
:103970008160601CC4B2029840080290029800283E
:10398000A8D13EBD70B50646346B1021306B19F0DE
:10399000BBF840F60400005920F0010140F6040095
:1039A000015100253EE04FF67F3104F5106000EB39
:1039B0004510816004F5106000EB4510006820F4AC
:1039C000001104F5106000EB4510016004F5106073
:1039D00000EB4510006840F0006104F5106000EB5A
:1039E000451001604FF67F3104F5306000EB451063
:1039F000816004F5306000EB4510006820F4003170
:103A000004F5306000EB4510016004F5306000EB18
:103A10004510006840F0006104F5306000EB45108F
:103A200001606D1C042DBEDB40F61C00005940F007
:103A3000011140F61C000151306E70B1D4F88408B9
:103A400040F00B01C4F8841840F64400005940F0DF
:103A50000B0140F6440001510FE040F614000059FC
:103A600042F22B01084340F614010851081F005987
:103A700040F00B014FF401600151D4F8000820F42C
:103A8000FE60C4F800084022915D3246306B18F0A9
:103A9000A3FC0348806920F008000149886170BDDB
:103AA000000003402DE9F8430546286B006A0090AA
:103AB000009800F00F080098C0F30A160098C0F3B1
:103AC0004347C8EBC80105F1DC0000EB8104072F78
:103AD0001FD2DFE807F01E2004211F22150047F641
:103AE000F0710098084050B1E1683246286B1AF036
:103AF00018F8E0683044E060A0693044A0610DE04F
:103B000008222946286B1AF00CF8A0693044A061FD
:103B100004E000BF00BF00BF00BF00BF00BFBDE8A2
:103B2000F883000070B504460126E06B20B101283F
:103B300005D0022809D105E010A5E66B08E012A522
:103B4000E66B05E0E66B13A502E0FDF799FC00BF0C
:103B500000BFF1B2D4F8580111F0AFFAD4F858010F
:103B600011F070FA0EA01AF093FB29460FA01AF07C
:103B70008FFB16A01AF08CFB70BD000068696768A7
:103B80002D7370656564000066756C6C2D737065CF
:103B9000656400006C6F772D7370656564000000CC
:103BA0005553424465766963653A200044657669F9
:103BB000636520436F6E6E656374656420746F2067
:103BC000486F737420617320257320000A00000081
:103BD00070B504460D4684F868502946206B1AF0EB
:103BE00031F8002070BD10B504462146D4F85801C4
:103BF00011F07AFA10BD000010B5044604B104E0DB
:103C000040F28E310CA01BF02DF8206B00B104E0C7
:103C100040F28F3108A01BF025F8206B18F012FF3E
:103C2000206B18F0C7F8206B18F08EF81E20FEF7F6
:103C3000FFF8002010BD00002E2E5C2E2E5C2E2ED4
:103C40005C636D7369735C447269766572735C530F
:103C500072635C78793332683778785F68616C5F5B
:103C60007063642E6300000010B50446D4F8580158
:103C700011F096FA10BD10B50446204604F0CAFAB9
:103C800010BD000038B5044600BF09480068009028
:103C9000009840F010000090009820F00040009044
:103CA00003490098086000BF204604F0DFFA38BDE1
:103CB0000050035010B5002472B600F0FFFC04F071
:103CC000F7F8802004F00EF9BFF36F8FBFF34F8F2A
:103CD00030BF08E0641C642C05D39B2105A01AF0BA
:103CE000C1FF002403E004F0F5F80028F2D000BF83
:103CF00062B610BD2E2E5C2E2E5C2E2E5C636D7374
:103D000069735C447269766572735C5372635C7844
:103D1000793332683778785F68616C5F7077722EBC
:103D20006300000070B50446002572B600F0C6FCC2
:103D30001548006820F00F00401D1349086000BFBF
:103D40001248006820F0E05020431049086000BF8E
:103D500004F0AEF84FF4807004F0C4F8BFF36F8F36
:103D6000BFF34F8F30BF08E06D1C642D05D3D72102
:103D700007A01AF077FF002503E004F0ABF8002855
:103D8000F2D000BF62B670BD401801500000015073
:103D90002E2E5C2E2E5C2E2E5C636D7369735C443C
:103DA0007269766572735C5372635C7879333268DA
:103DB0003778785F68616C5F7077722E63000000FF
:103DC0007047000008B50020009000BF234800683D
:103DD000C0F3C00080B100BF2048001F0068C0F3DE
:103DE000C05048B100BF6FF008001C49086000BF18
:103DF000009840F00800009000BF18480068C0F329
:103E0000001080B100BF1548001F0068C0F30060BB
:103E100048B100BF6FF010001049086000BF009863
:103E200040F01000009000BF0C480068C0F3401044
:103E300080B100BF0948001F0068C0F3406048B16E
:103E400000BF6FF020000549086000BF009840F0F7
:103E5000200000900098FFF7B3FF08BD0414015044
:103E6000704700001CB500200190009025480068B4
:103E7000019000BF2348006800F0010080B100BF3E
:103E80002048001F0068C0F3005048B100BF6FF029
:103E900001001C49086000BF009840F0010000903C
:103EA00000BF18480068C0F3400080B100BF15484B
:103EB000001F0068C0F3405048B100BF6FF002001F
:103EC0001049086000BF009840F00200009000BF59
:103ED0000C480068C0F3800080B100BF0948001F93
:103EE0000068C0F3805048B100BF6FF0040005497E
:103EF000086000BF009840F0040000900098FFF7B1
:103F0000AFFF1CBD0414015010B503460BB90120CE
:103F100010BD5879012801D00220F9E700BF1879B7
:103F2000012801D10220F3E70120187100BF02200F
:103F300058711868006840F480401C68206031B1F6
:103F40004FF4803040EA02301C68206202E0100327
:103F50001C6820621868006820F480401C6820609B
:103F60000120587100BF0020187100BF00BFCFE7CB
:103F70007047000070B504460D46002604B10DB927
:103F8000012070BD607920B900202071204600F02A
:103F90006BF902206071204605F0EDFB2068006897
:103FA00040F4804021680860287A20B90020216808
:103FB000C1F8080116E0287A012804D120202168E0
:103FC000C1F808010EE0287A022804D140202168B7
:103FD000C1F8080106E0287A032803D1602021688F
:103FE000C1F808012068B0F1964F16D14FF0104685
:103FF0004FF012402168C1F880014FF01440216851
:10400000C1F884014FF016402168C1F888014FF0D3
:1040100018402168C1F88C0119E0404920688842A5
:1040200015D14FF018464FF01A402168C1F88001B1
:104030004FF01C402168C1F884014FF01E402168F8
:10404000C1F888014FF020402168C1F88C01206838
:10405000C0F87C6100BF2168C1F800612168D1F817
:10406000600100F0400101B905E000F04000216866
:10407000C1F86001EFE700BF298AE86840EA014023
:104080002168D1F80411264A114008432168C1F87B
:104090000401082021684862D5E9001040EA0120A7
:1040A0002168C96840F60F72914308432168C860CF
:1040B0002068006820F00C00697A40EA81002168DD
:1040C00008602068D0F8100140F480702168C1F8C1
:1040D00010012068D0F8580120F01F00401C216812
:1040E000C1F858012068D0F8100120F01F002168A5
:1040F000C1F810012068C06920F47F4040F480506E
:104100002168C8612068006820F480402168086048
:104110000020A06001206071002032E70000104BF9
:10412000F8FFFEFFF0B5024602B109B90120F0BD6B
:10413000087908B90120FAE700BF1079012801D1F8
:104140000220F4E70120107100BF0220507100200E
:104150004DE0470007EB47070E68F65D4FF47C47DC
:1041600007EA86264FEA400C0CEB4C0C0F686744BC
:104170007F784FF4407C0CEA07273E434FEA400C1F
:104180000CEB4C0C0F686744BF7846EA0704012724
:1041900007EB400707EB47070E68F65D4FF47C47D7
:1041A00007EA86264FF0010C0CEB400C0CEB4C0C94
:1041B0000F6867447F784FF4407C0CEA07273E4342
:1041C0004FF0010C0CEB400C0CEB4C0C0F686744EF
:1041D000BF7846EA070504EB0543166806F5447602
:1041E0004F7900EB870746F82730461CF0B20E796E
:1041F00006EBD677B0EB670FABDB087900F0010078
:1042000050B30879401E00EB40000E68305C4FF45C
:104210007C4606EA80200E79761E06EB46060F687D
:104220003E4476784FF4407707EA062630430E790D
:10423000761E06EB46060F683E44B67840EA060353
:10424000087900EBD07677104E7907EB8607166871
:1042500006F5447646F827300120507100BF002053
:10426000107100BF00BF62E7704700002DE9FF5FDB
:1042700004460D469846DDE90E764FF00009CA4621
:10428000CB461CB9012004B0BDE8F09F607901283D
:1042900001D00220F7E700BF2079012801D10220D8
:1042A000F1E70120207100BFFDF7F0FD82460420F8
:1042B0006071C4F81480278367830020E060208247
:1042C00060822068D0F86C0140F480702168C1F8E9
:1042D0006C012068B0F1964F2CD10DB1042D06D1A0
:1042E0004FF010412046029A1AF024F834E0012DD4
:1042F00006D14FF012412046029A1AF01BF82BE02B
:10430000022D01D0052D06D14FF014412046029A0E
:104310001AF010F820E0032D06D14FF01641204688
:10432000029A1AF007F817E000BF0020207100BFC2
:104330000120A8E74C49206888420DD135B94FF0DB
:1043400018412046029A19F0F5FF05E000BF002051
:10435000207100BF012096E7042D01D0052D07D163
:1043600047F48030217F40EA01602168886004E0E2
:10437000207F47EA0060216888603AE02068D0F832
:104380005C01C0F3004000B32168D1F800B221689D
:10439000D1F8601141F480312268C2F86011002028
:1043A0000FE0C1002BFA01F162691170618B491EA7
:1043B00061836169491C6161618B01B903E0411C42
:1043C000C8B20428EDDB00BF00BFFDF75FFDA0EB26
:1043D0000A00B04201D3701C00B956B900BF0020DA
:1043E000207100BFA06840F01000A0600120607143
:1043F00049E7608B0028C1D113E0FDF747FDA0EB32
:104400000A00B04201D3701C00B956B900BF0020A9
:10441000207100BFA06840F01000A0600120607112
:1044200031E72068D0F85C0100F001000028E4D1F9
:104430002068006840F4806021680860204605F02C
:1044400039F98146B9F1000F06D0A06840F020008C
:10445000A0602046FFF78CFD0120607100BF0020A6
:10446000207100BF48460EE70000104B2DE9F05FB9
:1044700004460D4692469846DDE90A674FF000096A
:10448000CB4614B90120BDE8F09F6079012801D026
:104490000220F8E700BF2079012801D10220F2E7CD
:1044A0000120207100BFFDF7F1FC834603206071FD
:1044B0000020606120836083C4F80C8026826682BD
:1044C000204605F058F92068D0F86C0140F480705F
:1044D0002168C1F86C012068B0F1964F2CD10DB164
:1044E000042D06D152464FF01041204619F022FF0C
:1044F00034E0012D06D152464FF01241204619F00A
:1045000019FF2BE0022D01D0052D06D152464FF0A8
:104510001441204619F00EFF20E0032D06D152462B
:104520004FF01641204619F005FF17E000BF0020AC
:10453000207100BF0120A6E73949206888420DD1CB
:1045400035B952464FF01841204619F0F3FE05E008
:1045500000BF0020207100BF012094E720680068A0
:1045600040F40060216808602068D0F8600140F0E5
:1045700000602168C1F860014021204605F0ACF8D8
:10458000204605F0E3F8042D01D0052D07D146F4AF
:104590008030217F40EA01602168886004E0207F4C
:1045A00046EA0060216888601DE02068D0F85C0160
:1045B000C0F3406018B10121204605F08DF8FDF7E9
:1045C00065FCA0EB0B00B84201D3781C00B957B9C9
:1045D00000BF0020207100BFA06840F01000A06064
:1045E000012060714FE72068D0F85C0100F0010005
:1045F0000028DAD1204605F05DF88146B9F1000FB8
:1046000006D0A06840F02000A0602046FFF7B0FC74
:104610000120607100BF0020207100BF484632E7D2
:104620000000104B02460AB90120704700BF107904
:10463000012801D10220F8E70120107100BF0220FB
:10464000507111770120507100BF0020107100BF20
:1046500000BFEAE710B503F097FD0446094804607F
:10466000204603F09FFC0446204603F0B3FC0446BA
:10467000204603F07FFC0446204603F0C3FC0446BA
:10468000204610BD3442003070B504462546681EF1
:10469000B0F1807F01D301200FE0681E4FF0E021D0
:1046A00048610F214FF0FF3019F04AFE00204FF013
:1046B000E021886107200861002070BD4FF0E020F4
:1046C000006920F001004FF0E02108617047704759
:1046D00010B504460CB9012010BD2068B0F1824F1E
:1046E00037D027492068884233D02649206888423D
:1046F0002FD02549206888422BD024492068884241
:1047000027D023492068884223D02068B0F1924FF7
:104710001FD02049206888421BD01F49206888424A
:1047200017D01E492068884213D01D49206888424E
:104730000FD01C49206888420BD01B492068884252
:1047400007D02068B0F1A24F03D0184920688842F2
:1047500000D104E04FF4957115A01AF083FA2420DB
:10476000A063206803F09FFDE06E08B91C48E06676
:104770002046E16E884700202064A06300BFABE7BD
:104780000010004100200041003000410040004185
:10479000005000410010004900200049003000494D
:1047A00000400049005000490060004900100051DD
:1047B0002E2E5C2E2E5C2E2E5C636D7369735C4412
:1047C0007269766572735C5372635C7879333268B0
:1047D0003778785F68616C5F75736172742E6300FF
:1047E000414E023010B504462068B0F1824F37D0F8
:1047F0002E492068884233D02D49206888422FD026
:104800002C49206888422BD02B492068884227D029
:104810002A492068884223D02068B0F1924F1FD0E7
:104820002749206888421BD026492068884217D033
:1048300025492068884213D02449206888420FD037
:104840002349206888420BD022492068884207D03B
:104850002068B0F1A24F03D01F492068884200D1E0
:1048600004E040F28B211DA01AF0FCF900BF94F87F
:104870003400012801D1022010BD012084F8340049
:1048800000BF2420A0632068D0F8981021F0010117
:10489000C0F8981000BF0020A0612020A06300BFD6
:1048A000002084F8340000BF00BFE5E7001000419D
:1048B0000020004100300041004000410050004114
:1048C0000010004900200049003000490040004924
:1048D0000050004900600049001000512E2E5C2E4F
:1048E0002E5C2E2E5C636D7369735C447269766511
:1048F00072735C5372635C78793332683778785FAF
:1049000068616C5F75736172742E630010B5044644
:104910002068B0F1824F37D030492068884233D0C8
:104920002F49206888422FD02E49206888422BD0FA
:104930002D492068884227D02C492068884223D0FE
:104940002068B0F1924F1FD02949206888421BD0BF
:1049500028492068884217D027492068884213D008
:104960002649206888420FD02549206888420BD00C
:1049700024492068884207D02068B0F1A24F03D0B4
:1049800021492068884200D104E040F26A211FA03A
:104990001AF068F900BF94F83400012801D1022010
:1049A00010BD012084F8340000BF2420A0632068DB
:1049B000D0F8981041F00101C0F8981000BF012014
:1049C000A06120460AF030F92020A06300BF00203B
:1049D00084F8340000BF00BFE2E70000001000418F
:1049E00000200041003000410040004100500041E3
:1049F00000100049002000490030004900400049F3
:104A00000050004900600049001000512E2E5C2E1D
:104A10002E5C2E2E5C636D7369735C4472697665DF
:104A200072735C5372635C78793332683778785F7D
:104A300068616C5F75736172742E6300704770B546
:104A400004462068816801F00F010D462068466920
:104A5000042D01D00C2D10D12068416801F0010116
:104A600059B1606A10B12046616A88470C2D53D154
:104A7000206C40F0200020644EE0022D10D1206810
:104A80004168C1F3400121B920684168C1F3C011F8
:104A900031B1A06A00283FD02046A16A88473BE098
:104AA000072D04D1206C40F08000206434E0062DF6
:104AB00032D120684168C1F3800139B306F080002B
:104AC00018B1206C40F04000206406F0080018B1D6
:104AD000206C40F00400206406F0040018B1206C43
:104AE00040F00100206406F0020018B1206C40F094
:104AF00008002064206C48B1206C00F0280030B120
:104B0000204605F088FF2046216D884704E02046B6
:104B1000216D884700202064206803F071F9012886
:104B20007CD12068D0F8E810C90F002976D0206821
:104B3000D0F8E810C1F3C01189B12068D0F8E810AE
:104B4000C1F3004159B1042084F83C002068D0F83A
:104B5000E81041F08001C0F8E81000BF00BF2068F5
:104B6000D0F8E81001F0010189B12068D0F8E81010
:104B7000C1F3402159B1052084F83C002068D0F8E9
:104B8000E81041F00101C0F8E81000BF00BF206844
:104B9000D0F8E810C1F3400189B12068D0F8E810DE
:104BA000C1F3802159B1062084F83C002068D0F878
:104BB000E81041F00201C0F8E81000BF00BF206813
:104BC000D0F8E810C1F3002191B12068D0F8E810C6
:104BD000C1F3404161B1206C40F4807020642068D2
:104BE000D0F8E81041F48071C0F8E81000BF00BFB1
:104BF0002068D0F8E810C1F30011A1B12068D0F806
:104C0000E810C1F3403171B1206C40F400702064B1
:104C10002068D0F8E81041F0100100E058E0C0F83A
:104C2000E81000BF00BF2068D0F8E810C1F34011C1
:104C300091B12068D0F8E810C1F3803161B1206CE7
:104C400040F4806020642068D0F8E81041F0200132
:104C5000C0F8E81000BF00BF2068D0F8E810C1F32A
:104C6000C00191B12068D0F8E810C1F3003161B102
:104C7000206C40F4006020642068D0F8E81041F017
:104C80000801C0F8E81000BF00BF2068D0F8E810A5
:104C9000C1F3800191B12068D0F8E810C1F3C021C0
:104CA00061B1206C40F4805020642068D0F8E81096
:104CB00041F00401C0F8E81000BF00BF2046216E9B
:104CC0008847206C20B12046616E88470020206410
:104CD00070BD000070B504460D460CB9012070BDD2
:104CE0002068B0F1824F37D03C492068884233D0E9
:104CF0003B49206888422FD03A49206888422BD00F
:104D000039492068884227D038492068884223D012
:104D10002068B0F1924F1FD03549206888421BD0DF
:104D200034492068884217D033492068884213D01C
:104D30003249206888420FD03149206888420BD020
:104D400030492068884207D02068B0F1A24F03D0D4
:104D50002D492068884200D103E05B212BA019F087
:104D600081FFA06B60B9002084F83400204605F074
:104D700077FEA06E08B93148A0662046A16E88472C
:104D80002420A0632946206803F0D4FA012800D12A
:104D9000A5E700BF2869032802D1FF20207512E093
:104DA0002869022802D17F2020750CE0286901289B
:104DB00002D13F20207506E0286910B91F20207518
:104DC00001E00020207500BF2020A06300BF00206C
:104DD00084F8340000BF00BF81E7000000100041EC
:104DE00000200041003000410040004100500041DF
:104DF00000100049002000490030004900400049EF
:104E00000050004900600049001000512E2E5C2E19
:104E10002E5C2E2E5C636D7369735C4472697665DB
:104E200072735C5372635C78793332683778785F79
:104E300068616C5F75736172742E6300454E023059
:104E40007047000010B504462068B0F1824F14D1BD
:104E500002225102304802F01CFD022291022E482B
:104E600002F017FD012291022B4802F0BAFC012248
:104E7000D102294802F0B5FC4DE02849206888425B
:104E800014D102220421264802F003FD0222082147
:104E9000234802F0FEFC07220421214802F06BFCAB
:104EA000072208211E4802F066FC34E01D492068F4
:104EB000884218D1022240211748203802F0E9FC2C
:104EC000022280211448203802F0E3FC0022402115
:104ED0001148203802F04FFC002280210E48203873
:104EE00002F049FC17E010492068884213D10222E1
:104EF00011460E4802F0CDFC022204210B4802F0BC
:104F0000C8FC01220221094802F035FC01220421DB
:104F1000064802F030FC10BD001D01500010004199
:104F2000001C01500020004100100049A01E01504B
:104F300070B504460E4615460CB9012070BD2068B8
:104F4000B0F1824F37D05C492068884233D05B494A
:104F5000206888422FD05A49206888422BD059496E
:104F60002068884227D058492068884223D020688A
:104F7000B0F1924F1FD05549206888421BD0544948
:104F80002068884217D053492068884213D052497C
:104F9000206888420FD05149206888420BD0504980
:104FA0002068884207D02068B0F1A24F03D04D4955
:104FB0002068884200D103E095214BA019F052FEF1
:104FC000286810B12868022800D103E0982146A083
:104FD00019F048FE2879FF2800D803E09B2142A061
:104FE00019F040FE6879FF2800D803E09E213EA01A
:104FF00019F038FEA06B60B9002084F83400204618
:1050000005F02EFDA06E08B94348A0662046A16EAB
:1050100088472420A0633146206803F08BF90128DB
:1050200000D18BE700BF3069032802D1FF20207533
:1050300012E03069022802D17F2020750CE030692F
:10504000012802D13F20207506E0306910B91F20E9
:10505000207501E00020207500BF20682968D0F885
:10506000D42022F002020A43C0F8D42000BF2979DC
:105070002068D0F8D82022F0FF020A43C0F8D820D8
:1050800000BF69792068D0F8DC2022F0FF020A43D3
:10509000C0F8DC2000BF2068D0F8D41041F0010136
:1050A000C0F8D41000BF2020A06300BF002084F807
:1050B000340000BF00BF41E7001000410020004164
:1050C0000030004100400041005000410010004904
:1050D00000200049003000490040004900500049CC
:1050E00000600049001000512E2E5C2E2E5C2E2EEA
:1050F0005C636D7369735C447269766572735C534B
:1051000072635C78793332683778785F68616C5F96
:1051100075736172742E6300454E02302DE9F041C3
:1051200004460F4615461E46A06B202863D107B1E2
:1051300015B90120BDE8F08100BF94F834000128C2
:1051400001D10220F6E7012084F8340000BF0020DE
:1051500020642220A063206802F052FE012802D1C0
:10516000032084F83C00FCF791FE8046E76025822E
:10517000658200BF002084F8340000BF34E020685E
:1051800003F016FA012811D1206803F007FA01286C
:105190001DD120680068217D0840E1680870E06842
:1051A000401CE060608A401E608210E0206803F0CE
:1051B000F0F901280BD120680068217D0840E168E2
:1051C0000870E068401CE060608A401E6082FCF766
:1051D0005DFEA0EB0800B04201D3701C00B91EB9FF
:1051E0002020A0630320A5E7608A0028C7D12020E3
:1051F000A06300209EE702209CE70000F7B504466C
:105200001546002601AFA06B202844D1019800B1BB
:105210000DB90120FEBD00BF94F83400012801D172
:105220000220F7E7012084F8340000BF0198E06015
:105230002582019860602581002020642220A063DF
:10524000206B60B11548216BC8601548216B08615F
:105250003A682B462168206BFCF720FD06464EB9C4
:1052600000BF002084F8340000BF206803F052F82B
:105270000020CFE7206B18B1206BFCF7D1FA06466F
:105280001020206400BF002084F8340000BF2020DC
:10529000A0630120BEE70220BCE70000AFA90230F6
:1052A00089A9023070B504460E461546A06B202829
:1052B00038D106B10DB9012070BD00BF94F834009B
:1052C000012801D10220F7E7012084F8340000BF53
:1052D000E660258265820020606220642220A0634F
:1052E000206802F08DFD012802D1032084F83C00E3
:1052F000206803F00FF8206803F05AF9012802D162
:105300000948606201E00948606200BF002084F83B
:10531000340000BF2068416841F00101416000BFD6
:105320000020C9E70220C7E7BDEB023059EB02308D
:105330000121014A11707047403800307047000069
:1053400070B504460D462068B0F1824F37D036491B
:105350002068884233D03549206888422FD03449AC
:10536000206888422BD033492068884227D03249B0
:105370002068884223D02068B0F1924F1FD02F4977
:10538000206888421BD02E492068884217D02D49BA
:105390002068884213D02C49206888420FD02B49BE
:1053A000206888420BD02A492068884207D02068AC
:1053B000B0F1A24F03D027492068884200D104E011
:1053C00040F2D62124A019F04DFC2DB1402D03D080
:1053D000802D01D0C02D00D104E040F2D7211EA0C5
:1053E00019F040FC00BF94F83400012801D10220DC
:1053F00070BD012084F8340000BF2420A063206821
:10540000D0F89C1021F003012943C0F89C1000BF84
:10541000204609F009FC2020A06300BF002084F88A
:10542000340000BF00BFE3E700100041002000414E
:105430000030004100400041005000410010004990
:105440000020004900300049004000490050004958
:1054500000600049001000512E2E5C2E2E5C2E2E76
:105460005C636D7369735C447269766572735C53D7
:1054700072635C78793332683778785F68616C5F23
:1054800075736172742E630070B504460D46206812
:10549000B0F1824F37D036492068884233D0354941
:1054A000206888422FD03449206888422BD0334965
:1054B0002068884227D032492068884223D020685B
:1054C000B0F1924F1FD02F49206888421BD02E493F
:1054D0002068884217D02D492068884213D02C4973
:1054E000206888420FD02B49206888420BD02A4977
:1054F0002068884207D02068B0F1A24F03D0274926
:105500002068884200D104E040F2AF2124A019F0C5
:10551000A9FB2DB1102D03D0202D01D0302D00D1AD
:1055200004E04FF42C711EA019F09CFB00BF94F80E
:105530003400012801D1022070BD012084F834001C
:1055400000BF2420A0632068D0F8A01021F0030140
:105550002943C0F8A01000BF204609F065FB2020B9
:10556000A06300BF002084F8340000BF00BFE3E761
:105570000010004100200041003000410040004187
:10558000005000410010004900200049003000494F
:1055900000400049005000490060004900100051DF
:1055A0002E2E5C2E2E5C2E2E5C636D7369735C4414
:1055B0007269766572735C5372635C7879333268B2
:1055C0003778785F68616C5F75736172742E630001
:1055D0002DE9F04104460F4616461D464FF00008DF
:1055E000A06B202874D107B116B90120BDE8F08165
:1055F00000BF94F83400012801D10220F6E7012011
:1056000084F8340000BF002020642120A0632068BB
:1056100002F0F6FB012802D1022084F83C00FCF7DE
:1056200035FC804667602681668100BF002084F8D3
:10563000340000BF30E0206802F0BAFF01280FD12B
:10564000206802F0B0FF012819D160680078216855
:1056500008606068401C60606089401E60810EE0E8
:1056600020684169C1F3401149B160680078216840
:1056700008606068401C60606089401E6081FCF7C3
:1056800005FCA0EB0800A84201D3681C00B91DB9B5
:105690002020A0630320A9E760890028CBD10CE07B
:1056A000FCF7F4FBA0EB0800A84201D3681C00B98A
:1056B0001DB92020A063032098E720684169C1F349
:1056C00080110029ECD02020A06300208EE7FFE7A6
:1056D00002208BE72DE9FF4104461E46A06B2028DF
:1056E0005BD1019810B1029800B11EB9012004B03D
:1056F000BDE8F08100BF94F83400012801D10220F8
:10570000F5E7012084F8340000BF0298E0602682AB
:10571000019860602681002020642320A063206B14
:10572000F0B1E06AE0B11E48216BC8601D48E16A33
:10573000C8601D48E16A0861216B086102AF3A68E0
:1057400033462168206BFCF7A9FA05464DB901AF35
:10575000226839683346E06AFCF7A0FA054600E0A3
:1057600001254DB900BF002084F8340000BF206837
:1057700002F0D0FD0020BAE7206B18B1206BFCF7D7
:105780004FF805461020206400BF002084F8340044
:1057900000BF2020A0630120A9E70220A7E70000A6
:1057A000AFA90230D3A9023089A90230F7B5044667
:1057B00015460027A06B202839D1019800B10DB9FA
:1057C0000120FEBD00BF94F83400012801D1022061
:1057D000F7E7012084F8340000BF0198606025815C
:1057E0006581002020642120A063E06A68B111482F
:1057F000E16AC8601048E16A086101AE2268316858
:105800002B46E06AFCF74AFA07462FB900BF002092
:1058100084F8340000BFD4E71020206400BF0020CB
:1058200084F8340000BF2020A0630120C9E70220D3
:10583000C7E70000D3A9023089A9023070B5044639
:105840000E461546A06B202840D106B10DB90120A7
:1058500070BD00BF94F83400012801D10220F7E7A1
:10586000012084F8340000BF666025816581002036
:10587000A06220642120A063206802F0C1FA012800
:1058800002D1022084F83C00206802F091FE012839
:1058900010D10F48A06200BF002084F8340000BF80
:1058A0002068416841F08001416000BF206802F03B
:1058B00036FD09E00748A06200BF002084F83400EC
:1058C00000BF206802F02BFD0020C1E70220BFE7E7
:1058D000A13A0330493A0330704770470121014A29
:1058E00011707047403800302DE9F84305460F46E7
:1058F000D5F8008046463C4606F5A06000EB441013
:10590000806800F00400042811D1042106F5A0608D
:1059100000EB4410816006F5A06000EB4410C06805
:1059200040F0020106F5A06000EB4410C16006F5EE
:10593000A06000EB4410806800F48070B0F5807FB8
:1059400021D14FF4807106F5A06000EB4410816016
:10595000082104EB440000EBC40205F1380000EB21
:10596000820080F8291006F5A06000EB4410C068A2
:1059700040F0020106F5A06000EB4410C160E1B206
:10598000286817F067F906F5A06000EB44108068FE
:1059900000F02000202805D1202106F5A06000EBB2
:1059A0004410816006F5A06000EB4410806800F0B0
:1059B0000800082826D106F5A06000EB4410C06856
:1059C00040F0020106F5A06000EB4410C160062122
:1059D00004EB440000EBC40205F1380000EB820048
:1059E00080F82910102106F5A06000EB44108160BA
:1059F000082106F5A06000EB44108160E1B2286840
:105A000017F028F906F5A06000EB4410806800F458
:105A10008060B0F5806F26D106F5A06000EB4410E1
:105A2000C06840F0020106F5A06000EB4410C160C0
:105A3000092104EB440000EBC40205F1380000EB3F
:105A4000820080F82910102106F5A06000EB4410B8
:105A50008160890106F5A06000EB44108160E1B22D
:105A6000286817F0F7F806F5A06000EB441080688E
:105A700000F08000802820D106F5A06000EB4410E3
:105A8000C06840F0020106F5A06000EB4410C16060
:105A9000072104EB440000EBC40205F1380000EBE1
:105AA000820080F82910E1B2286817F0D3F880212D
:105AB00006F5A06000EB4410816006F5A06000EBE5
:105AC0004410806800F40070B0F5007F16D106F530
:105AD000A06000EB4410C06840F0020106F5A06031
